{
  "abi": [
    {
      "inputs": [],
      "stateMutability": "payable",
      "type": "constructor"
    },
    {
      "anonymous": false,
      "inputs": [
        {
          "indexed": true,
          "internalType": "address",
          "name": "player",
          "type": "address"
        },
        {
          "indexed": false,
          "internalType": "uint256",
          "name": "amount",
          "type": "uint256"
        },
        {
          "indexed": false,
          "internalType": "bool",
          "name": "isOver",
          "type": "bool"
        }
      ],
      "name": "BetEvent",
      "type": "event"
    },
    {
      "anonymous": false,
      "inputs": [
        {
          "indexed": false,
          "internalType": "uint256[3]",
          "name": "dices",
          "type": "uint256[3]"
        }
      ],
      "name": "SettleEvent",
      "type": "event"
    },
    {
      "inputs": [
        {
          "internalType": "bool",
          "name": "isOver",
          "type": "bool"
        }
      ],
      "name": "bet",
      "outputs": [],
      "stateMutability": "payable",
      "type": "function"
    },
    {
      "inputs": [
        {
          "internalType": "bool",
          "name": "",
          "type": "bool"
        },
        {
          "internalType": "uint256",
          "name": "",
          "type": "uint256"
        }
      ],
      "name": "betsMap",
      "outputs": [
        {
          "internalType": "address",
          "name": "player",
          "type": "address"
        },
        {
          "internalType": "uint256",
          "name": "amount",
          "type": "uint256"
        },
        {
          "internalType": "bool",
          "name": "isOver",
          "type": "bool"
        }
      ],
      "stateMutability": "view",
      "type": "function"
    },
    {
      "inputs": [
        {
          "internalType": "uint256",
          "name": "",
          "type": "uint256"
        }
      ],
      "name": "dices",
      "outputs": [
        {
          "internalType": "uint256",
          "name": "",
          "type": "uint256"
        }
      ],
      "stateMutability": "view",
      "type": "function"
    },
    {
      "inputs": [],
      "name": "getBalance",
      "outputs": [
        {
          "internalType": "uint256",
          "name": "",
          "type": "uint256"
        }
      ],
      "stateMutability": "view",
      "type": "function"
    },
    {
      "inputs": [],
      "name": "getBets",
      "outputs": [
        {
          "components": [
            {
              "internalType": "address",
              "name": "player",
              "type": "address"
            },
            {
              "internalType": "uint256",
              "name": "amount",
              "type": "uint256"
            },
            {
              "internalType": "bool",
              "name": "isOver",
              "type": "bool"
            }
          ],
          "internalType": "struct SicBo.Bet[][]",
          "name": "",
          "type": "tuple[][]"
        }
      ],
      "stateMutability": "view",
      "type": "function"
    },
    {
      "inputs": [],
      "name": "getDices",
      "outputs": [
        {
          "internalType": "uint256[3]",
          "name": "",
          "type": "uint256[3]"
        }
      ],
      "stateMutability": "view",
      "type": "function"
    },
    {
      "inputs": [],
      "name": "isFinished",
      "outputs": [
        {
          "internalType": "bool",
          "name": "",
          "type": "bool"
        }
      ],
      "stateMutability": "view",
      "type": "function"
    },
    {
      "inputs": [],
      "name": "owner",
      "outputs": [
        {
          "internalType": "address",
          "name": "",
          "type": "address"
        }
      ],
      "stateMutability": "view",
      "type": "function"
    },
    {
      "inputs": [],
      "name": "settle",
      "outputs": [],
      "stateMutability": "nonpayable",
      "type": "function"
    },
    {
      "inputs": [],
      "name": "totalBet",
      "outputs": [
        {
          "internalType": "uint256",
          "name": "",
          "type": "uint256"
        }
      ],
      "stateMutability": "view",
      "type": "function"
    }
  ],
  "devdoc": {
    "kind": "dev",
    "methods": {
      "bet(bool)": {
        "details": "Allows players to place bets on the game.",
        "params": {
          "isOver": "A boolean indicating whether the player is betting on the sum being over 10."
        }
      },
      "constructor": {
        "details": "Constructor function.Sets the initial balance and owner of the contract."
      },
      "getBalance()": {
        "details": "Retrieves the current balance of the contract.",
        "returns": {
          "_0": "The balance of the contract."
        }
      },
      "getBets()": {
        "details": "Retrieves the list of bets placed in the game.",
        "returns": {
          "_0": "The array of bets."
        }
      },
      "getDices()": {
        "details": "Retrieves the current dice values.",
        "returns": {
          "_0": "The array of dice values."
        }
      },
      "settle()": {
        "details": "Settles the game and distributes the winnings to the players."
      }
    },
    "version": 1
  },
  "evm": {
    "assembly": "    /* \"SicBo.sol\":423:4385  contract SicBo {... */\n  mstore(0x40, 0x80)\n    /* \"SicBo.sol\":739:744  false */\n  0x00\n    /* \"SicBo.sol\":714:744  bool public isFinished = false */\n  0x05\n  exp(0x0100, 0x00)\n  dup2\n  sload\n  dup2\n  0xff\n  mul\n  not\n  and\n  swap1\n  dup4\n  iszero\n  iszero\n  mul\n  or\n  swap1\n  sstore\n  pop\n    /* \"SicBo.sol\":1545:1557  0.0001 ether */\n  0x5af3107a4000\n    /* \"SicBo.sol\":1532:1541  msg.value */\n  callvalue\n    /* \"SicBo.sol\":1532:1557  msg.value >= 0.0001 ether */\n  lt\n  iszero\n    /* \"SicBo.sol\":1510:1646  require(... */\n  tag_3\n  jumpi\n  mload(0x40)\n  0x08c379a000000000000000000000000000000000000000000000000000000000\n  dup2\n  mstore\n  0x04\n  add\n  tag_4\n  swap1\n  tag_5\n  jump\t// in\ntag_4:\n  mload(0x40)\n  dup1\n  swap2\n  sub\n  swap1\n  revert\ntag_3:\n    /* \"SicBo.sol\":1665:1675  msg.sender */\n  caller\n    /* \"SicBo.sol\":1657:1662  owner */\n  0x00\n  dup1\n    /* \"SicBo.sol\":1657:1675  owner = msg.sender */\n  0x0100\n  exp\n  dup2\n  sload\n  dup2\n  0xffffffffffffffffffffffffffffffffffffffff\n  mul\n  not\n  and\n  swap1\n  dup4\n  0xffffffffffffffffffffffffffffffffffffffff\n  and\n  mul\n  or\n  swap1\n  sstore\n  pop\n    /* \"SicBo.sol\":423:4385  contract SicBo {... */\n  jump(tag_6)\n    /* \"#utility.yul\":7:176   */\ntag_7:\n    /* \"#utility.yul\":91:102   */\n  0x00\n    /* \"#utility.yul\":125:131   */\n  dup3\n    /* \"#utility.yul\":120:123   */\n  dup3\n    /* \"#utility.yul\":113:132   */\n  mstore\n    /* \"#utility.yul\":165:169   */\n  0x20\n    /* \"#utility.yul\":160:163   */\n  dup3\n    /* \"#utility.yul\":156:170   */\n  add\n    /* \"#utility.yul\":141:170   */\n  swap1\n  pop\n    /* \"#utility.yul\":7:176   */\n  swap3\n  swap2\n  pop\n  pop\n  jump\t// out\n    /* \"#utility.yul\":182:430   */\ntag_8:\n    /* \"#utility.yul\":322:356   */\n  0x496e697469616c2062616c616e6365206d757374206265206772656174657220\n    /* \"#utility.yul\":318:319   */\n  0x00\n    /* \"#utility.yul\":310:316   */\n  dup3\n    /* \"#utility.yul\":306:320   */\n  add\n    /* \"#utility.yul\":299:357   */\n  mstore\n    /* \"#utility.yul\":391:422   */\n  0x7468616e206f7220657175616c20746f20302e30303031206574686572000000\n    /* \"#utility.yul\":386:388   */\n  0x20\n    /* \"#utility.yul\":378:384   */\n  dup3\n    /* \"#utility.yul\":374:389   */\n  add\n    /* \"#utility.yul\":367:423   */\n  mstore\n    /* \"#utility.yul\":182:430   */\n  pop\n  jump\t// out\n    /* \"#utility.yul\":436:802   */\ntag_9:\n    /* \"#utility.yul\":578:581   */\n  0x00\n    /* \"#utility.yul\":599:666   */\n  tag_14\n    /* \"#utility.yul\":663:665   */\n  0x3d\n    /* \"#utility.yul\":658:661   */\n  dup4\n    /* \"#utility.yul\":599:666   */\n  tag_7\n  jump\t// in\ntag_14:\n    /* \"#utility.yul\":592:666   */\n  swap2\n  pop\n    /* \"#utility.yul\":675:768   */\n  tag_15\n    /* \"#utility.yul\":764:767   */\n  dup3\n    /* \"#utility.yul\":675:768   */\n  tag_8\n  jump\t// in\ntag_15:\n    /* \"#utility.yul\":793:795   */\n  0x40\n    /* \"#utility.yul\":788:791   */\n  dup3\n    /* \"#utility.yul\":784:796   */\n  add\n    /* \"#utility.yul\":777:796   */\n  swap1\n  pop\n    /* \"#utility.yul\":436:802   */\n  swap2\n  swap1\n  pop\n  jump\t// out\n    /* \"#utility.yul\":808:1227   */\ntag_5:\n    /* \"#utility.yul\":974:978   */\n  0x00\n    /* \"#utility.yul\":1012:1014   */\n  0x20\n    /* \"#utility.yul\":1001:1010   */\n  dup3\n    /* \"#utility.yul\":997:1015   */\n  add\n    /* \"#utility.yul\":989:1015   */\n  swap1\n  pop\n    /* \"#utility.yul\":1061:1070   */\n  dup2\n    /* \"#utility.yul\":1055:1059   */\n  dup2\n    /* \"#utility.yul\":1051:1071   */\n  sub\n    /* \"#utility.yul\":1047:1048   */\n  0x00\n    /* \"#utility.yul\":1036:1045   */\n  dup4\n    /* \"#utility.yul\":1032:1049   */\n  add\n    /* \"#utility.yul\":1025:1072   */\n  mstore\n    /* \"#utility.yul\":1089:1220   */\n  tag_17\n    /* \"#utility.yul\":1215:1219   */\n  dup2\n    /* \"#utility.yul\":1089:1220   */\n  tag_9\n  jump\t// in\ntag_17:\n    /* \"#utility.yul\":1081:1220   */\n  swap1\n  pop\n    /* \"#utility.yul\":808:1227   */\n  swap2\n  swap1\n  pop\n  jump\t// out\n    /* \"SicBo.sol\":423:4385  contract SicBo {... */\ntag_6:\n  dataSize(sub_0)\n  dup1\n  dataOffset(sub_0)\n  0x00\n  codecopy\n  0x00\n  return\nstop\n\nsub_0: assembly {\n        /* \"SicBo.sol\":423:4385  contract SicBo {... */\n      mstore(0x40, 0x80)\n      jumpi(tag_1, lt(calldatasize, 0x04))\n      shr(0xe0, calldataload(0x00))\n      dup1\n      0x912475ba\n      gt\n      tag_12\n      jumpi\n      dup1\n      0x912475ba\n      eq\n      tag_7\n      jumpi\n      dup1\n      0xa426134c\n      eq\n      tag_8\n      jumpi\n      dup1\n      0xa6afd5fd\n      eq\n      tag_9\n      jumpi\n      dup1\n      0xcf9e474b\n      eq\n      tag_10\n      jumpi\n      dup1\n      0xfe5e1853\n      eq\n      tag_11\n      jumpi\n      jump(tag_1)\n    tag_12:\n      dup1\n      0x11da60b4\n      eq\n      tag_2\n      jumpi\n      dup1\n      0x12065fe0\n      eq\n      tag_3\n      jumpi\n      dup1\n      0x523afb0d\n      eq\n      tag_4\n      jumpi\n      dup1\n      0x7b352962\n      eq\n      tag_5\n      jumpi\n      dup1\n      0x8da5cb5b\n      eq\n      tag_6\n      jumpi\n    tag_1:\n      0x00\n      dup1\n      revert\n        /* \"SicBo.sol\":3073:3625  function settle() public {... */\n    tag_2:\n      callvalue\n      dup1\n      iszero\n      tag_13\n      jumpi\n      0x00\n      dup1\n      revert\n    tag_13:\n      pop\n      tag_14\n      tag_15\n      jump\t// in\n    tag_14:\n      stop\n        /* \"SicBo.sol\":4283:4382  function getBalance() public view returns (uint256) {... */\n    tag_3:\n      callvalue\n      dup1\n      iszero\n      tag_16\n      jumpi\n      0x00\n      dup1\n      revert\n    tag_16:\n      pop\n      tag_17\n      tag_18\n      jump\t// in\n    tag_17:\n      mload(0x40)\n      tag_19\n      swap2\n      swap1\n      tag_20\n      jump\t// in\n    tag_19:\n      mload(0x40)\n      dup1\n      swap2\n      sub\n      swap1\n      return\n        /* \"SicBo.sol\":2338:2972  function bet(bool isOver) public payable {... */\n    tag_4:\n      tag_21\n      0x04\n      dup1\n      calldatasize\n      sub\n      dup2\n      add\n      swap1\n      tag_22\n      swap2\n      swap1\n      tag_23\n      jump\t// in\n    tag_22:\n      tag_24\n      jump\t// in\n    tag_21:\n      stop\n        /* \"SicBo.sol\":714:744  bool public isFinished = false */\n    tag_5:\n      callvalue\n      dup1\n      iszero\n      tag_25\n      jumpi\n      0x00\n      dup1\n      revert\n    tag_25:\n      pop\n      tag_26\n      tag_27\n      jump\t// in\n    tag_26:\n      mload(0x40)\n      tag_28\n      swap2\n      swap1\n      tag_29\n      jump\t// in\n    tag_28:\n      mload(0x40)\n      dup1\n      swap2\n      sub\n      swap1\n      return\n        /* \"SicBo.sol\":491:511  address public owner */\n    tag_6:\n      callvalue\n      dup1\n      iszero\n      tag_30\n      jumpi\n      0x00\n      dup1\n      revert\n    tag_30:\n      pop\n      tag_31\n      tag_32\n      jump\t// in\n    tag_31:\n      mload(0x40)\n      tag_33\n      swap2\n      swap1\n      tag_34\n      jump\t// in\n    tag_33:\n      mload(0x40)\n      dup1\n      swap2\n      sub\n      swap1\n      return\n        /* \"SicBo.sol\":549:569  uint[3] public dices */\n    tag_7:\n      callvalue\n      dup1\n      iszero\n      tag_35\n      jumpi\n      0x00\n      dup1\n      revert\n    tag_35:\n      pop\n      tag_36\n      0x04\n      dup1\n      calldatasize\n      sub\n      dup2\n      add\n      swap1\n      tag_37\n      swap2\n      swap1\n      tag_38\n      jump\t// in\n    tag_37:\n      tag_39\n      jump\t// in\n    tag_36:\n      mload(0x40)\n      tag_40\n      swap2\n      swap1\n      tag_20\n      jump\t// in\n    tag_40:\n      mload(0x40)\n      dup1\n      swap2\n      sub\n      swap1\n      return\n        /* \"SicBo.sol\":1007:1044  mapping(bool => Bet[]) public betsMap */\n    tag_8:\n      callvalue\n      dup1\n      iszero\n      tag_41\n      jumpi\n      0x00\n      dup1\n      revert\n    tag_41:\n      pop\n      tag_42\n      0x04\n      dup1\n      calldatasize\n      sub\n      dup2\n      add\n      swap1\n      tag_43\n      swap2\n      swap1\n      tag_44\n      jump\t// in\n    tag_43:\n      tag_45\n      jump\t// in\n    tag_42:\n      mload(0x40)\n      tag_46\n      swap4\n      swap3\n      swap2\n      swap1\n      tag_47\n      jump\t// in\n    tag_46:\n      mload(0x40)\n      dup1\n      swap2\n      sub\n      swap1\n      return\n        /* \"SicBo.sol\":3950:4152  function getBets() public view returns (Bet[][] memory) {... */\n    tag_9:\n      callvalue\n      dup1\n      iszero\n      tag_48\n      jumpi\n      0x00\n      dup1\n      revert\n    tag_48:\n      pop\n      tag_49\n      tag_50\n      jump\t// in\n    tag_49:\n      mload(0x40)\n      tag_51\n      swap2\n      swap1\n      tag_52\n      jump\t// in\n    tag_51:\n      mload(0x40)\n      dup1\n      swap2\n      sub\n      swap1\n      return\n        /* \"SicBo.sol\":3741:3829  function getDices() public view returns (uint[3] memory) {... */\n    tag_10:\n      callvalue\n      dup1\n      iszero\n      tag_53\n      jumpi\n      0x00\n      dup1\n      revert\n    tag_53:\n      pop\n      tag_54\n      tag_55\n      jump\t// in\n    tag_54:\n      mload(0x40)\n      tag_56\n      swap2\n      swap1\n      tag_57\n      jump\t// in\n    tag_56:\n      mload(0x40)\n      dup1\n      swap2\n      sub\n      swap1\n      return\n        /* \"SicBo.sol\":626:649  uint256 public totalBet */\n    tag_11:\n      callvalue\n      dup1\n      iszero\n      tag_58\n      jumpi\n      0x00\n      dup1\n      revert\n    tag_58:\n      pop\n      tag_59\n      tag_60\n      jump\t// in\n    tag_59:\n      mload(0x40)\n      tag_61\n      swap2\n      swap1\n      tag_20\n      jump\t// in\n    tag_61:\n      mload(0x40)\n      dup1\n      swap2\n      sub\n      swap1\n      return\n        /* \"SicBo.sol\":3073:3625  function settle() public {... */\n    tag_15:\n        /* \"SicBo.sol\":3118:3128  isFinished */\n      0x05\n      0x00\n      swap1\n      sload\n      swap1\n      0x0100\n      exp\n      swap1\n      div\n      0xff\n      and\n        /* \"SicBo.sol\":3117:3128  !isFinished */\n      iszero\n        /* \"SicBo.sol\":3109:3149  require(!isFinished, \"Game is finished\") */\n      tag_63\n      jumpi\n      mload(0x40)\n      0x08c379a000000000000000000000000000000000000000000000000000000000\n      dup2\n      mstore\n      0x04\n      add\n      tag_64\n      swap1\n      tag_65\n      jump\t// in\n    tag_64:\n      mload(0x40)\n      dup1\n      swap2\n      sub\n      swap1\n      revert\n    tag_63:\n        /* \"SicBo.sol\":3182:3187  owner */\n      0x00\n      dup1\n      sload\n      swap1\n      0x0100\n      exp\n      swap1\n      div\n      0xffffffffffffffffffffffffffffffffffffffff\n      and\n        /* \"SicBo.sol\":3168:3187  msg.sender == owner */\n      0xffffffffffffffffffffffffffffffffffffffff\n      and\n        /* \"SicBo.sol\":3168:3178  msg.sender */\n      caller\n        /* \"SicBo.sol\":3168:3187  msg.sender == owner */\n      0xffffffffffffffffffffffffffffffffffffffff\n      and\n      eq\n        /* \"SicBo.sol\":3160:3222  require(msg.sender == owner, \"Only owner can settle the game\") */\n      tag_66\n      jumpi\n      mload(0x40)\n      0x08c379a000000000000000000000000000000000000000000000000000000000\n      dup2\n      mstore\n      0x04\n      add\n      tag_67\n      swap1\n      tag_68\n      jump\t// in\n    tag_67:\n      mload(0x40)\n      dup1\n      swap2\n      sub\n      swap1\n      revert\n    tag_66:\n        /* \"SicBo.sol\":3233:3244  rollDices() */\n      tag_69\n        /* \"SicBo.sol\":3233:3242  rollDices */\n      tag_70\n        /* \"SicBo.sol\":3233:3244  rollDices() */\n      jump\t// in\n    tag_69:\n        /* \"SicBo.sol\":3260:3278  SettleEvent(dices) */\n      0x943860afe0a477977948578dcf8bc788b9c3e536aab1e87a63c1ae5fffc7836e\n        /* \"SicBo.sol\":3272:3277  dices */\n      0x01\n        /* \"SicBo.sol\":3260:3278  SettleEvent(dices) */\n      mload(0x40)\n      tag_71\n      swap2\n      swap1\n      tag_72\n      jump\t// in\n    tag_71:\n      mload(0x40)\n      dup1\n      swap2\n      sub\n      swap1\n      log1\n        /* \"SicBo.sol\":3289:3300  bool isOver */\n      0x00\n        /* \"SicBo.sol\":3338:3340  10 */\n      0x0a\n        /* \"SicBo.sol\":3326:3331  dices */\n      0x01\n        /* \"SicBo.sol\":3332:3333  2 */\n      0x02\n        /* \"SicBo.sol\":3326:3334  dices[2] */\n      0x03\n      dup2\n      lt\n      tag_73\n      jumpi\n      tag_74\n      tag_75\n      jump\t// in\n    tag_74:\n    tag_73:\n      add\n      sload\n        /* \"SicBo.sol\":3315:3320  dices */\n      0x01\n        /* \"SicBo.sol\":3321:3322  1 */\n      dup1\n        /* \"SicBo.sol\":3315:3323  dices[1] */\n      0x03\n      dup2\n      lt\n      tag_77\n      jumpi\n      tag_78\n      tag_75\n      jump\t// in\n    tag_78:\n    tag_77:\n      add\n      sload\n        /* \"SicBo.sol\":3304:3309  dices */\n      0x01\n        /* \"SicBo.sol\":3310:3311  0 */\n      0x00\n        /* \"SicBo.sol\":3304:3312  dices[0] */\n      0x03\n      dup2\n      lt\n      tag_80\n      jumpi\n      tag_81\n      tag_75\n      jump\t// in\n    tag_81:\n    tag_80:\n      add\n      sload\n        /* \"SicBo.sol\":3304:3323  dices[0] + dices[1] */\n      tag_83\n      swap2\n      swap1\n      tag_84\n      jump\t// in\n    tag_83:\n        /* \"SicBo.sol\":3304:3334  dices[0] + dices[1] + dices[2] */\n      tag_85\n      swap2\n      swap1\n      tag_84\n      jump\t// in\n    tag_85:\n        /* \"SicBo.sol\":3303:3340  (dices[0] + dices[1] + dices[2]) > 10 */\n      gt\n        /* \"SicBo.sol\":3289:3340  bool isOver = (dices[0] + dices[1] + dices[2]) > 10 */\n      swap1\n      pop\n        /* \"SicBo.sol\":3351:3368  Bet[] memory bets */\n      0x00\n        /* \"SicBo.sol\":3371:3378  betsMap */\n      0x06\n        /* \"SicBo.sol\":3371:3386  betsMap[isOver] */\n      0x00\n        /* \"SicBo.sol\":3379:3385  isOver */\n      dup4\n        /* \"SicBo.sol\":3371:3386  betsMap[isOver] */\n      iszero\n      iszero\n      iszero\n      iszero\n      dup2\n      mstore\n      0x20\n      add\n      swap1\n      dup2\n      mstore\n      0x20\n      add\n      0x00\n      keccak256\n        /* \"SicBo.sol\":3351:3386  Bet[] memory bets = betsMap[isOver] */\n      dup1\n      sload\n      dup1\n      0x20\n      mul\n      0x20\n      add\n      mload(0x40)\n      swap1\n      dup2\n      add\n      0x40\n      mstore\n      dup1\n      swap3\n      swap2\n      swap1\n      dup2\n      dup2\n      mstore\n      0x20\n      add\n      0x00\n      swap1\n    tag_86:\n      dup3\n      dup3\n      lt\n      iszero\n      tag_87\n      jumpi\n      dup4\n      dup3\n      swap1\n      0x00\n      mstore\n      keccak256(0x00, 0x20)\n      swap1\n      0x03\n      mul\n      add\n      mload(0x40)\n      dup1\n      0x60\n      add\n      0x40\n      mstore\n      swap1\n      dup2\n      0x00\n      dup3\n      add\n      0x00\n      swap1\n      sload\n      swap1\n      0x0100\n      exp\n      swap1\n      div\n      0xffffffffffffffffffffffffffffffffffffffff\n      and\n      0xffffffffffffffffffffffffffffffffffffffff\n      and\n      0xffffffffffffffffffffffffffffffffffffffff\n      and\n      dup2\n      mstore\n      0x20\n      add\n      0x01\n      dup3\n      add\n      sload\n      dup2\n      mstore\n      0x20\n      add\n      0x02\n      dup3\n      add\n      0x00\n      swap1\n      sload\n      swap1\n      0x0100\n      exp\n      swap1\n      div\n      0xff\n      and\n      iszero\n      iszero\n      iszero\n      iszero\n      dup2\n      mstore\n      pop\n      pop\n      dup2\n      mstore\n      0x20\n      add\n      swap1\n      0x01\n      add\n      swap1\n      jump(tag_86)\n    tag_87:\n      pop\n      pop\n      pop\n      pop\n      swap1\n      pop\n        /* \"SicBo.sol\":3402:3411  uint256 i */\n      0x00\n        /* \"SicBo.sol\":3397:3556  for (uint256 i = 0; i < bets.length; i++) {... */\n    tag_89:\n        /* \"SicBo.sol\":3421:3425  bets */\n      dup2\n        /* \"SicBo.sol\":3421:3432  bets.length */\n      mload\n        /* \"SicBo.sol\":3417:3418  i */\n      dup2\n        /* \"SicBo.sol\":3417:3432  i < bets.length */\n      lt\n        /* \"SicBo.sol\":3397:3556  for (uint256 i = 0; i < bets.length; i++) {... */\n      iszero\n      tag_90\n      jumpi\n        /* \"SicBo.sol\":3454:3468  uint256 amount */\n      0x00\n        /* \"SicBo.sol\":3488:3489  2 */\n      0x02\n        /* \"SicBo.sol\":3471:3475  bets */\n      dup4\n        /* \"SicBo.sol\":3476:3477  i */\n      dup4\n        /* \"SicBo.sol\":3471:3478  bets[i] */\n      dup2\n      mload\n      dup2\n      lt\n      tag_92\n      jumpi\n      tag_93\n      tag_75\n      jump\t// in\n    tag_93:\n    tag_92:\n      0x20\n      mul\n      0x20\n      add\n      add\n      mload\n        /* \"SicBo.sol\":3471:3485  bets[i].amount */\n      0x20\n      add\n      mload\n        /* \"SicBo.sol\":3471:3489  bets[i].amount * 2 */\n      tag_94\n      swap2\n      swap1\n      tag_95\n      jump\t// in\n    tag_94:\n        /* \"SicBo.sol\":3454:3489  uint256 amount = bets[i].amount * 2 */\n      swap1\n      pop\n        /* \"SicBo.sol\":3512:3516  bets */\n      dup3\n        /* \"SicBo.sol\":3517:3518  i */\n      dup3\n        /* \"SicBo.sol\":3512:3519  bets[i] */\n      dup2\n      mload\n      dup2\n      lt\n      tag_96\n      jumpi\n      tag_97\n      tag_75\n      jump\t// in\n    tag_97:\n    tag_96:\n      0x20\n      mul\n      0x20\n      add\n      add\n      mload\n        /* \"SicBo.sol\":3512:3526  bets[i].player */\n      0x00\n      add\n      mload\n        /* \"SicBo.sol\":3504:3536  payable(bets[i].player).transfer */\n      0xffffffffffffffffffffffffffffffffffffffff\n      and\n        /* \"SicBo.sol\":3504:3544  payable(bets[i].player).transfer(amount) */\n      0x08fc\n        /* \"SicBo.sol\":3537:3543  amount */\n      dup3\n        /* \"SicBo.sol\":3504:3544  payable(bets[i].player).transfer(amount) */\n      swap1\n      dup2\n      iszero\n      mul\n      swap1\n      mload(0x40)\n      0x00\n      mload(0x40)\n      dup1\n      dup4\n      sub\n      dup2\n      dup6\n      dup9\n      dup9\n      call\n      swap4\n      pop\n      pop\n      pop\n      pop\n      iszero\n      dup1\n      iszero\n      tag_99\n      jumpi\n      returndatasize\n      0x00\n      dup1\n      returndatacopy\n      revert(0x00, returndatasize)\n    tag_99:\n      pop\n        /* \"SicBo.sol\":3439:3556  {... */\n      pop\n        /* \"SicBo.sol\":3434:3437  i++ */\n      dup1\n      dup1\n      0x01\n      add\n      swap2\n      pop\n      pop\n        /* \"SicBo.sol\":3397:3556  for (uint256 i = 0; i < bets.length; i++) {... */\n      jump(tag_89)\n    tag_90:\n      pop\n        /* \"SicBo.sol\":3579:3583  true */\n      0x01\n        /* \"SicBo.sol\":3566:3576  isFinished */\n      0x05\n      0x00\n        /* \"SicBo.sol\":3566:3583  isFinished = true */\n      0x0100\n      exp\n      dup2\n      sload\n      dup2\n      0xff\n      mul\n      not\n      and\n      swap1\n      dup4\n      iszero\n      iszero\n      mul\n      or\n      swap1\n      sstore\n      pop\n        /* \"SicBo.sol\":3599:3617  SettleEvent(dices) */\n      0x943860afe0a477977948578dcf8bc788b9c3e536aab1e87a63c1ae5fffc7836e\n        /* \"SicBo.sol\":3611:3616  dices */\n      0x01\n        /* \"SicBo.sol\":3599:3617  SettleEvent(dices) */\n      mload(0x40)\n      tag_100\n      swap2\n      swap1\n      tag_72\n      jump\t// in\n    tag_100:\n      mload(0x40)\n      dup1\n      swap2\n      sub\n      swap1\n      log1\n        /* \"SicBo.sol\":3098:3625  {... */\n      pop\n      pop\n        /* \"SicBo.sol\":3073:3625  function settle() public {... */\n      jump\t// out\n        /* \"SicBo.sol\":4283:4382  function getBalance() public view returns (uint256) {... */\n    tag_18:\n        /* \"SicBo.sol\":4326:4333  uint256 */\n      0x00\n        /* \"SicBo.sol\":4353:4374  address(this).balance */\n      selfbalance\n        /* \"SicBo.sol\":4346:4374  return address(this).balance */\n      swap1\n      pop\n        /* \"SicBo.sol\":4283:4382  function getBalance() public view returns (uint256) {... */\n      swap1\n      jump\t// out\n        /* \"SicBo.sol\":2338:2972  function bet(bool isOver) public payable {... */\n    tag_24:\n        /* \"SicBo.sol\":2399:2409  isFinished */\n      0x05\n      0x00\n      swap1\n      sload\n      swap1\n      0x0100\n      exp\n      swap1\n      div\n      0xff\n      and\n        /* \"SicBo.sol\":2398:2409  !isFinished */\n      iszero\n        /* \"SicBo.sol\":2390:2430  require(!isFinished, \"Game is finished\") */\n      tag_103\n      jumpi\n      mload(0x40)\n      0x08c379a000000000000000000000000000000000000000000000000000000000\n      dup2\n      mstore\n      0x04\n      add\n      tag_104\n      swap1\n      tag_65\n      jump\t// in\n    tag_104:\n      mload(0x40)\n      dup1\n      swap2\n      sub\n      swap1\n      revert\n    tag_103:\n        /* \"SicBo.sol\":2461:2462  0 */\n      0x00\n        /* \"SicBo.sol\":2449:2458  msg.value */\n      callvalue\n        /* \"SicBo.sol\":2449:2462  msg.value > 0 */\n      gt\n        /* \"SicBo.sol\":2441:2500  require(msg.value > 0, \"Bet amount must be greater than 0\") */\n      tag_105\n      jumpi\n      mload(0x40)\n      0x08c379a000000000000000000000000000000000000000000000000000000000\n      dup2\n      mstore\n      0x04\n      add\n      tag_106\n      swap1\n      tag_107\n      jump\t// in\n    tag_106:\n      mload(0x40)\n      dup1\n      swap2\n      sub\n      swap1\n      revert\n    tag_105:\n        /* \"SicBo.sol\":2546:2559  0.00001 ether */\n      0x09184e72a000\n        /* \"SicBo.sol\":2533:2542  msg.value */\n      callvalue\n        /* \"SicBo.sol\":2533:2559  msg.value <= 0.00001 ether */\n      gt\n      iszero\n        /* \"SicBo.sol\":2511:2641  require(... */\n      tag_108\n      jumpi\n      mload(0x40)\n      0x08c379a000000000000000000000000000000000000000000000000000000000\n      dup2\n      mstore\n      0x04\n      add\n      tag_109\n      swap1\n      tag_110\n      jump\t// in\n    tag_109:\n      mload(0x40)\n      dup1\n      swap2\n      sub\n      swap1\n      revert\n    tag_108:\n        /* \"SicBo.sol\":2704:2725  address(this).balance */\n      selfbalance\n        /* \"SicBo.sol\":2699:2700  2 */\n      0x02\n        /* \"SicBo.sol\":2687:2695  totalBet */\n      sload(0x04)\n        /* \"SicBo.sol\":2675:2684  msg.value */\n      callvalue\n        /* \"SicBo.sol\":2675:2695  msg.value + totalBet */\n      tag_111\n      swap2\n      swap1\n      tag_84\n      jump\t// in\n    tag_111:\n        /* \"SicBo.sol\":2674:2700  (msg.value + totalBet) * 2 */\n      tag_112\n      swap2\n      swap1\n      tag_95\n      jump\t// in\n    tag_112:\n        /* \"SicBo.sol\":2674:2725  (msg.value + totalBet) * 2 <= address(this).balance */\n      gt\n      iszero\n        /* \"SicBo.sol\":2652:2773  require(... */\n      tag_113\n      jumpi\n      mload(0x40)\n      0x08c379a000000000000000000000000000000000000000000000000000000000\n      dup2\n      mstore\n      0x04\n      add\n      tag_114\n      swap1\n      tag_115\n      jump\t// in\n    tag_114:\n      mload(0x40)\n      dup1\n      swap2\n      sub\n      swap1\n      revert\n    tag_113:\n        /* \"SicBo.sol\":2784:2801  Bet memory newBet */\n      0x00\n        /* \"SicBo.sol\":2804:2838  Bet(msg.sender, msg.value, isOver) */\n      mload(0x40)\n      dup1\n      0x60\n      add\n      0x40\n      mstore\n      dup1\n        /* \"SicBo.sol\":2808:2818  msg.sender */\n      caller\n        /* \"SicBo.sol\":2804:2838  Bet(msg.sender, msg.value, isOver) */\n      0xffffffffffffffffffffffffffffffffffffffff\n      and\n      dup2\n      mstore\n      0x20\n      add\n        /* \"SicBo.sol\":2820:2829  msg.value */\n      callvalue\n        /* \"SicBo.sol\":2804:2838  Bet(msg.sender, msg.value, isOver) */\n      dup2\n      mstore\n      0x20\n      add\n        /* \"SicBo.sol\":2831:2837  isOver */\n      dup4\n        /* \"SicBo.sol\":2804:2838  Bet(msg.sender, msg.value, isOver) */\n      iszero\n      iszero\n      dup2\n      mstore\n      pop\n        /* \"SicBo.sol\":2784:2838  Bet memory newBet = Bet(msg.sender, msg.value, isOver) */\n      swap1\n      pop\n        /* \"SicBo.sol\":2849:2856  betsMap */\n      0x06\n        /* \"SicBo.sol\":2849:2864  betsMap[isOver] */\n      0x00\n        /* \"SicBo.sol\":2857:2863  isOver */\n      dup4\n        /* \"SicBo.sol\":2849:2864  betsMap[isOver] */\n      iszero\n      iszero\n      iszero\n      iszero\n      dup2\n      mstore\n      0x20\n      add\n      swap1\n      dup2\n      mstore\n      0x20\n      add\n      0x00\n      keccak256\n        /* \"SicBo.sol\":2870:2876  newBet */\n      dup2\n        /* \"SicBo.sol\":2849:2877  betsMap[isOver].push(newBet) */\n      swap1\n      dup1\n      0x01\n      dup2\n      sload\n      add\n      dup1\n      dup3\n      sstore\n      dup1\n      swap2\n      pop\n      pop\n      0x01\n      swap1\n      sub\n      swap1\n      0x00\n      mstore\n      keccak256(0x00, 0x20)\n      swap1\n      0x03\n      mul\n      add\n      0x00\n      swap1\n      swap2\n      swap1\n      swap2\n      swap1\n      swap2\n      pop\n      0x00\n      dup3\n      add\n      mload\n      dup2\n      0x00\n      add\n      exp(0x0100, 0x00)\n      dup2\n      sload\n      dup2\n      0xffffffffffffffffffffffffffffffffffffffff\n      mul\n      not\n      and\n      swap1\n      dup4\n      0xffffffffffffffffffffffffffffffffffffffff\n      and\n      mul\n      or\n      swap1\n      sstore\n      pop\n      0x20\n      dup3\n      add\n      mload\n      dup2\n      0x01\n      add\n      sstore\n      0x40\n      dup3\n      add\n      mload\n      dup2\n      0x02\n      add\n      exp(0x0100, 0x00)\n      dup2\n      sload\n      dup2\n      0xff\n      mul\n      not\n      and\n      swap1\n      dup4\n      iszero\n      iszero\n      mul\n      or\n      swap1\n      sstore\n      pop\n      pop\n      pop\n        /* \"SicBo.sol\":2900:2909  msg.value */\n      callvalue\n        /* \"SicBo.sol\":2888:2896  totalBet */\n      0x04\n      0x00\n        /* \"SicBo.sol\":2888:2909  totalBet += msg.value */\n      dup3\n      dup3\n      sload\n      tag_117\n      swap2\n      swap1\n      tag_84\n      jump\t// in\n    tag_117:\n      swap3\n      pop\n      pop\n      dup2\n      swap1\n      sstore\n      pop\n        /* \"SicBo.sol\":2934:2944  msg.sender */\n      caller\n        /* \"SicBo.sol\":2925:2964  BetEvent(msg.sender, msg.value, isOver) */\n      0xffffffffffffffffffffffffffffffffffffffff\n      and\n      0x477d915218fdc4a8bacd6aa7f5dc8a290db82eca8b772aa20218792c2288abbd\n        /* \"SicBo.sol\":2946:2955  msg.value */\n      callvalue\n        /* \"SicBo.sol\":2957:2963  isOver */\n      dup5\n        /* \"SicBo.sol\":2925:2964  BetEvent(msg.sender, msg.value, isOver) */\n      mload(0x40)\n      tag_118\n      swap3\n      swap2\n      swap1\n      tag_119\n      jump\t// in\n    tag_118:\n      mload(0x40)\n      dup1\n      swap2\n      sub\n      swap1\n      log2\n        /* \"SicBo.sol\":2379:2972  {... */\n      pop\n        /* \"SicBo.sol\":2338:2972  function bet(bool isOver) public payable {... */\n      pop\n      jump\t// out\n        /* \"SicBo.sol\":714:744  bool public isFinished = false */\n    tag_27:\n      0x05\n      0x00\n      swap1\n      sload\n      swap1\n      0x0100\n      exp\n      swap1\n      div\n      0xff\n      and\n      dup2\n      jump\t// out\n        /* \"SicBo.sol\":491:511  address public owner */\n    tag_32:\n      0x00\n      dup1\n      sload\n      swap1\n      0x0100\n      exp\n      swap1\n      div\n      0xffffffffffffffffffffffffffffffffffffffff\n      and\n      dup2\n      jump\t// out\n        /* \"SicBo.sol\":549:569  uint[3] public dices */\n    tag_39:\n      0x01\n      dup2\n      0x03\n      dup2\n      lt\n      tag_120\n      jumpi\n      0x00\n      dup1\n      revert\n    tag_120:\n      add\n      0x00\n      swap2\n      pop\n      swap1\n      pop\n      sload\n      dup2\n      jump\t// out\n        /* \"SicBo.sol\":1007:1044  mapping(bool => Bet[]) public betsMap */\n    tag_45:\n      mstore(0x20, 0x06)\n      dup2\n      0x00\n      mstore\n      keccak256(0x00, 0x40)\n      dup2\n      dup2\n      sload\n      dup2\n      lt\n      tag_122\n      jumpi\n      0x00\n      dup1\n      revert\n    tag_122:\n      swap1\n      0x00\n      mstore\n      keccak256(0x00, 0x20)\n      swap1\n      0x03\n      mul\n      add\n      0x00\n      swap2\n      pop\n      swap2\n      pop\n      pop\n      dup1\n      0x00\n      add\n      0x00\n      swap1\n      sload\n      swap1\n      0x0100\n      exp\n      swap1\n      div\n      0xffffffffffffffffffffffffffffffffffffffff\n      and\n      swap1\n      dup1\n      0x01\n      add\n      sload\n      swap1\n      dup1\n      0x02\n      add\n      0x00\n      swap1\n      sload\n      swap1\n      0x0100\n      exp\n      swap1\n      div\n      0xff\n      and\n      swap1\n      pop\n      dup4\n      jump\t// out\n        /* \"SicBo.sol\":3950:4152  function getBets() public view returns (Bet[][] memory) {... */\n    tag_50:\n        /* \"SicBo.sol\":3990:4004  Bet[][] memory */\n      0x60\n        /* \"SicBo.sol\":4017:4036  Bet[][] memory bets */\n      0x00\n        /* \"SicBo.sol\":4051:4052  2 */\n      0x02\n        /* \"SicBo.sol\":4039:4053  new Bet[][](2) */\n      0xffffffffffffffff\n      dup2\n      gt\n      iszero\n      tag_125\n      jumpi\n      tag_126\n      tag_127\n      jump\t// in\n    tag_126:\n    tag_125:\n      mload(0x40)\n      swap1\n      dup1\n      dup3\n      mstore\n      dup1\n      0x20\n      mul\n      0x20\n      add\n      dup3\n      add\n      0x40\n      mstore\n      dup1\n      iszero\n      tag_128\n      jumpi\n      dup2\n      0x20\n      add\n    tag_129:\n      0x60\n      dup2\n      mstore\n      0x20\n      add\n      swap1\n      0x01\n      swap1\n      sub\n      swap1\n      dup2\n      tag_129\n      jumpi\n      swap1\n      pop\n    tag_128:\n      pop\n        /* \"SicBo.sol\":4017:4053  Bet[][] memory bets = new Bet[][](2) */\n      swap1\n      pop\n        /* \"SicBo.sol\":4074:4081  betsMap */\n      0x06\n        /* \"SicBo.sol\":4074:4088  betsMap[false] */\n      0x00\n        /* \"SicBo.sol\":4082:4087  false */\n      dup1\n        /* \"SicBo.sol\":4074:4088  betsMap[false] */\n      iszero\n      iszero\n      iszero\n      iszero\n      dup2\n      mstore\n      0x20\n      add\n      swap1\n      dup2\n      mstore\n      0x20\n      add\n      0x00\n      keccak256\n        /* \"SicBo.sol\":4064:4088  bets[0] = betsMap[false] */\n      dup1\n      sload\n      dup1\n      0x20\n      mul\n      0x20\n      add\n      mload(0x40)\n      swap1\n      dup2\n      add\n      0x40\n      mstore\n      dup1\n      swap3\n      swap2\n      swap1\n      dup2\n      dup2\n      mstore\n      0x20\n      add\n      0x00\n      swap1\n    tag_130:\n      dup3\n      dup3\n      lt\n      iszero\n      tag_131\n      jumpi\n      dup4\n      dup3\n      swap1\n      0x00\n      mstore\n      keccak256(0x00, 0x20)\n      swap1\n      0x03\n      mul\n      add\n      mload(0x40)\n      dup1\n      0x60\n      add\n      0x40\n      mstore\n      swap1\n      dup2\n      0x00\n      dup3\n      add\n      0x00\n      swap1\n      sload\n      swap1\n      0x0100\n      exp\n      swap1\n      div\n      0xffffffffffffffffffffffffffffffffffffffff\n      and\n      0xffffffffffffffffffffffffffffffffffffffff\n      and\n      0xffffffffffffffffffffffffffffffffffffffff\n      and\n      dup2\n      mstore\n      0x20\n      add\n      0x01\n      dup3\n      add\n      sload\n      dup2\n      mstore\n      0x20\n      add\n      0x02\n      dup3\n      add\n      0x00\n      swap1\n      sload\n      swap1\n      0x0100\n      exp\n      swap1\n      div\n      0xff\n      and\n      iszero\n      iszero\n      iszero\n      iszero\n      dup2\n      mstore\n      pop\n      pop\n      dup2\n      mstore\n      0x20\n      add\n      swap1\n      0x01\n      add\n      swap1\n      jump(tag_130)\n    tag_131:\n      pop\n      pop\n      pop\n      pop\n        /* \"SicBo.sol\":4064:4068  bets */\n      dup2\n        /* \"SicBo.sol\":4069:4070  0 */\n      0x00\n        /* \"SicBo.sol\":4064:4071  bets[0] */\n      dup2\n      mload\n      dup2\n      lt\n      tag_133\n      jumpi\n      tag_134\n      tag_75\n      jump\t// in\n    tag_134:\n    tag_133:\n      0x20\n      mul\n      0x20\n      add\n      add\n        /* \"SicBo.sol\":4064:4088  bets[0] = betsMap[false] */\n      dup2\n      swap1\n      mstore\n      pop\n        /* \"SicBo.sol\":4109:4116  betsMap */\n      0x06\n        /* \"SicBo.sol\":4109:4122  betsMap[true] */\n      0x00\n        /* \"SicBo.sol\":4117:4121  true */\n      0x01\n        /* \"SicBo.sol\":4109:4122  betsMap[true] */\n      iszero\n      iszero\n      iszero\n      iszero\n      dup2\n      mstore\n      0x20\n      add\n      swap1\n      dup2\n      mstore\n      0x20\n      add\n      0x00\n      keccak256\n        /* \"SicBo.sol\":4099:4122  bets[1] = betsMap[true] */\n      dup1\n      sload\n      dup1\n      0x20\n      mul\n      0x20\n      add\n      mload(0x40)\n      swap1\n      dup2\n      add\n      0x40\n      mstore\n      dup1\n      swap3\n      swap2\n      swap1\n      dup2\n      dup2\n      mstore\n      0x20\n      add\n      0x00\n      swap1\n    tag_135:\n      dup3\n      dup3\n      lt\n      iszero\n      tag_136\n      jumpi\n      dup4\n      dup3\n      swap1\n      0x00\n      mstore\n      keccak256(0x00, 0x20)\n      swap1\n      0x03\n      mul\n      add\n      mload(0x40)\n      dup1\n      0x60\n      add\n      0x40\n      mstore\n      swap1\n      dup2\n      0x00\n      dup3\n      add\n      0x00\n      swap1\n      sload\n      swap1\n      0x0100\n      exp\n      swap1\n      div\n      0xffffffffffffffffffffffffffffffffffffffff\n      and\n      0xffffffffffffffffffffffffffffffffffffffff\n      and\n      0xffffffffffffffffffffffffffffffffffffffff\n      and\n      dup2\n      mstore\n      0x20\n      add\n      0x01\n      dup3\n      add\n      sload\n      dup2\n      mstore\n      0x20\n      add\n      0x02\n      dup3\n      add\n      0x00\n      swap1\n      sload\n      swap1\n      0x0100\n      exp\n      swap1\n      div\n      0xff\n      and\n      iszero\n      iszero\n      iszero\n      iszero\n      dup2\n      mstore\n      pop\n      pop\n      dup2\n      mstore\n      0x20\n      add\n      swap1\n      0x01\n      add\n      swap1\n      jump(tag_135)\n    tag_136:\n      pop\n      pop\n      pop\n      pop\n        /* \"SicBo.sol\":4099:4103  bets */\n      dup2\n        /* \"SicBo.sol\":4104:4105  1 */\n      0x01\n        /* \"SicBo.sol\":4099:4106  bets[1] */\n      dup2\n      mload\n      dup2\n      lt\n      tag_138\n      jumpi\n      tag_139\n      tag_75\n      jump\t// in\n    tag_139:\n    tag_138:\n      0x20\n      mul\n      0x20\n      add\n      add\n        /* \"SicBo.sol\":4099:4122  bets[1] = betsMap[true] */\n      dup2\n      swap1\n      mstore\n      pop\n        /* \"SicBo.sol\":4140:4144  bets */\n      dup1\n        /* \"SicBo.sol\":4133:4144  return bets */\n      swap2\n      pop\n      pop\n        /* \"SicBo.sol\":3950:4152  function getBets() public view returns (Bet[][] memory) {... */\n      swap1\n      jump\t// out\n        /* \"SicBo.sol\":3741:3829  function getDices() public view returns (uint[3] memory) {... */\n    tag_55:\n        /* \"SicBo.sol\":3782:3796  uint[3] memory */\n      tag_140\n      tag_141\n      jump\t// in\n    tag_140:\n        /* \"SicBo.sol\":3816:3821  dices */\n      0x01\n        /* \"SicBo.sol\":3809:3821  return dices */\n      0x03\n      dup1\n      0x20\n      mul\n      mload(0x40)\n      swap1\n      dup2\n      add\n      0x40\n      mstore\n      dup1\n      swap3\n      swap2\n      swap1\n      dup3\n      0x03\n      dup1\n      iszero\n      tag_143\n      jumpi\n      0x20\n      mul\n      dup3\n      add\n      swap2\n    tag_144:\n      dup2\n      sload\n      dup2\n      mstore\n      0x20\n      add\n      swap1\n      0x01\n      add\n      swap1\n      dup1\n      dup4\n      gt\n      tag_144\n      jumpi\n    tag_143:\n      pop\n      pop\n      pop\n      pop\n      pop\n      swap1\n      pop\n        /* \"SicBo.sol\":3741:3829  function getDices() public view returns (uint[3] memory) {... */\n      swap1\n      jump\t// out\n        /* \"SicBo.sol\":626:649  uint256 public totalBet */\n    tag_60:\n      sload(0x04)\n      dup2\n      jump\t// out\n        /* \"SicBo.sol\":1824:2158  function rollDices() private {... */\n    tag_70:\n        /* \"SicBo.sol\":1951:1952  1 */\n      0x01\n        /* \"SicBo.sol\":1946:1947  6 */\n      0x06\n        /* \"SicBo.sol\":1907:1922  block.timestamp */\n      timestamp\n        /* \"SicBo.sol\":1924:1940  block.prevrandao */\n      prevrandao\n        /* \"SicBo.sol\":1890:1941  abi.encodePacked(block.timestamp, block.prevrandao) */\n      add(0x20, mload(0x40))\n      tag_146\n      swap3\n      swap2\n      swap1\n      tag_147\n      jump\t// in\n    tag_146:\n      mload(0x40)\n      0x20\n      dup2\n      dup4\n      sub\n      sub\n      dup2\n      mstore\n      swap1\n      0x40\n      mstore\n        /* \"SicBo.sol\":1880:1942  keccak256(abi.encodePacked(block.timestamp, block.prevrandao)) */\n      dup1\n      mload\n      swap1\n      0x20\n      add\n      keccak256\n        /* \"SicBo.sol\":1875:1943  uint(keccak256(abi.encodePacked(block.timestamp, block.prevrandao))) */\n      0x00\n      shr\n        /* \"SicBo.sol\":1875:1947  uint(keccak256(abi.encodePacked(block.timestamp, block.prevrandao))) % 6 */\n      tag_148\n      swap2\n      swap1\n      tag_149\n      jump\t// in\n    tag_148:\n        /* \"SicBo.sol\":1874:1952  (uint(keccak256(abi.encodePacked(block.timestamp, block.prevrandao))) % 6) + 1 */\n      tag_150\n      swap2\n      swap1\n      tag_84\n      jump\t// in\n    tag_150:\n        /* \"SicBo.sol\":1864:1869  dices */\n      0x01\n        /* \"SicBo.sol\":1870:1871  0 */\n      0x00\n        /* \"SicBo.sol\":1864:1872  dices[0] */\n      0x03\n      dup2\n      lt\n      tag_151\n      jumpi\n      tag_152\n      tag_75\n      jump\t// in\n    tag_152:\n    tag_151:\n      add\n        /* \"SicBo.sol\":1864:1952  dices[0] =(uint(keccak256(abi.encodePacked(block.timestamp, block.prevrandao))) % 6) + 1 */\n      dup2\n      swap1\n      sstore\n      pop\n        /* \"SicBo.sol\":2050:2051  1 */\n      0x01\n        /* \"SicBo.sol\":2045:2046  6 */\n      0x06\n        /* \"SicBo.sol\":2006:2021  block.timestamp */\n      timestamp\n        /* \"SicBo.sol\":2023:2039  block.prevrandao */\n      prevrandao\n        /* \"SicBo.sol\":1989:2040  abi.encodePacked(block.timestamp, block.prevrandao) */\n      add(0x20, mload(0x40))\n      tag_154\n      swap3\n      swap2\n      swap1\n      tag_147\n      jump\t// in\n    tag_154:\n      mload(0x40)\n      0x20\n      dup2\n      dup4\n      sub\n      sub\n      dup2\n      mstore\n      swap1\n      0x40\n      mstore\n        /* \"SicBo.sol\":1979:2041  keccak256(abi.encodePacked(block.timestamp, block.prevrandao)) */\n      dup1\n      mload\n      swap1\n      0x20\n      add\n      keccak256\n        /* \"SicBo.sol\":1974:2042  uint(keccak256(abi.encodePacked(block.timestamp, block.prevrandao))) */\n      0x00\n      shr\n        /* \"SicBo.sol\":1974:2046  uint(keccak256(abi.encodePacked(block.timestamp, block.prevrandao))) % 6 */\n      tag_155\n      swap2\n      swap1\n      tag_149\n      jump\t// in\n    tag_155:\n        /* \"SicBo.sol\":1973:2051  (uint(keccak256(abi.encodePacked(block.timestamp, block.prevrandao))) % 6) + 1 */\n      tag_156\n      swap2\n      swap1\n      tag_84\n      jump\t// in\n    tag_156:\n        /* \"SicBo.sol\":1963:1968  dices */\n      0x01\n        /* \"SicBo.sol\":1969:1970  1 */\n      dup1\n        /* \"SicBo.sol\":1963:1971  dices[1] */\n      0x03\n      dup2\n      lt\n      tag_157\n      jumpi\n      tag_158\n      tag_75\n      jump\t// in\n    tag_158:\n    tag_157:\n      add\n        /* \"SicBo.sol\":1963:2051  dices[1] =(uint(keccak256(abi.encodePacked(block.timestamp, block.prevrandao))) % 6) + 1 */\n      dup2\n      swap1\n      sstore\n      pop\n        /* \"SicBo.sol\":2149:2150  1 */\n      0x01\n        /* \"SicBo.sol\":2144:2145  6 */\n      0x06\n        /* \"SicBo.sol\":2105:2120  block.timestamp */\n      timestamp\n        /* \"SicBo.sol\":2122:2138  block.prevrandao */\n      prevrandao\n        /* \"SicBo.sol\":2088:2139  abi.encodePacked(block.timestamp, block.prevrandao) */\n      add(0x20, mload(0x40))\n      tag_160\n      swap3\n      swap2\n      swap1\n      tag_147\n      jump\t// in\n    tag_160:\n      mload(0x40)\n      0x20\n      dup2\n      dup4\n      sub\n      sub\n      dup2\n      mstore\n      swap1\n      0x40\n      mstore\n        /* \"SicBo.sol\":2078:2140  keccak256(abi.encodePacked(block.timestamp, block.prevrandao)) */\n      dup1\n      mload\n      swap1\n      0x20\n      add\n      keccak256\n        /* \"SicBo.sol\":2073:2141  uint(keccak256(abi.encodePacked(block.timestamp, block.prevrandao))) */\n      0x00\n      shr\n        /* \"SicBo.sol\":2073:2145  uint(keccak256(abi.encodePacked(block.timestamp, block.prevrandao))) % 6 */\n      tag_161\n      swap2\n      swap1\n      tag_149\n      jump\t// in\n    tag_161:\n        /* \"SicBo.sol\":2072:2150  (uint(keccak256(abi.encodePacked(block.timestamp, block.prevrandao))) % 6) + 1 */\n      tag_162\n      swap2\n      swap1\n      tag_84\n      jump\t// in\n    tag_162:\n        /* \"SicBo.sol\":2062:2067  dices */\n      0x01\n        /* \"SicBo.sol\":2068:2069  2 */\n      0x02\n        /* \"SicBo.sol\":2062:2070  dices[2] */\n      0x03\n      dup2\n      lt\n      tag_163\n      jumpi\n      tag_164\n      tag_75\n      jump\t// in\n    tag_164:\n    tag_163:\n      add\n        /* \"SicBo.sol\":2062:2150  dices[2] =(uint(keccak256(abi.encodePacked(block.timestamp, block.prevrandao))) % 6) + 1 */\n      dup2\n      swap1\n      sstore\n      pop\n        /* \"SicBo.sol\":1824:2158  function rollDices() private {... */\n      jump\t// out\n    tag_141:\n      mload(0x40)\n      dup1\n      0x60\n      add\n      0x40\n      mstore\n      dup1\n      0x03\n      swap1\n      0x20\n      dup3\n      mul\n      dup1\n      calldatasize\n      dup4\n      calldatacopy\n      dup1\n      dup3\n      add\n      swap2\n      pop\n      pop\n      swap1\n      pop\n      pop\n      swap1\n      jump\t// out\n        /* \"#utility.yul\":7:84   */\n    tag_166:\n        /* \"#utility.yul\":44:51   */\n      0x00\n        /* \"#utility.yul\":73:78   */\n      dup2\n        /* \"#utility.yul\":62:78   */\n      swap1\n      pop\n        /* \"#utility.yul\":7:84   */\n      swap2\n      swap1\n      pop\n      jump\t// out\n        /* \"#utility.yul\":90:208   */\n    tag_167:\n        /* \"#utility.yul\":177:201   */\n      tag_228\n        /* \"#utility.yul\":195:200   */\n      dup2\n        /* \"#utility.yul\":177:201   */\n      tag_166\n      jump\t// in\n    tag_228:\n        /* \"#utility.yul\":172:175   */\n      dup3\n        /* \"#utility.yul\":165:202   */\n      mstore\n        /* \"#utility.yul\":90:208   */\n      pop\n      pop\n      jump\t// out\n        /* \"#utility.yul\":214:436   */\n    tag_20:\n        /* \"#utility.yul\":307:311   */\n      0x00\n        /* \"#utility.yul\":345:347   */\n      0x20\n        /* \"#utility.yul\":334:343   */\n      dup3\n        /* \"#utility.yul\":330:348   */\n      add\n        /* \"#utility.yul\":322:348   */\n      swap1\n      pop\n        /* \"#utility.yul\":358:429   */\n      tag_230\n        /* \"#utility.yul\":426:427   */\n      0x00\n        /* \"#utility.yul\":415:424   */\n      dup4\n        /* \"#utility.yul\":411:428   */\n      add\n        /* \"#utility.yul\":402:408   */\n      dup5\n        /* \"#utility.yul\":358:429   */\n      tag_167\n      jump\t// in\n    tag_230:\n        /* \"#utility.yul\":214:436   */\n      swap3\n      swap2\n      pop\n      pop\n      jump\t// out\n        /* \"#utility.yul\":523:640   */\n    tag_169:\n        /* \"#utility.yul\":632:633   */\n      0x00\n        /* \"#utility.yul\":629:630   */\n      dup1\n        /* \"#utility.yul\":622:634   */\n      revert\n        /* \"#utility.yul\":769:859   */\n    tag_171:\n        /* \"#utility.yul\":803:810   */\n      0x00\n        /* \"#utility.yul\":846:851   */\n      dup2\n        /* \"#utility.yul\":839:852   */\n      iszero\n        /* \"#utility.yul\":832:853   */\n      iszero\n        /* \"#utility.yul\":821:853   */\n      swap1\n      pop\n        /* \"#utility.yul\":769:859   */\n      swap2\n      swap1\n      pop\n      jump\t// out\n        /* \"#utility.yul\":865:981   */\n    tag_172:\n        /* \"#utility.yul\":935:956   */\n      tag_236\n        /* \"#utility.yul\":950:955   */\n      dup2\n        /* \"#utility.yul\":935:956   */\n      tag_171\n      jump\t// in\n    tag_236:\n        /* \"#utility.yul\":928:933   */\n      dup2\n        /* \"#utility.yul\":925:957   */\n      eq\n        /* \"#utility.yul\":915:975   */\n      tag_237\n      jumpi\n        /* \"#utility.yul\":971:972   */\n      0x00\n        /* \"#utility.yul\":968:969   */\n      dup1\n        /* \"#utility.yul\":961:973   */\n      revert\n        /* \"#utility.yul\":915:975   */\n    tag_237:\n        /* \"#utility.yul\":865:981   */\n      pop\n      jump\t// out\n        /* \"#utility.yul\":987:1120   */\n    tag_173:\n        /* \"#utility.yul\":1030:1035   */\n      0x00\n        /* \"#utility.yul\":1068:1074   */\n      dup2\n        /* \"#utility.yul\":1055:1075   */\n      calldataload\n        /* \"#utility.yul\":1046:1075   */\n      swap1\n      pop\n        /* \"#utility.yul\":1084:1114   */\n      tag_239\n        /* \"#utility.yul\":1108:1113   */\n      dup2\n        /* \"#utility.yul\":1084:1114   */\n      tag_172\n      jump\t// in\n    tag_239:\n        /* \"#utility.yul\":987:1120   */\n      swap3\n      swap2\n      pop\n      pop\n      jump\t// out\n        /* \"#utility.yul\":1126:1449   */\n    tag_23:\n        /* \"#utility.yul\":1182:1188   */\n      0x00\n        /* \"#utility.yul\":1231:1233   */\n      0x20\n        /* \"#utility.yul\":1219:1228   */\n      dup3\n        /* \"#utility.yul\":1210:1217   */\n      dup5\n        /* \"#utility.yul\":1206:1229   */\n      sub\n        /* \"#utility.yul\":1202:1234   */\n      slt\n        /* \"#utility.yul\":1199:1318   */\n      iszero\n      tag_241\n      jumpi\n        /* \"#utility.yul\":1237:1316   */\n      tag_242\n      tag_169\n      jump\t// in\n    tag_242:\n        /* \"#utility.yul\":1199:1318   */\n    tag_241:\n        /* \"#utility.yul\":1357:1358   */\n      0x00\n        /* \"#utility.yul\":1382:1432   */\n      tag_243\n        /* \"#utility.yul\":1424:1431   */\n      dup5\n        /* \"#utility.yul\":1415:1421   */\n      dup3\n        /* \"#utility.yul\":1404:1413   */\n      dup6\n        /* \"#utility.yul\":1400:1422   */\n      add\n        /* \"#utility.yul\":1382:1432   */\n      tag_173\n      jump\t// in\n    tag_243:\n        /* \"#utility.yul\":1372:1432   */\n      swap2\n      pop\n        /* \"#utility.yul\":1328:1442   */\n      pop\n        /* \"#utility.yul\":1126:1449   */\n      swap3\n      swap2\n      pop\n      pop\n      jump\t// out\n        /* \"#utility.yul\":1455:1564   */\n    tag_174:\n        /* \"#utility.yul\":1536:1557   */\n      tag_245\n        /* \"#utility.yul\":1551:1556   */\n      dup2\n        /* \"#utility.yul\":1536:1557   */\n      tag_171\n      jump\t// in\n    tag_245:\n        /* \"#utility.yul\":1531:1534   */\n      dup3\n        /* \"#utility.yul\":1524:1558   */\n      mstore\n        /* \"#utility.yul\":1455:1564   */\n      pop\n      pop\n      jump\t// out\n        /* \"#utility.yul\":1570:1780   */\n    tag_29:\n        /* \"#utility.yul\":1657:1661   */\n      0x00\n        /* \"#utility.yul\":1695:1697   */\n      0x20\n        /* \"#utility.yul\":1684:1693   */\n      dup3\n        /* \"#utility.yul\":1680:1698   */\n      add\n        /* \"#utility.yul\":1672:1698   */\n      swap1\n      pop\n        /* \"#utility.yul\":1708:1773   */\n      tag_247\n        /* \"#utility.yul\":1770:1771   */\n      0x00\n        /* \"#utility.yul\":1759:1768   */\n      dup4\n        /* \"#utility.yul\":1755:1772   */\n      add\n        /* \"#utility.yul\":1746:1752   */\n      dup5\n        /* \"#utility.yul\":1708:1773   */\n      tag_174\n      jump\t// in\n    tag_247:\n        /* \"#utility.yul\":1570:1780   */\n      swap3\n      swap2\n      pop\n      pop\n      jump\t// out\n        /* \"#utility.yul\":1786:1912   */\n    tag_175:\n        /* \"#utility.yul\":1823:1830   */\n      0x00\n        /* \"#utility.yul\":1863:1905   */\n      0xffffffffffffffffffffffffffffffffffffffff\n        /* \"#utility.yul\":1856:1861   */\n      dup3\n        /* \"#utility.yul\":1852:1906   */\n      and\n        /* \"#utility.yul\":1841:1906   */\n      swap1\n      pop\n        /* \"#utility.yul\":1786:1912   */\n      swap2\n      swap1\n      pop\n      jump\t// out\n        /* \"#utility.yul\":1918:2014   */\n    tag_176:\n        /* \"#utility.yul\":1955:1962   */\n      0x00\n        /* \"#utility.yul\":1984:2008   */\n      tag_250\n        /* \"#utility.yul\":2002:2007   */\n      dup3\n        /* \"#utility.yul\":1984:2008   */\n      tag_175\n      jump\t// in\n    tag_250:\n        /* \"#utility.yul\":1973:2008   */\n      swap1\n      pop\n        /* \"#utility.yul\":1918:2014   */\n      swap2\n      swap1\n      pop\n      jump\t// out\n        /* \"#utility.yul\":2020:2138   */\n    tag_177:\n        /* \"#utility.yul\":2107:2131   */\n      tag_252\n        /* \"#utility.yul\":2125:2130   */\n      dup2\n        /* \"#utility.yul\":2107:2131   */\n      tag_176\n      jump\t// in\n    tag_252:\n        /* \"#utility.yul\":2102:2105   */\n      dup3\n        /* \"#utility.yul\":2095:2132   */\n      mstore\n        /* \"#utility.yul\":2020:2138   */\n      pop\n      pop\n      jump\t// out\n        /* \"#utility.yul\":2144:2366   */\n    tag_34:\n        /* \"#utility.yul\":2237:2241   */\n      0x00\n        /* \"#utility.yul\":2275:2277   */\n      0x20\n        /* \"#utility.yul\":2264:2273   */\n      dup3\n        /* \"#utility.yul\":2260:2278   */\n      add\n        /* \"#utility.yul\":2252:2278   */\n      swap1\n      pop\n        /* \"#utility.yul\":2288:2359   */\n      tag_254\n        /* \"#utility.yul\":2356:2357   */\n      0x00\n        /* \"#utility.yul\":2345:2354   */\n      dup4\n        /* \"#utility.yul\":2341:2358   */\n      add\n        /* \"#utility.yul\":2332:2338   */\n      dup5\n        /* \"#utility.yul\":2288:2359   */\n      tag_177\n      jump\t// in\n    tag_254:\n        /* \"#utility.yul\":2144:2366   */\n      swap3\n      swap2\n      pop\n      pop\n      jump\t// out\n        /* \"#utility.yul\":2372:2494   */\n    tag_178:\n        /* \"#utility.yul\":2445:2469   */\n      tag_256\n        /* \"#utility.yul\":2463:2468   */\n      dup2\n        /* \"#utility.yul\":2445:2469   */\n      tag_166\n      jump\t// in\n    tag_256:\n        /* \"#utility.yul\":2438:2443   */\n      dup2\n        /* \"#utility.yul\":2435:2470   */\n      eq\n        /* \"#utility.yul\":2425:2488   */\n      tag_257\n      jumpi\n        /* \"#utility.yul\":2484:2485   */\n      0x00\n        /* \"#utility.yul\":2481:2482   */\n      dup1\n        /* \"#utility.yul\":2474:2486   */\n      revert\n        /* \"#utility.yul\":2425:2488   */\n    tag_257:\n        /* \"#utility.yul\":2372:2494   */\n      pop\n      jump\t// out\n        /* \"#utility.yul\":2500:2639   */\n    tag_179:\n        /* \"#utility.yul\":2546:2551   */\n      0x00\n        /* \"#utility.yul\":2584:2590   */\n      dup2\n        /* \"#utility.yul\":2571:2591   */\n      calldataload\n        /* \"#utility.yul\":2562:2591   */\n      swap1\n      pop\n        /* \"#utility.yul\":2600:2633   */\n      tag_259\n        /* \"#utility.yul\":2627:2632   */\n      dup2\n        /* \"#utility.yul\":2600:2633   */\n      tag_178\n      jump\t// in\n    tag_259:\n        /* \"#utility.yul\":2500:2639   */\n      swap3\n      swap2\n      pop\n      pop\n      jump\t// out\n        /* \"#utility.yul\":2645:2974   */\n    tag_38:\n        /* \"#utility.yul\":2704:2710   */\n      0x00\n        /* \"#utility.yul\":2753:2755   */\n      0x20\n        /* \"#utility.yul\":2741:2750   */\n      dup3\n        /* \"#utility.yul\":2732:2739   */\n      dup5\n        /* \"#utility.yul\":2728:2751   */\n      sub\n        /* \"#utility.yul\":2724:2756   */\n      slt\n        /* \"#utility.yul\":2721:2840   */\n      iszero\n      tag_261\n      jumpi\n        /* \"#utility.yul\":2759:2838   */\n      tag_262\n      tag_169\n      jump\t// in\n    tag_262:\n        /* \"#utility.yul\":2721:2840   */\n    tag_261:\n        /* \"#utility.yul\":2879:2880   */\n      0x00\n        /* \"#utility.yul\":2904:2957   */\n      tag_263\n        /* \"#utility.yul\":2949:2956   */\n      dup5\n        /* \"#utility.yul\":2940:2946   */\n      dup3\n        /* \"#utility.yul\":2929:2938   */\n      dup6\n        /* \"#utility.yul\":2925:2947   */\n      add\n        /* \"#utility.yul\":2904:2957   */\n      tag_179\n      jump\t// in\n    tag_263:\n        /* \"#utility.yul\":2894:2957   */\n      swap2\n      pop\n        /* \"#utility.yul\":2850:2967   */\n      pop\n        /* \"#utility.yul\":2645:2974   */\n      swap3\n      swap2\n      pop\n      pop\n      jump\t// out\n        /* \"#utility.yul\":2980:3448   */\n    tag_44:\n        /* \"#utility.yul\":3045:3051   */\n      0x00\n        /* \"#utility.yul\":3053:3059   */\n      dup1\n        /* \"#utility.yul\":3102:3104   */\n      0x40\n        /* \"#utility.yul\":3090:3099   */\n      dup4\n        /* \"#utility.yul\":3081:3088   */\n      dup6\n        /* \"#utility.yul\":3077:3100   */\n      sub\n        /* \"#utility.yul\":3073:3105   */\n      slt\n        /* \"#utility.yul\":3070:3189   */\n      iszero\n      tag_265\n      jumpi\n        /* \"#utility.yul\":3108:3187   */\n      tag_266\n      tag_169\n      jump\t// in\n    tag_266:\n        /* \"#utility.yul\":3070:3189   */\n    tag_265:\n        /* \"#utility.yul\":3228:3229   */\n      0x00\n        /* \"#utility.yul\":3253:3303   */\n      tag_267\n        /* \"#utility.yul\":3295:3302   */\n      dup6\n        /* \"#utility.yul\":3286:3292   */\n      dup3\n        /* \"#utility.yul\":3275:3284   */\n      dup7\n        /* \"#utility.yul\":3271:3293   */\n      add\n        /* \"#utility.yul\":3253:3303   */\n      tag_173\n      jump\t// in\n    tag_267:\n        /* \"#utility.yul\":3243:3303   */\n      swap3\n      pop\n        /* \"#utility.yul\":3199:3313   */\n      pop\n        /* \"#utility.yul\":3352:3354   */\n      0x20\n        /* \"#utility.yul\":3378:3431   */\n      tag_268\n        /* \"#utility.yul\":3423:3430   */\n      dup6\n        /* \"#utility.yul\":3414:3420   */\n      dup3\n        /* \"#utility.yul\":3403:3412   */\n      dup7\n        /* \"#utility.yul\":3399:3421   */\n      add\n        /* \"#utility.yul\":3378:3431   */\n      tag_179\n      jump\t// in\n    tag_268:\n        /* \"#utility.yul\":3368:3431   */\n      swap2\n      pop\n        /* \"#utility.yul\":3323:3441   */\n      pop\n        /* \"#utility.yul\":2980:3448   */\n      swap3\n      pop\n      swap3\n      swap1\n      pop\n      jump\t// out\n        /* \"#utility.yul\":3454:3884   */\n    tag_47:\n        /* \"#utility.yul\":3597:3601   */\n      0x00\n        /* \"#utility.yul\":3635:3637   */\n      0x60\n        /* \"#utility.yul\":3624:3633   */\n      dup3\n        /* \"#utility.yul\":3620:3638   */\n      add\n        /* \"#utility.yul\":3612:3638   */\n      swap1\n      pop\n        /* \"#utility.yul\":3648:3719   */\n      tag_270\n        /* \"#utility.yul\":3716:3717   */\n      0x00\n        /* \"#utility.yul\":3705:3714   */\n      dup4\n        /* \"#utility.yul\":3701:3718   */\n      add\n        /* \"#utility.yul\":3692:3698   */\n      dup7\n        /* \"#utility.yul\":3648:3719   */\n      tag_177\n      jump\t// in\n    tag_270:\n        /* \"#utility.yul\":3729:3801   */\n      tag_271\n        /* \"#utility.yul\":3797:3799   */\n      0x20\n        /* \"#utility.yul\":3786:3795   */\n      dup4\n        /* \"#utility.yul\":3782:3800   */\n      add\n        /* \"#utility.yul\":3773:3779   */\n      dup6\n        /* \"#utility.yul\":3729:3801   */\n      tag_167\n      jump\t// in\n    tag_271:\n        /* \"#utility.yul\":3811:3877   */\n      tag_272\n        /* \"#utility.yul\":3873:3875   */\n      0x40\n        /* \"#utility.yul\":3862:3871   */\n      dup4\n        /* \"#utility.yul\":3858:3876   */\n      add\n        /* \"#utility.yul\":3849:3855   */\n      dup5\n        /* \"#utility.yul\":3811:3877   */\n      tag_174\n      jump\t// in\n    tag_272:\n        /* \"#utility.yul\":3454:3884   */\n      swap5\n      swap4\n      pop\n      pop\n      pop\n      pop\n      jump\t// out\n        /* \"#utility.yul\":3890:4048   */\n    tag_180:\n        /* \"#utility.yul\":4001:4007   */\n      0x00\n        /* \"#utility.yul\":4035:4040   */\n      dup2\n        /* \"#utility.yul\":4029:4041   */\n      mload\n        /* \"#utility.yul\":4019:4041   */\n      swap1\n      pop\n        /* \"#utility.yul\":3890:4048   */\n      swap2\n      swap1\n      pop\n      jump\t// out\n        /* \"#utility.yul\":4054:4282   */\n    tag_181:\n        /* \"#utility.yul\":4197:4208   */\n      0x00\n        /* \"#utility.yul\":4231:4237   */\n      dup3\n        /* \"#utility.yul\":4226:4229   */\n      dup3\n        /* \"#utility.yul\":4219:4238   */\n      mstore\n        /* \"#utility.yul\":4271:4275   */\n      0x20\n        /* \"#utility.yul\":4266:4269   */\n      dup3\n        /* \"#utility.yul\":4262:4276   */\n      add\n        /* \"#utility.yul\":4247:4276   */\n      swap1\n      pop\n        /* \"#utility.yul\":4054:4282   */\n      swap3\n      swap2\n      pop\n      pop\n      jump\t// out\n        /* \"#utility.yul\":4288:4464   */\n    tag_182:\n        /* \"#utility.yul\":4399:4403   */\n      0x00\n        /* \"#utility.yul\":4422:4425   */\n      dup2\n        /* \"#utility.yul\":4414:4425   */\n      swap1\n      pop\n        /* \"#utility.yul\":4452:4456   */\n      0x20\n        /* \"#utility.yul\":4447:4450   */\n      dup3\n        /* \"#utility.yul\":4443:4457   */\n      add\n        /* \"#utility.yul\":4435:4457   */\n      swap1\n      pop\n        /* \"#utility.yul\":4288:4464   */\n      swap2\n      swap1\n      pop\n      jump\t// out\n        /* \"#utility.yul\":4470:4603   */\n    tag_183:\n        /* \"#utility.yul\":4556:4562   */\n      0x00\n        /* \"#utility.yul\":4590:4595   */\n      dup2\n        /* \"#utility.yul\":4584:4596   */\n      mload\n        /* \"#utility.yul\":4574:4596   */\n      swap1\n      pop\n        /* \"#utility.yul\":4470:4603   */\n      swap2\n      swap1\n      pop\n      jump\t// out\n        /* \"#utility.yul\":4609:4802   */\n    tag_184:\n        /* \"#utility.yul\":4717:4728   */\n      0x00\n        /* \"#utility.yul\":4751:4757   */\n      dup3\n        /* \"#utility.yul\":4746:4749   */\n      dup3\n        /* \"#utility.yul\":4739:4758   */\n      mstore\n        /* \"#utility.yul\":4791:4795   */\n      0x20\n        /* \"#utility.yul\":4786:4789   */\n      dup3\n        /* \"#utility.yul\":4782:4796   */\n      add\n        /* \"#utility.yul\":4767:4796   */\n      swap1\n      pop\n        /* \"#utility.yul\":4609:4802   */\n      swap3\n      swap2\n      pop\n      pop\n      jump\t// out\n        /* \"#utility.yul\":4808:4959   */\n    tag_185:\n        /* \"#utility.yul\":4894:4898   */\n      0x00\n        /* \"#utility.yul\":4917:4920   */\n      dup2\n        /* \"#utility.yul\":4909:4920   */\n      swap1\n      pop\n        /* \"#utility.yul\":4947:4951   */\n      0x20\n        /* \"#utility.yul\":4942:4945   */\n      dup3\n        /* \"#utility.yul\":4938:4952   */\n      add\n        /* \"#utility.yul\":4930:4952   */\n      swap1\n      pop\n        /* \"#utility.yul\":4808:4959   */\n      swap2\n      swap1\n      pop\n      jump\t// out\n        /* \"#utility.yul\":4965:5073   */\n    tag_186:\n        /* \"#utility.yul\":5042:5066   */\n      tag_280\n        /* \"#utility.yul\":5060:5065   */\n      dup2\n        /* \"#utility.yul\":5042:5066   */\n      tag_176\n      jump\t// in\n    tag_280:\n        /* \"#utility.yul\":5037:5040   */\n      dup3\n        /* \"#utility.yul\":5030:5067   */\n      mstore\n        /* \"#utility.yul\":4965:5073   */\n      pop\n      pop\n      jump\t// out\n        /* \"#utility.yul\":5079:5187   */\n    tag_187:\n        /* \"#utility.yul\":5156:5180   */\n      tag_282\n        /* \"#utility.yul\":5174:5179   */\n      dup2\n        /* \"#utility.yul\":5156:5180   */\n      tag_166\n      jump\t// in\n    tag_282:\n        /* \"#utility.yul\":5151:5154   */\n      dup3\n        /* \"#utility.yul\":5144:5181   */\n      mstore\n        /* \"#utility.yul\":5079:5187   */\n      pop\n      pop\n      jump\t// out\n        /* \"#utility.yul\":5193:5292   */\n    tag_188:\n        /* \"#utility.yul\":5264:5285   */\n      tag_284\n        /* \"#utility.yul\":5279:5284   */\n      dup2\n        /* \"#utility.yul\":5264:5285   */\n      tag_171\n      jump\t// in\n    tag_284:\n        /* \"#utility.yul\":5259:5262   */\n      dup3\n        /* \"#utility.yul\":5252:5286   */\n      mstore\n        /* \"#utility.yul\":5193:5292   */\n      pop\n      pop\n      jump\t// out\n        /* \"#utility.yul\":5342:6001   */\n    tag_189:\n        /* \"#utility.yul\":5467:5471   */\n      0x60\n        /* \"#utility.yul\":5462:5465   */\n      dup3\n        /* \"#utility.yul\":5458:5472   */\n      add\n        /* \"#utility.yul\":5556:5560   */\n      0x00\n        /* \"#utility.yul\":5549:5554   */\n      dup3\n        /* \"#utility.yul\":5545:5561   */\n      add\n        /* \"#utility.yul\":5539:5562   */\n      mload\n        /* \"#utility.yul\":5575:5638   */\n      tag_286\n        /* \"#utility.yul\":5632:5636   */\n      0x00\n        /* \"#utility.yul\":5627:5630   */\n      dup6\n        /* \"#utility.yul\":5623:5637   */\n      add\n        /* \"#utility.yul\":5609:5621   */\n      dup3\n        /* \"#utility.yul\":5575:5638   */\n      tag_186\n      jump\t// in\n    tag_286:\n        /* \"#utility.yul\":5482:5648   */\n      pop\n        /* \"#utility.yul\":5732:5736   */\n      0x20\n        /* \"#utility.yul\":5725:5730   */\n      dup3\n        /* \"#utility.yul\":5721:5737   */\n      add\n        /* \"#utility.yul\":5715:5738   */\n      mload\n        /* \"#utility.yul\":5751:5814   */\n      tag_287\n        /* \"#utility.yul\":5808:5812   */\n      0x20\n        /* \"#utility.yul\":5803:5806   */\n      dup6\n        /* \"#utility.yul\":5799:5813   */\n      add\n        /* \"#utility.yul\":5785:5797   */\n      dup3\n        /* \"#utility.yul\":5751:5814   */\n      tag_187\n      jump\t// in\n    tag_287:\n        /* \"#utility.yul\":5658:5824   */\n      pop\n        /* \"#utility.yul\":5908:5912   */\n      0x40\n        /* \"#utility.yul\":5901:5906   */\n      dup3\n        /* \"#utility.yul\":5897:5913   */\n      add\n        /* \"#utility.yul\":5891:5914   */\n      mload\n        /* \"#utility.yul\":5927:5984   */\n      tag_288\n        /* \"#utility.yul\":5978:5982   */\n      0x40\n        /* \"#utility.yul\":5973:5976   */\n      dup6\n        /* \"#utility.yul\":5969:5983   */\n      add\n        /* \"#utility.yul\":5955:5967   */\n      dup3\n        /* \"#utility.yul\":5927:5984   */\n      tag_188\n      jump\t// in\n    tag_288:\n        /* \"#utility.yul\":5834:5994   */\n      pop\n        /* \"#utility.yul\":5436:6001   */\n      pop\n        /* \"#utility.yul\":5342:6001   */\n      pop\n      pop\n      jump\t// out\n        /* \"#utility.yul\":6007:6262   */\n    tag_190:\n        /* \"#utility.yul\":6114:6124   */\n      0x00\n        /* \"#utility.yul\":6135:6219   */\n      tag_290\n        /* \"#utility.yul\":6215:6218   */\n      dup4\n        /* \"#utility.yul\":6207:6213   */\n      dup4\n        /* \"#utility.yul\":6135:6219   */\n      tag_189\n      jump\t// in\n    tag_290:\n        /* \"#utility.yul\":6251:6255   */\n      0x60\n        /* \"#utility.yul\":6246:6249   */\n      dup4\n        /* \"#utility.yul\":6242:6256   */\n      add\n        /* \"#utility.yul\":6228:6256   */\n      swap1\n      pop\n        /* \"#utility.yul\":6007:6262   */\n      swap3\n      swap2\n      pop\n      pop\n      jump\t// out\n        /* \"#utility.yul\":6268:6400   */\n    tag_191:\n        /* \"#utility.yul\":6357:6361   */\n      0x00\n        /* \"#utility.yul\":6389:6393   */\n      0x20\n        /* \"#utility.yul\":6384:6387   */\n      dup3\n        /* \"#utility.yul\":6380:6394   */\n      add\n        /* \"#utility.yul\":6372:6394   */\n      swap1\n      pop\n        /* \"#utility.yul\":6268:6400   */\n      swap2\n      swap1\n      pop\n      jump\t// out\n        /* \"#utility.yul\":6454:7318   */\n    tag_192:\n        /* \"#utility.yul\":6601:6604   */\n      0x00\n        /* \"#utility.yul\":6630:6703   */\n      tag_293\n        /* \"#utility.yul\":6697:6702   */\n      dup3\n        /* \"#utility.yul\":6630:6703   */\n      tag_183\n      jump\t// in\n    tag_293:\n        /* \"#utility.yul\":6719:6814   */\n      tag_294\n        /* \"#utility.yul\":6807:6813   */\n      dup2\n        /* \"#utility.yul\":6802:6805   */\n      dup6\n        /* \"#utility.yul\":6719:6814   */\n      tag_184\n      jump\t// in\n    tag_294:\n        /* \"#utility.yul\":6712:6814   */\n      swap4\n      pop\n        /* \"#utility.yul\":6838:6913   */\n      tag_295\n        /* \"#utility.yul\":6907:6912   */\n      dup4\n        /* \"#utility.yul\":6838:6913   */\n      tag_185\n      jump\t// in\n    tag_295:\n        /* \"#utility.yul\":6936:6943   */\n      dup1\n        /* \"#utility.yul\":6967:6968   */\n      0x00\n        /* \"#utility.yul\":6952:7293   */\n    tag_296:\n        /* \"#utility.yul\":6977:6983   */\n      dup4\n        /* \"#utility.yul\":6974:6975   */\n      dup2\n        /* \"#utility.yul\":6971:6984   */\n      lt\n        /* \"#utility.yul\":6952:7293   */\n      iszero\n      tag_298\n      jumpi\n        /* \"#utility.yul\":7053:7059   */\n      dup2\n        /* \"#utility.yul\":7047:7060   */\n      mload\n        /* \"#utility.yul\":7080:7181   */\n      tag_299\n        /* \"#utility.yul\":7177:7180   */\n      dup9\n        /* \"#utility.yul\":7162:7175   */\n      dup3\n        /* \"#utility.yul\":7080:7181   */\n      tag_190\n      jump\t// in\n    tag_299:\n        /* \"#utility.yul\":7073:7181   */\n      swap8\n      pop\n        /* \"#utility.yul\":7204:7283   */\n      tag_300\n        /* \"#utility.yul\":7276:7282   */\n      dup4\n        /* \"#utility.yul\":7204:7283   */\n      tag_191\n      jump\t// in\n    tag_300:\n        /* \"#utility.yul\":7194:7283   */\n      swap3\n      pop\n        /* \"#utility.yul\":7012:7293   */\n      pop\n        /* \"#utility.yul\":6999:7000   */\n      0x01\n        /* \"#utility.yul\":6996:6997   */\n      dup2\n        /* \"#utility.yul\":6992:7001   */\n      add\n        /* \"#utility.yul\":6987:7001   */\n      swap1\n      pop\n        /* \"#utility.yul\":6952:7293   */\n      jump(tag_296)\n    tag_298:\n        /* \"#utility.yul\":6956:6970   */\n      pop\n        /* \"#utility.yul\":7309:7312   */\n      dup6\n        /* \"#utility.yul\":7302:7312   */\n      swap4\n      pop\n        /* \"#utility.yul\":6606:7318   */\n      pop\n      pop\n      pop\n        /* \"#utility.yul\":6454:7318   */\n      swap3\n      swap2\n      pop\n      pop\n      jump\t// out\n        /* \"#utility.yul\":7324:7656   */\n    tag_193:\n        /* \"#utility.yul\":7481:7491   */\n      0x00\n        /* \"#utility.yul\":7516:7650   */\n      tag_302\n        /* \"#utility.yul\":7646:7649   */\n      dup4\n        /* \"#utility.yul\":7638:7644   */\n      dup4\n        /* \"#utility.yul\":7516:7650   */\n      tag_192\n      jump\t// in\n    tag_302:\n        /* \"#utility.yul\":7502:7650   */\n      swap1\n      pop\n        /* \"#utility.yul\":7324:7656   */\n      swap3\n      swap2\n      pop\n      pop\n      jump\t// out\n        /* \"#utility.yul\":7662:7819   */\n    tag_194:\n        /* \"#utility.yul\":7776:7780   */\n      0x00\n        /* \"#utility.yul\":7808:7812   */\n      0x20\n        /* \"#utility.yul\":7803:7806   */\n      dup3\n        /* \"#utility.yul\":7799:7813   */\n      add\n        /* \"#utility.yul\":7791:7813   */\n      swap1\n      pop\n        /* \"#utility.yul\":7662:7819   */\n      swap2\n      swap1\n      pop\n      jump\t// out\n        /* \"#utility.yul\":7877:9140   */\n    tag_195:\n        /* \"#utility.yul\":8084:8087   */\n      0x00\n        /* \"#utility.yul\":8113:8211   */\n      tag_305\n        /* \"#utility.yul\":8205:8210   */\n      dup3\n        /* \"#utility.yul\":8113:8211   */\n      tag_180\n      jump\t// in\n    tag_305:\n        /* \"#utility.yul\":8227:8357   */\n      tag_306\n        /* \"#utility.yul\":8350:8356   */\n      dup2\n        /* \"#utility.yul\":8345:8348   */\n      dup6\n        /* \"#utility.yul\":8227:8357   */\n      tag_181\n      jump\t// in\n    tag_306:\n        /* \"#utility.yul\":8220:8357   */\n      swap4\n      pop\n        /* \"#utility.yul\":8383:8386   */\n      dup4\n        /* \"#utility.yul\":8428:8432   */\n      0x20\n        /* \"#utility.yul\":8420:8426   */\n      dup3\n        /* \"#utility.yul\":8416:8433   */\n      mul\n        /* \"#utility.yul\":8411:8414   */\n      dup6\n        /* \"#utility.yul\":8407:8434   */\n      add\n        /* \"#utility.yul\":8458:8558   */\n      tag_307\n        /* \"#utility.yul\":8552:8557   */\n      dup6\n        /* \"#utility.yul\":8458:8558   */\n      tag_182\n      jump\t// in\n    tag_307:\n        /* \"#utility.yul\":8581:8588   */\n      dup1\n        /* \"#utility.yul\":8612:8613   */\n      0x00\n        /* \"#utility.yul\":8597:9095   */\n    tag_308:\n        /* \"#utility.yul\":8622:8628   */\n      dup6\n        /* \"#utility.yul\":8619:8620   */\n      dup2\n        /* \"#utility.yul\":8616:8629   */\n      lt\n        /* \"#utility.yul\":8597:9095   */\n      iszero\n      tag_310\n      jumpi\n        /* \"#utility.yul\":8693:8702   */\n      dup5\n        /* \"#utility.yul\":8687:8691   */\n      dup5\n        /* \"#utility.yul\":8683:8703   */\n      sub\n        /* \"#utility.yul\":8678:8681   */\n      dup10\n        /* \"#utility.yul\":8671:8704   */\n      mstore\n        /* \"#utility.yul\":8744:8750   */\n      dup2\n        /* \"#utility.yul\":8738:8751   */\n      mload\n        /* \"#utility.yul\":8772:8924   */\n      tag_311\n        /* \"#utility.yul\":8919:8923   */\n      dup6\n        /* \"#utility.yul\":8904:8917   */\n      dup3\n        /* \"#utility.yul\":8772:8924   */\n      tag_193\n      jump\t// in\n    tag_311:\n        /* \"#utility.yul\":8764:8924   */\n      swap5\n      pop\n        /* \"#utility.yul\":8947:9051   */\n      tag_312\n        /* \"#utility.yul\":9044:9050   */\n      dup4\n        /* \"#utility.yul\":8947:9051   */\n      tag_194\n      jump\t// in\n    tag_312:\n        /* \"#utility.yul\":8937:9051   */\n      swap3\n      pop\n        /* \"#utility.yul\":9080:9084   */\n      0x20\n        /* \"#utility.yul\":9075:9078   */\n      dup11\n        /* \"#utility.yul\":9071:9085   */\n      add\n        /* \"#utility.yul\":9064:9085   */\n      swap10\n      pop\n        /* \"#utility.yul\":8657:9095   */\n      pop\n        /* \"#utility.yul\":8644:8645   */\n      0x01\n        /* \"#utility.yul\":8641:8642   */\n      dup2\n        /* \"#utility.yul\":8637:8646   */\n      add\n        /* \"#utility.yul\":8632:8646   */\n      swap1\n      pop\n        /* \"#utility.yul\":8597:9095   */\n      jump(tag_308)\n    tag_310:\n        /* \"#utility.yul\":8601:8615   */\n      pop\n        /* \"#utility.yul\":9111:9115   */\n      dup3\n        /* \"#utility.yul\":9104:9115   */\n      swap8\n      pop\n        /* \"#utility.yul\":9131:9134   */\n      dup8\n        /* \"#utility.yul\":9124:9134   */\n      swap6\n      pop\n        /* \"#utility.yul\":8089:9140   */\n      pop\n      pop\n      pop\n      pop\n      pop\n        /* \"#utility.yul\":7877:9140   */\n      swap3\n      swap2\n      pop\n      pop\n      jump\t// out\n        /* \"#utility.yul\":9146:9695   */\n    tag_52:\n        /* \"#utility.yul\":9377:9381   */\n      0x00\n        /* \"#utility.yul\":9415:9417   */\n      0x20\n        /* \"#utility.yul\":9404:9413   */\n      dup3\n        /* \"#utility.yul\":9400:9418   */\n      add\n        /* \"#utility.yul\":9392:9418   */\n      swap1\n      pop\n        /* \"#utility.yul\":9464:9473   */\n      dup2\n        /* \"#utility.yul\":9458:9462   */\n      dup2\n        /* \"#utility.yul\":9454:9474   */\n      sub\n        /* \"#utility.yul\":9450:9451   */\n      0x00\n        /* \"#utility.yul\":9439:9448   */\n      dup4\n        /* \"#utility.yul\":9435:9452   */\n      add\n        /* \"#utility.yul\":9428:9475   */\n      mstore\n        /* \"#utility.yul\":9492:9688   */\n      tag_314\n        /* \"#utility.yul\":9683:9687   */\n      dup2\n        /* \"#utility.yul\":9674:9680   */\n      dup5\n        /* \"#utility.yul\":9492:9688   */\n      tag_195\n      jump\t// in\n    tag_314:\n        /* \"#utility.yul\":9484:9688   */\n      swap1\n      pop\n        /* \"#utility.yul\":9146:9695   */\n      swap3\n      swap2\n      pop\n      pop\n      jump\t// out\n        /* \"#utility.yul\":9701:9805   */\n    tag_196:\n        /* \"#utility.yul\":9766:9772   */\n      0x00\n        /* \"#utility.yul\":9794:9798   */\n      0x03\n        /* \"#utility.yul\":9784:9798   */\n      swap1\n      pop\n        /* \"#utility.yul\":9701:9805   */\n      swap2\n      swap1\n      pop\n      jump\t// out\n        /* \"#utility.yul\":9811:9954   */\n    tag_197:\n        /* \"#utility.yul\":9908:9919   */\n      0x00\n        /* \"#utility.yul\":9945:9948   */\n      dup2\n        /* \"#utility.yul\":9930:9948   */\n      swap1\n      pop\n        /* \"#utility.yul\":9811:9954   */\n      swap3\n      swap2\n      pop\n      pop\n      jump\t// out\n        /* \"#utility.yul\":9960:10058   */\n    tag_198:\n        /* \"#utility.yul\":10025:10029   */\n      0x00\n        /* \"#utility.yul\":10048:10051   */\n      dup2\n        /* \"#utility.yul\":10040:10051   */\n      swap1\n      pop\n        /* \"#utility.yul\":9960:10058   */\n      swap2\n      swap1\n      pop\n      jump\t// out\n        /* \"#utility.yul\":10064:10243   */\n    tag_199:\n        /* \"#utility.yul\":10133:10143   */\n      0x00\n        /* \"#utility.yul\":10154:10200   */\n      tag_319\n        /* \"#utility.yul\":10196:10199   */\n      dup4\n        /* \"#utility.yul\":10188:10194   */\n      dup4\n        /* \"#utility.yul\":10154:10200   */\n      tag_187\n      jump\t// in\n    tag_319:\n        /* \"#utility.yul\":10232:10236   */\n      0x20\n        /* \"#utility.yul\":10227:10230   */\n      dup4\n        /* \"#utility.yul\":10223:10237   */\n      add\n        /* \"#utility.yul\":10209:10237   */\n      swap1\n      pop\n        /* \"#utility.yul\":10064:10243   */\n      swap3\n      swap2\n      pop\n      pop\n      jump\t// out\n        /* \"#utility.yul\":10249:10360   */\n    tag_200:\n        /* \"#utility.yul\":10317:10321   */\n      0x00\n        /* \"#utility.yul\":10349:10353   */\n      0x20\n        /* \"#utility.yul\":10344:10347   */\n      dup3\n        /* \"#utility.yul\":10340:10354   */\n      add\n        /* \"#utility.yul\":10332:10354   */\n      swap1\n      pop\n        /* \"#utility.yul\":10249:10360   */\n      swap2\n      swap1\n      pop\n      jump\t// out\n        /* \"#utility.yul\":10398:11092   */\n    tag_201:\n        /* \"#utility.yul\":10534:10586   */\n      tag_322\n        /* \"#utility.yul\":10580:10585   */\n      dup2\n        /* \"#utility.yul\":10534:10586   */\n      tag_196\n      jump\t// in\n    tag_322:\n        /* \"#utility.yul\":10602:10686   */\n      tag_323\n        /* \"#utility.yul\":10679:10685   */\n      dup2\n        /* \"#utility.yul\":10674:10677   */\n      dup5\n        /* \"#utility.yul\":10602:10686   */\n      tag_197\n      jump\t// in\n    tag_323:\n        /* \"#utility.yul\":10595:10686   */\n      swap3\n      pop\n        /* \"#utility.yul\":10710:10764   */\n      tag_324\n        /* \"#utility.yul\":10758:10763   */\n      dup3\n        /* \"#utility.yul\":10710:10764   */\n      tag_198\n      jump\t// in\n    tag_324:\n        /* \"#utility.yul\":10787:10794   */\n      dup1\n        /* \"#utility.yul\":10818:10819   */\n      0x00\n        /* \"#utility.yul\":10803:11085   */\n    tag_325:\n        /* \"#utility.yul\":10828:10834   */\n      dup4\n        /* \"#utility.yul\":10825:10826   */\n      dup2\n        /* \"#utility.yul\":10822:10835   */\n      lt\n        /* \"#utility.yul\":10803:11085   */\n      iszero\n      tag_327\n      jumpi\n        /* \"#utility.yul\":10904:10910   */\n      dup2\n        /* \"#utility.yul\":10898:10911   */\n      mload\n        /* \"#utility.yul\":10931:10994   */\n      tag_328\n        /* \"#utility.yul\":10990:10993   */\n      dup8\n        /* \"#utility.yul\":10975:10988   */\n      dup3\n        /* \"#utility.yul\":10931:10994   */\n      tag_199\n      jump\t// in\n    tag_328:\n        /* \"#utility.yul\":10924:10994   */\n      swap7\n      pop\n        /* \"#utility.yul\":11017:11075   */\n      tag_329\n        /* \"#utility.yul\":11068:11074   */\n      dup4\n        /* \"#utility.yul\":11017:11075   */\n      tag_200\n      jump\t// in\n    tag_329:\n        /* \"#utility.yul\":11007:11075   */\n      swap3\n      pop\n        /* \"#utility.yul\":10863:11085   */\n      pop\n        /* \"#utility.yul\":10850:10851   */\n      0x01\n        /* \"#utility.yul\":10847:10848   */\n      dup2\n        /* \"#utility.yul\":10843:10852   */\n      add\n        /* \"#utility.yul\":10838:10852   */\n      swap1\n      pop\n        /* \"#utility.yul\":10803:11085   */\n      jump(tag_325)\n    tag_327:\n        /* \"#utility.yul\":10807:10821   */\n      pop\n        /* \"#utility.yul\":10510:11092   */\n      pop\n      pop\n      pop\n        /* \"#utility.yul\":10398:11092   */\n      pop\n      pop\n      jump\t// out\n        /* \"#utility.yul\":11098:11412   */\n    tag_57:\n        /* \"#utility.yul\":11237:11241   */\n      0x00\n        /* \"#utility.yul\":11275:11277   */\n      0x60\n        /* \"#utility.yul\":11264:11273   */\n      dup3\n        /* \"#utility.yul\":11260:11278   */\n      add\n        /* \"#utility.yul\":11252:11278   */\n      swap1\n      pop\n        /* \"#utility.yul\":11288:11405   */\n      tag_331\n        /* \"#utility.yul\":11402:11403   */\n      0x00\n        /* \"#utility.yul\":11391:11400   */\n      dup4\n        /* \"#utility.yul\":11387:11404   */\n      add\n        /* \"#utility.yul\":11378:11384   */\n      dup5\n        /* \"#utility.yul\":11288:11405   */\n      tag_201\n      jump\t// in\n    tag_331:\n        /* \"#utility.yul\":11098:11412   */\n      swap3\n      swap2\n      pop\n      pop\n      jump\t// out\n        /* \"#utility.yul\":11418:11587   */\n    tag_202:\n        /* \"#utility.yul\":11502:11513   */\n      0x00\n        /* \"#utility.yul\":11536:11542   */\n      dup3\n        /* \"#utility.yul\":11531:11534   */\n      dup3\n        /* \"#utility.yul\":11524:11543   */\n      mstore\n        /* \"#utility.yul\":11576:11580   */\n      0x20\n        /* \"#utility.yul\":11571:11574   */\n      dup3\n        /* \"#utility.yul\":11567:11581   */\n      add\n        /* \"#utility.yul\":11552:11581   */\n      swap1\n      pop\n        /* \"#utility.yul\":11418:11587   */\n      swap3\n      swap2\n      pop\n      pop\n      jump\t// out\n        /* \"#utility.yul\":11593:11759   */\n    tag_203:\n        /* \"#utility.yul\":11733:11751   */\n      0x47616d652069732066696e697368656400000000000000000000000000000000\n        /* \"#utility.yul\":11729:11730   */\n      0x00\n        /* \"#utility.yul\":11721:11727   */\n      dup3\n        /* \"#utility.yul\":11717:11731   */\n      add\n        /* \"#utility.yul\":11710:11752   */\n      mstore\n        /* \"#utility.yul\":11593:11759   */\n      pop\n      jump\t// out\n        /* \"#utility.yul\":11765:12131   */\n    tag_204:\n        /* \"#utility.yul\":11907:11910   */\n      0x00\n        /* \"#utility.yul\":11928:11995   */\n      tag_335\n        /* \"#utility.yul\":11992:11994   */\n      0x10\n        /* \"#utility.yul\":11987:11990   */\n      dup4\n        /* \"#utility.yul\":11928:11995   */\n      tag_202\n      jump\t// in\n    tag_335:\n        /* \"#utility.yul\":11921:11995   */\n      swap2\n      pop\n        /* \"#utility.yul\":12004:12097   */\n      tag_336\n        /* \"#utility.yul\":12093:12096   */\n      dup3\n        /* \"#utility.yul\":12004:12097   */\n      tag_203\n      jump\t// in\n    tag_336:\n        /* \"#utility.yul\":12122:12124   */\n      0x20\n        /* \"#utility.yul\":12117:12120   */\n      dup3\n        /* \"#utility.yul\":12113:12125   */\n      add\n        /* \"#utility.yul\":12106:12125   */\n      swap1\n      pop\n        /* \"#utility.yul\":11765:12131   */\n      swap2\n      swap1\n      pop\n      jump\t// out\n        /* \"#utility.yul\":12137:12556   */\n    tag_65:\n        /* \"#utility.yul\":12303:12307   */\n      0x00\n        /* \"#utility.yul\":12341:12343   */\n      0x20\n        /* \"#utility.yul\":12330:12339   */\n      dup3\n        /* \"#utility.yul\":12326:12344   */\n      add\n        /* \"#utility.yul\":12318:12344   */\n      swap1\n      pop\n        /* \"#utility.yul\":12390:12399   */\n      dup2\n        /* \"#utility.yul\":12384:12388   */\n      dup2\n        /* \"#utility.yul\":12380:12400   */\n      sub\n        /* \"#utility.yul\":12376:12377   */\n      0x00\n        /* \"#utility.yul\":12365:12374   */\n      dup4\n        /* \"#utility.yul\":12361:12378   */\n      add\n        /* \"#utility.yul\":12354:12401   */\n      mstore\n        /* \"#utility.yul\":12418:12549   */\n      tag_338\n        /* \"#utility.yul\":12544:12548   */\n      dup2\n        /* \"#utility.yul\":12418:12549   */\n      tag_204\n      jump\t// in\n    tag_338:\n        /* \"#utility.yul\":12410:12549   */\n      swap1\n      pop\n        /* \"#utility.yul\":12137:12556   */\n      swap2\n      swap1\n      pop\n      jump\t// out\n        /* \"#utility.yul\":12562:12742   */\n    tag_205:\n        /* \"#utility.yul\":12702:12734   */\n      0x4f6e6c79206f776e65722063616e20736574746c65207468652067616d650000\n        /* \"#utility.yul\":12698:12699   */\n      0x00\n        /* \"#utility.yul\":12690:12696   */\n      dup3\n        /* \"#utility.yul\":12686:12700   */\n      add\n        /* \"#utility.yul\":12679:12735   */\n      mstore\n        /* \"#utility.yul\":12562:12742   */\n      pop\n      jump\t// out\n        /* \"#utility.yul\":12748:13114   */\n    tag_206:\n        /* \"#utility.yul\":12890:12893   */\n      0x00\n        /* \"#utility.yul\":12911:12978   */\n      tag_341\n        /* \"#utility.yul\":12975:12977   */\n      0x1e\n        /* \"#utility.yul\":12970:12973   */\n      dup4\n        /* \"#utility.yul\":12911:12978   */\n      tag_202\n      jump\t// in\n    tag_341:\n        /* \"#utility.yul\":12904:12978   */\n      swap2\n      pop\n        /* \"#utility.yul\":12987:13080   */\n      tag_342\n        /* \"#utility.yul\":13076:13079   */\n      dup3\n        /* \"#utility.yul\":12987:13080   */\n      tag_205\n      jump\t// in\n    tag_342:\n        /* \"#utility.yul\":13105:13107   */\n      0x20\n        /* \"#utility.yul\":13100:13103   */\n      dup3\n        /* \"#utility.yul\":13096:13108   */\n      add\n        /* \"#utility.yul\":13089:13108   */\n      swap1\n      pop\n        /* \"#utility.yul\":12748:13114   */\n      swap2\n      swap1\n      pop\n      jump\t// out\n        /* \"#utility.yul\":13120:13539   */\n    tag_68:\n        /* \"#utility.yul\":13286:13290   */\n      0x00\n        /* \"#utility.yul\":13324:13326   */\n      0x20\n        /* \"#utility.yul\":13313:13322   */\n      dup3\n        /* \"#utility.yul\":13309:13327   */\n      add\n        /* \"#utility.yul\":13301:13327   */\n      swap1\n      pop\n        /* \"#utility.yul\":13373:13382   */\n      dup2\n        /* \"#utility.yul\":13367:13371   */\n      dup2\n        /* \"#utility.yul\":13363:13383   */\n      sub\n        /* \"#utility.yul\":13359:13360   */\n      0x00\n        /* \"#utility.yul\":13348:13357   */\n      dup4\n        /* \"#utility.yul\":13344:13361   */\n      add\n        /* \"#utility.yul\":13337:13384   */\n      mstore\n        /* \"#utility.yul\":13401:13532   */\n      tag_344\n        /* \"#utility.yul\":13527:13531   */\n      dup2\n        /* \"#utility.yul\":13401:13532   */\n      tag_206\n      jump\t// in\n    tag_344:\n        /* \"#utility.yul\":13393:13532   */\n      swap1\n      pop\n        /* \"#utility.yul\":13120:13539   */\n      swap2\n      swap1\n      pop\n      jump\t// out\n        /* \"#utility.yul\":13545:13646   */\n    tag_207:\n        /* \"#utility.yul\":13607:13613   */\n      0x00\n        /* \"#utility.yul\":13635:13639   */\n      0x03\n        /* \"#utility.yul\":13625:13639   */\n      swap1\n      pop\n        /* \"#utility.yul\":13545:13646   */\n      swap2\n      swap1\n      pop\n      jump\t// out\n        /* \"#utility.yul\":13652:13747   */\n    tag_208:\n        /* \"#utility.yul\":13714:13718   */\n      0x00\n        /* \"#utility.yul\":13737:13740   */\n      dup2\n        /* \"#utility.yul\":13729:13740   */\n      swap1\n      pop\n        /* \"#utility.yul\":13652:13747   */\n      swap2\n      swap1\n      pop\n      jump\t// out\n        /* \"#utility.yul\":13753:13855   */\n    tag_209:\n        /* \"#utility.yul\":13795:13803   */\n      0x00\n        /* \"#utility.yul\":13842:13847   */\n      dup2\n        /* \"#utility.yul\":13839:13840   */\n      0x00\n        /* \"#utility.yul\":13835:13848   */\n      shr\n        /* \"#utility.yul\":13814:13848   */\n      swap1\n      pop\n        /* \"#utility.yul\":13753:13855   */\n      swap2\n      swap1\n      pop\n      jump\t// out\n        /* \"#utility.yul\":13861:13951   */\n    tag_210:\n        /* \"#utility.yul\":13911:13918   */\n      0x00\n        /* \"#utility.yul\":13940:13945   */\n      dup2\n        /* \"#utility.yul\":13929:13945   */\n      swap1\n      pop\n        /* \"#utility.yul\":13861:13951   */\n      swap2\n      swap1\n      pop\n      jump\t// out\n        /* \"#utility.yul\":13957:14123   */\n    tag_211:\n        /* \"#utility.yul\":14026:14031   */\n      0x00\n        /* \"#utility.yul\":14051:14117   */\n      tag_350\n        /* \"#utility.yul\":14082:14116   */\n      tag_351\n        /* \"#utility.yul\":14105:14115   */\n      dup4\n        /* \"#utility.yul\":14082:14116   */\n      tag_209\n      jump\t// in\n    tag_351:\n        /* \"#utility.yul\":14051:14117   */\n      tag_210\n      jump\t// in\n    tag_350:\n        /* \"#utility.yul\":14042:14117   */\n      swap1\n      pop\n        /* \"#utility.yul\":13957:14123   */\n      swap2\n      swap1\n      pop\n      jump\t// out\n        /* \"#utility.yul\":14129:14273   */\n    tag_212:\n        /* \"#utility.yul\":14184:14189   */\n      0x00\n        /* \"#utility.yul\":14209:14266   */\n      tag_353\n        /* \"#utility.yul\":14260:14264   */\n      dup3\n        /* \"#utility.yul\":14254:14265   */\n      sload\n        /* \"#utility.yul\":14209:14266   */\n      tag_211\n      jump\t// in\n    tag_353:\n        /* \"#utility.yul\":14200:14266   */\n      swap1\n      pop\n        /* \"#utility.yul\":14129:14273   */\n      swap2\n      swap1\n      pop\n      jump\t// out\n        /* \"#utility.yul\":14279:14387   */\n    tag_213:\n        /* \"#utility.yul\":14344:14348   */\n      0x00\n        /* \"#utility.yul\":14376:14380   */\n      0x01\n        /* \"#utility.yul\":14371:14374   */\n      dup3\n        /* \"#utility.yul\":14367:14381   */\n      add\n        /* \"#utility.yul\":14359:14381   */\n      swap1\n      pop\n        /* \"#utility.yul\":14279:14387   */\n      swap2\n      swap1\n      pop\n      jump\t// out\n        /* \"#utility.yul\":14425:15138   */\n    tag_214:\n        /* \"#utility.yul\":14558:14607   */\n      tag_356\n        /* \"#utility.yul\":14601:14606   */\n      dup2\n        /* \"#utility.yul\":14558:14607   */\n      tag_207\n      jump\t// in\n    tag_356:\n        /* \"#utility.yul\":14623:14707   */\n      tag_357\n        /* \"#utility.yul\":14700:14706   */\n      dup2\n        /* \"#utility.yul\":14695:14698   */\n      dup5\n        /* \"#utility.yul\":14623:14707   */\n      tag_197\n      jump\t// in\n    tag_357:\n        /* \"#utility.yul\":14616:14707   */\n      swap3\n      pop\n        /* \"#utility.yul\":14731:14782   */\n      tag_358\n        /* \"#utility.yul\":14776:14781   */\n      dup3\n        /* \"#utility.yul\":14731:14782   */\n      tag_208\n      jump\t// in\n    tag_358:\n        /* \"#utility.yul\":14805:14812   */\n      dup1\n        /* \"#utility.yul\":14836:14837   */\n      0x00\n        /* \"#utility.yul\":14821:15131   */\n    tag_359:\n        /* \"#utility.yul\":14846:14852   */\n      dup4\n        /* \"#utility.yul\":14843:14844   */\n      dup2\n        /* \"#utility.yul\":14840:14853   */\n      lt\n        /* \"#utility.yul\":14821:15131   */\n      iszero\n      tag_361\n      jumpi\n        /* \"#utility.yul\":14916:14960   */\n      tag_362\n        /* \"#utility.yul\":14953:14959   */\n      dup3\n        /* \"#utility.yul\":14916:14960   */\n      tag_212\n      jump\t// in\n    tag_362:\n        /* \"#utility.yul\":14980:15043   */\n      tag_363\n        /* \"#utility.yul\":15039:15042   */\n      dup8\n        /* \"#utility.yul\":15024:15037   */\n      dup3\n        /* \"#utility.yul\":14980:15043   */\n      tag_199\n      jump\t// in\n    tag_363:\n        /* \"#utility.yul\":14973:15043   */\n      swap7\n      pop\n        /* \"#utility.yul\":15066:15121   */\n      tag_364\n        /* \"#utility.yul\":15114:15120   */\n      dup4\n        /* \"#utility.yul\":15066:15121   */\n      tag_213\n      jump\t// in\n    tag_364:\n        /* \"#utility.yul\":15056:15121   */\n      swap3\n      pop\n        /* \"#utility.yul\":14881:15131   */\n      pop\n        /* \"#utility.yul\":14868:14869   */\n      0x01\n        /* \"#utility.yul\":14865:14866   */\n      dup2\n        /* \"#utility.yul\":14861:14870   */\n      add\n        /* \"#utility.yul\":14856:14870   */\n      swap1\n      pop\n        /* \"#utility.yul\":14821:15131   */\n      jump(tag_359)\n    tag_361:\n        /* \"#utility.yul\":14825:14839   */\n      pop\n        /* \"#utility.yul\":14534:15138   */\n      pop\n      pop\n      pop\n        /* \"#utility.yul\":14425:15138   */\n      pop\n      pop\n      jump\t// out\n        /* \"#utility.yul\":15144:15452   */\n    tag_72:\n        /* \"#utility.yul\":15280:15284   */\n      0x00\n        /* \"#utility.yul\":15318:15320   */\n      0x60\n        /* \"#utility.yul\":15307:15316   */\n      dup3\n        /* \"#utility.yul\":15303:15321   */\n      add\n        /* \"#utility.yul\":15295:15321   */\n      swap1\n      pop\n        /* \"#utility.yul\":15331:15445   */\n      tag_366\n        /* \"#utility.yul\":15442:15443   */\n      0x00\n        /* \"#utility.yul\":15431:15440   */\n      dup4\n        /* \"#utility.yul\":15427:15444   */\n      add\n        /* \"#utility.yul\":15418:15424   */\n      dup5\n        /* \"#utility.yul\":15331:15445   */\n      tag_214\n      jump\t// in\n    tag_366:\n        /* \"#utility.yul\":15144:15452   */\n      swap3\n      swap2\n      pop\n      pop\n      jump\t// out\n        /* \"#utility.yul\":15458:15638   */\n    tag_75:\n        /* \"#utility.yul\":15506:15583   */\n      0x4e487b7100000000000000000000000000000000000000000000000000000000\n        /* \"#utility.yul\":15503:15504   */\n      0x00\n        /* \"#utility.yul\":15496:15584   */\n      mstore\n        /* \"#utility.yul\":15603:15607   */\n      0x32\n        /* \"#utility.yul\":15600:15601   */\n      0x04\n        /* \"#utility.yul\":15593:15608   */\n      mstore\n        /* \"#utility.yul\":15627:15631   */\n      0x24\n        /* \"#utility.yul\":15624:15625   */\n      0x00\n        /* \"#utility.yul\":15617:15632   */\n      revert\n        /* \"#utility.yul\":15644:15824   */\n    tag_215:\n        /* \"#utility.yul\":15692:15769   */\n      0x4e487b7100000000000000000000000000000000000000000000000000000000\n        /* \"#utility.yul\":15689:15690   */\n      0x00\n        /* \"#utility.yul\":15682:15770   */\n      mstore\n        /* \"#utility.yul\":15789:15793   */\n      0x11\n        /* \"#utility.yul\":15786:15787   */\n      0x04\n        /* \"#utility.yul\":15779:15794   */\n      mstore\n        /* \"#utility.yul\":15813:15817   */\n      0x24\n        /* \"#utility.yul\":15810:15811   */\n      0x00\n        /* \"#utility.yul\":15803:15818   */\n      revert\n        /* \"#utility.yul\":15830:16021   */\n    tag_84:\n        /* \"#utility.yul\":15870:15873   */\n      0x00\n        /* \"#utility.yul\":15889:15909   */\n      tag_370\n        /* \"#utility.yul\":15907:15908   */\n      dup3\n        /* \"#utility.yul\":15889:15909   */\n      tag_166\n      jump\t// in\n    tag_370:\n        /* \"#utility.yul\":15884:15909   */\n      swap2\n      pop\n        /* \"#utility.yul\":15923:15943   */\n      tag_371\n        /* \"#utility.yul\":15941:15942   */\n      dup4\n        /* \"#utility.yul\":15923:15943   */\n      tag_166\n      jump\t// in\n    tag_371:\n        /* \"#utility.yul\":15918:15943   */\n      swap3\n      pop\n        /* \"#utility.yul\":15966:15967   */\n      dup3\n        /* \"#utility.yul\":15963:15964   */\n      dup3\n        /* \"#utility.yul\":15959:15968   */\n      add\n        /* \"#utility.yul\":15952:15968   */\n      swap1\n      pop\n        /* \"#utility.yul\":15987:15990   */\n      dup1\n        /* \"#utility.yul\":15984:15985   */\n      dup3\n        /* \"#utility.yul\":15981:15991   */\n      gt\n        /* \"#utility.yul\":15978:16014   */\n      iszero\n      tag_372\n      jumpi\n        /* \"#utility.yul\":15994:16012   */\n      tag_373\n      tag_215\n      jump\t// in\n    tag_373:\n        /* \"#utility.yul\":15978:16014   */\n    tag_372:\n        /* \"#utility.yul\":15830:16021   */\n      swap3\n      swap2\n      pop\n      pop\n      jump\t// out\n        /* \"#utility.yul\":16027:16437   */\n    tag_95:\n        /* \"#utility.yul\":16067:16074   */\n      0x00\n        /* \"#utility.yul\":16090:16110   */\n      tag_375\n        /* \"#utility.yul\":16108:16109   */\n      dup3\n        /* \"#utility.yul\":16090:16110   */\n      tag_166\n      jump\t// in\n    tag_375:\n        /* \"#utility.yul\":16085:16110   */\n      swap2\n      pop\n        /* \"#utility.yul\":16124:16144   */\n      tag_376\n        /* \"#utility.yul\":16142:16143   */\n      dup4\n        /* \"#utility.yul\":16124:16144   */\n      tag_166\n      jump\t// in\n    tag_376:\n        /* \"#utility.yul\":16119:16144   */\n      swap3\n      pop\n        /* \"#utility.yul\":16179:16180   */\n      dup3\n        /* \"#utility.yul\":16176:16177   */\n      dup3\n        /* \"#utility.yul\":16172:16181   */\n      mul\n        /* \"#utility.yul\":16201:16231   */\n      tag_377\n        /* \"#utility.yul\":16219:16230   */\n      dup2\n        /* \"#utility.yul\":16201:16231   */\n      tag_166\n      jump\t// in\n    tag_377:\n        /* \"#utility.yul\":16190:16231   */\n      swap2\n      pop\n        /* \"#utility.yul\":16380:16381   */\n      dup3\n        /* \"#utility.yul\":16371:16378   */\n      dup3\n        /* \"#utility.yul\":16367:16382   */\n      div\n        /* \"#utility.yul\":16364:16365   */\n      dup5\n        /* \"#utility.yul\":16361:16383   */\n      eq\n        /* \"#utility.yul\":16341:16342   */\n      dup4\n        /* \"#utility.yul\":16334:16343   */\n      iszero\n        /* \"#utility.yul\":16314:16397   */\n      or\n        /* \"#utility.yul\":16291:16430   */\n      tag_378\n      jumpi\n        /* \"#utility.yul\":16410:16428   */\n      tag_379\n      tag_215\n      jump\t// in\n    tag_379:\n        /* \"#utility.yul\":16291:16430   */\n    tag_378:\n        /* \"#utility.yul\":16075:16437   */\n      pop\n        /* \"#utility.yul\":16027:16437   */\n      swap3\n      swap2\n      pop\n      pop\n      jump\t// out\n        /* \"#utility.yul\":16443:16663   */\n    tag_216:\n        /* \"#utility.yul\":16583:16617   */\n      0x42657420616d6f756e74206d7573742062652067726561746572207468616e20\n        /* \"#utility.yul\":16579:16580   */\n      0x00\n        /* \"#utility.yul\":16571:16577   */\n      dup3\n        /* \"#utility.yul\":16567:16581   */\n      add\n        /* \"#utility.yul\":16560:16618   */\n      mstore\n        /* \"#utility.yul\":16652:16655   */\n      0x3000000000000000000000000000000000000000000000000000000000000000\n        /* \"#utility.yul\":16647:16649   */\n      0x20\n        /* \"#utility.yul\":16639:16645   */\n      dup3\n        /* \"#utility.yul\":16635:16650   */\n      add\n        /* \"#utility.yul\":16628:16656   */\n      mstore\n        /* \"#utility.yul\":16443:16663   */\n      pop\n      jump\t// out\n        /* \"#utility.yul\":16669:17035   */\n    tag_217:\n        /* \"#utility.yul\":16811:16814   */\n      0x00\n        /* \"#utility.yul\":16832:16899   */\n      tag_382\n        /* \"#utility.yul\":16896:16898   */\n      0x21\n        /* \"#utility.yul\":16891:16894   */\n      dup4\n        /* \"#utility.yul\":16832:16899   */\n      tag_202\n      jump\t// in\n    tag_382:\n        /* \"#utility.yul\":16825:16899   */\n      swap2\n      pop\n        /* \"#utility.yul\":16908:17001   */\n      tag_383\n        /* \"#utility.yul\":16997:17000   */\n      dup3\n        /* \"#utility.yul\":16908:17001   */\n      tag_216\n      jump\t// in\n    tag_383:\n        /* \"#utility.yul\":17026:17028   */\n      0x40\n        /* \"#utility.yul\":17021:17024   */\n      dup3\n        /* \"#utility.yul\":17017:17029   */\n      add\n        /* \"#utility.yul\":17010:17029   */\n      swap1\n      pop\n        /* \"#utility.yul\":16669:17035   */\n      swap2\n      swap1\n      pop\n      jump\t// out\n        /* \"#utility.yul\":17041:17460   */\n    tag_107:\n        /* \"#utility.yul\":17207:17211   */\n      0x00\n        /* \"#utility.yul\":17245:17247   */\n      0x20\n        /* \"#utility.yul\":17234:17243   */\n      dup3\n        /* \"#utility.yul\":17230:17248   */\n      add\n        /* \"#utility.yul\":17222:17248   */\n      swap1\n      pop\n        /* \"#utility.yul\":17294:17303   */\n      dup2\n        /* \"#utility.yul\":17288:17292   */\n      dup2\n        /* \"#utility.yul\":17284:17304   */\n      sub\n        /* \"#utility.yul\":17280:17281   */\n      0x00\n        /* \"#utility.yul\":17269:17278   */\n      dup4\n        /* \"#utility.yul\":17265:17282   */\n      add\n        /* \"#utility.yul\":17258:17305   */\n      mstore\n        /* \"#utility.yul\":17322:17453   */\n      tag_385\n        /* \"#utility.yul\":17448:17452   */\n      dup2\n        /* \"#utility.yul\":17322:17453   */\n      tag_217\n      jump\t// in\n    tag_385:\n        /* \"#utility.yul\":17314:17453   */\n      swap1\n      pop\n        /* \"#utility.yul\":17041:17460   */\n      swap2\n      swap1\n      pop\n      jump\t// out\n        /* \"#utility.yul\":17466:17707   */\n    tag_218:\n        /* \"#utility.yul\":17606:17640   */\n      0x42657420616d6f756e74206d757374206265206c657373207468616e206f7220\n        /* \"#utility.yul\":17602:17603   */\n      0x00\n        /* \"#utility.yul\":17594:17600   */\n      dup3\n        /* \"#utility.yul\":17590:17604   */\n      add\n        /* \"#utility.yul\":17583:17641   */\n      mstore\n        /* \"#utility.yul\":17675:17699   */\n      0x657175616c20746f20302e303030303120657468657200000000000000000000\n        /* \"#utility.yul\":17670:17672   */\n      0x20\n        /* \"#utility.yul\":17662:17668   */\n      dup3\n        /* \"#utility.yul\":17658:17673   */\n      add\n        /* \"#utility.yul\":17651:17700   */\n      mstore\n        /* \"#utility.yul\":17466:17707   */\n      pop\n      jump\t// out\n        /* \"#utility.yul\":17713:18079   */\n    tag_219:\n        /* \"#utility.yul\":17855:17858   */\n      0x00\n        /* \"#utility.yul\":17876:17943   */\n      tag_388\n        /* \"#utility.yul\":17940:17942   */\n      0x36\n        /* \"#utility.yul\":17935:17938   */\n      dup4\n        /* \"#utility.yul\":17876:17943   */\n      tag_202\n      jump\t// in\n    tag_388:\n        /* \"#utility.yul\":17869:17943   */\n      swap2\n      pop\n        /* \"#utility.yul\":17952:18045   */\n      tag_389\n        /* \"#utility.yul\":18041:18044   */\n      dup3\n        /* \"#utility.yul\":17952:18045   */\n      tag_218\n      jump\t// in\n    tag_389:\n        /* \"#utility.yul\":18070:18072   */\n      0x40\n        /* \"#utility.yul\":18065:18068   */\n      dup3\n        /* \"#utility.yul\":18061:18073   */\n      add\n        /* \"#utility.yul\":18054:18073   */\n      swap1\n      pop\n        /* \"#utility.yul\":17713:18079   */\n      swap2\n      swap1\n      pop\n      jump\t// out\n        /* \"#utility.yul\":18085:18504   */\n    tag_110:\n        /* \"#utility.yul\":18251:18255   */\n      0x00\n        /* \"#utility.yul\":18289:18291   */\n      0x20\n        /* \"#utility.yul\":18278:18287   */\n      dup3\n        /* \"#utility.yul\":18274:18292   */\n      add\n        /* \"#utility.yul\":18266:18292   */\n      swap1\n      pop\n        /* \"#utility.yul\":18338:18347   */\n      dup2\n        /* \"#utility.yul\":18332:18336   */\n      dup2\n        /* \"#utility.yul\":18328:18348   */\n      sub\n        /* \"#utility.yul\":18324:18325   */\n      0x00\n        /* \"#utility.yul\":18313:18322   */\n      dup4\n        /* \"#utility.yul\":18309:18326   */\n      add\n        /* \"#utility.yul\":18302:18349   */\n      mstore\n        /* \"#utility.yul\":18366:18497   */\n      tag_391\n        /* \"#utility.yul\":18492:18496   */\n      dup2\n        /* \"#utility.yul\":18366:18497   */\n      tag_219\n      jump\t// in\n    tag_391:\n        /* \"#utility.yul\":18358:18497   */\n      swap1\n      pop\n        /* \"#utility.yul\":18085:18504   */\n      swap2\n      swap1\n      pop\n      jump\t// out\n        /* \"#utility.yul\":18510:18680   */\n    tag_220:\n        /* \"#utility.yul\":18650:18672   */\n      0x496e73756666696369656e742062616c616e6365000000000000000000000000\n        /* \"#utility.yul\":18646:18647   */\n      0x00\n        /* \"#utility.yul\":18638:18644   */\n      dup3\n        /* \"#utility.yul\":18634:18648   */\n      add\n        /* \"#utility.yul\":18627:18673   */\n      mstore\n        /* \"#utility.yul\":18510:18680   */\n      pop\n      jump\t// out\n        /* \"#utility.yul\":18686:19052   */\n    tag_221:\n        /* \"#utility.yul\":18828:18831   */\n      0x00\n        /* \"#utility.yul\":18849:18916   */\n      tag_394\n        /* \"#utility.yul\":18913:18915   */\n      0x14\n        /* \"#utility.yul\":18908:18911   */\n      dup4\n        /* \"#utility.yul\":18849:18916   */\n      tag_202\n      jump\t// in\n    tag_394:\n        /* \"#utility.yul\":18842:18916   */\n      swap2\n      pop\n        /* \"#utility.yul\":18925:19018   */\n      tag_395\n        /* \"#utility.yul\":19014:19017   */\n      dup3\n        /* \"#utility.yul\":18925:19018   */\n      tag_220\n      jump\t// in\n    tag_395:\n        /* \"#utility.yul\":19043:19045   */\n      0x20\n        /* \"#utility.yul\":19038:19041   */\n      dup3\n        /* \"#utility.yul\":19034:19046   */\n      add\n        /* \"#utility.yul\":19027:19046   */\n      swap1\n      pop\n        /* \"#utility.yul\":18686:19052   */\n      swap2\n      swap1\n      pop\n      jump\t// out\n        /* \"#utility.yul\":19058:19477   */\n    tag_115:\n        /* \"#utility.yul\":19224:19228   */\n      0x00\n        /* \"#utility.yul\":19262:19264   */\n      0x20\n        /* \"#utility.yul\":19251:19260   */\n      dup3\n        /* \"#utility.yul\":19247:19265   */\n      add\n        /* \"#utility.yul\":19239:19265   */\n      swap1\n      pop\n        /* \"#utility.yul\":19311:19320   */\n      dup2\n        /* \"#utility.yul\":19305:19309   */\n      dup2\n        /* \"#utility.yul\":19301:19321   */\n      sub\n        /* \"#utility.yul\":19297:19298   */\n      0x00\n        /* \"#utility.yul\":19286:19295   */\n      dup4\n        /* \"#utility.yul\":19282:19299   */\n      add\n        /* \"#utility.yul\":19275:19322   */\n      mstore\n        /* \"#utility.yul\":19339:19470   */\n      tag_397\n        /* \"#utility.yul\":19465:19469   */\n      dup2\n        /* \"#utility.yul\":19339:19470   */\n      tag_221\n      jump\t// in\n    tag_397:\n        /* \"#utility.yul\":19331:19470   */\n      swap1\n      pop\n        /* \"#utility.yul\":19058:19477   */\n      swap2\n      swap1\n      pop\n      jump\t// out\n        /* \"#utility.yul\":19483:19803   */\n    tag_119:\n        /* \"#utility.yul\":19598:19602   */\n      0x00\n        /* \"#utility.yul\":19636:19638   */\n      0x40\n        /* \"#utility.yul\":19625:19634   */\n      dup3\n        /* \"#utility.yul\":19621:19639   */\n      add\n        /* \"#utility.yul\":19613:19639   */\n      swap1\n      pop\n        /* \"#utility.yul\":19649:19720   */\n      tag_399\n        /* \"#utility.yul\":19717:19718   */\n      0x00\n        /* \"#utility.yul\":19706:19715   */\n      dup4\n        /* \"#utility.yul\":19702:19719   */\n      add\n        /* \"#utility.yul\":19693:19699   */\n      dup6\n        /* \"#utility.yul\":19649:19720   */\n      tag_167\n      jump\t// in\n    tag_399:\n        /* \"#utility.yul\":19730:19796   */\n      tag_400\n        /* \"#utility.yul\":19792:19794   */\n      0x20\n        /* \"#utility.yul\":19781:19790   */\n      dup4\n        /* \"#utility.yul\":19777:19795   */\n      add\n        /* \"#utility.yul\":19768:19774   */\n      dup5\n        /* \"#utility.yul\":19730:19796   */\n      tag_174\n      jump\t// in\n    tag_400:\n        /* \"#utility.yul\":19483:19803   */\n      swap4\n      swap3\n      pop\n      pop\n      pop\n      jump\t// out\n        /* \"#utility.yul\":19809:19989   */\n    tag_127:\n        /* \"#utility.yul\":19857:19934   */\n      0x4e487b7100000000000000000000000000000000000000000000000000000000\n        /* \"#utility.yul\":19854:19855   */\n      0x00\n        /* \"#utility.yul\":19847:19935   */\n      mstore\n        /* \"#utility.yul\":19954:19958   */\n      0x41\n        /* \"#utility.yul\":19951:19952   */\n      0x04\n        /* \"#utility.yul\":19944:19959   */\n      mstore\n        /* \"#utility.yul\":19978:19982   */\n      0x24\n        /* \"#utility.yul\":19975:19976   */\n      0x00\n        /* \"#utility.yul\":19968:19983   */\n      revert\n        /* \"#utility.yul\":19995:20074   */\n    tag_222:\n        /* \"#utility.yul\":20034:20041   */\n      0x00\n        /* \"#utility.yul\":20063:20068   */\n      dup2\n        /* \"#utility.yul\":20052:20068   */\n      swap1\n      pop\n        /* \"#utility.yul\":19995:20074   */\n      swap2\n      swap1\n      pop\n      jump\t// out\n        /* \"#utility.yul\":20080:20237   */\n    tag_223:\n        /* \"#utility.yul\":20185:20230   */\n      tag_404\n        /* \"#utility.yul\":20205:20229   */\n      tag_405\n        /* \"#utility.yul\":20223:20228   */\n      dup3\n        /* \"#utility.yul\":20205:20229   */\n      tag_166\n      jump\t// in\n    tag_405:\n        /* \"#utility.yul\":20185:20230   */\n      tag_222\n      jump\t// in\n    tag_404:\n        /* \"#utility.yul\":20180:20183   */\n      dup3\n        /* \"#utility.yul\":20173:20231   */\n      mstore\n        /* \"#utility.yul\":20080:20237   */\n      pop\n      pop\n      jump\t// out\n        /* \"#utility.yul\":20243:20640   */\n    tag_147:\n        /* \"#utility.yul\":20383:20386   */\n      0x00\n        /* \"#utility.yul\":20398:20473   */\n      tag_407\n        /* \"#utility.yul\":20469:20472   */\n      dup3\n        /* \"#utility.yul\":20460:20466   */\n      dup6\n        /* \"#utility.yul\":20398:20473   */\n      tag_223\n      jump\t// in\n    tag_407:\n        /* \"#utility.yul\":20498:20500   */\n      0x20\n        /* \"#utility.yul\":20493:20496   */\n      dup3\n        /* \"#utility.yul\":20489:20501   */\n      add\n        /* \"#utility.yul\":20482:20501   */\n      swap2\n      pop\n        /* \"#utility.yul\":20511:20586   */\n      tag_408\n        /* \"#utility.yul\":20582:20585   */\n      dup3\n        /* \"#utility.yul\":20573:20579   */\n      dup5\n        /* \"#utility.yul\":20511:20586   */\n      tag_223\n      jump\t// in\n    tag_408:\n        /* \"#utility.yul\":20611:20613   */\n      0x20\n        /* \"#utility.yul\":20606:20609   */\n      dup3\n        /* \"#utility.yul\":20602:20614   */\n      add\n        /* \"#utility.yul\":20595:20614   */\n      swap2\n      pop\n        /* \"#utility.yul\":20631:20634   */\n      dup2\n        /* \"#utility.yul\":20624:20634   */\n      swap1\n      pop\n        /* \"#utility.yul\":20243:20640   */\n      swap4\n      swap3\n      pop\n      pop\n      pop\n      jump\t// out\n        /* \"#utility.yul\":20646:20826   */\n    tag_224:\n        /* \"#utility.yul\":20694:20771   */\n      0x4e487b7100000000000000000000000000000000000000000000000000000000\n        /* \"#utility.yul\":20691:20692   */\n      0x00\n        /* \"#utility.yul\":20684:20772   */\n      mstore\n        /* \"#utility.yul\":20791:20795   */\n      0x12\n        /* \"#utility.yul\":20788:20789   */\n      0x04\n        /* \"#utility.yul\":20781:20796   */\n      mstore\n        /* \"#utility.yul\":20815:20819   */\n      0x24\n        /* \"#utility.yul\":20812:20813   */\n      0x00\n        /* \"#utility.yul\":20805:20820   */\n      revert\n        /* \"#utility.yul\":20832:21008   */\n    tag_149:\n        /* \"#utility.yul\":20864:20865   */\n      0x00\n        /* \"#utility.yul\":20881:20901   */\n      tag_411\n        /* \"#utility.yul\":20899:20900   */\n      dup3\n        /* \"#utility.yul\":20881:20901   */\n      tag_166\n      jump\t// in\n    tag_411:\n        /* \"#utility.yul\":20876:20901   */\n      swap2\n      pop\n        /* \"#utility.yul\":20915:20935   */\n      tag_412\n        /* \"#utility.yul\":20933:20934   */\n      dup4\n        /* \"#utility.yul\":20915:20935   */\n      tag_166\n      jump\t// in\n    tag_412:\n        /* \"#utility.yul\":20910:20935   */\n      swap3\n      pop\n        /* \"#utility.yul\":20954:20955   */\n      dup3\n        /* \"#utility.yul\":20944:20979   */\n      tag_413\n      jumpi\n        /* \"#utility.yul\":20959:20977   */\n      tag_414\n      tag_224\n      jump\t// in\n    tag_414:\n        /* \"#utility.yul\":20944:20979   */\n    tag_413:\n        /* \"#utility.yul\":21000:21001   */\n      dup3\n        /* \"#utility.yul\":20997:20998   */\n      dup3\n        /* \"#utility.yul\":20993:21002   */\n      mod\n        /* \"#utility.yul\":20988:21002   */\n      swap1\n      pop\n        /* \"#utility.yul\":20832:21008   */\n      swap3\n      swap2\n      pop\n      pop\n      jump\t// out\n\n    auxdata: 0xa2646970667358221220c3f6e48defa2b6e5a429858bad5ae8b95a30dd1e6c3e7106848e2e71453c577764736f6c63430008180033\n}\n",
    "bytecode": {
      "linkReferences": {},
      "object": "60806040525f60055f6101000a81548160ff021916908315150217905550655af3107a4000341015610066576040517f08c379a000000000000000000000000000000000000000000000000000000000815260040161005d9061012a565b60405180910390fd5b335f806101000a81548173ffffffffffffffffffffffffffffffffffffffff021916908373ffffffffffffffffffffffffffffffffffffffff160217905550610148565b5f82825260208201905092915050565b7f496e697469616c2062616c616e6365206d7573742062652067726561746572205f8201527f7468616e206f7220657175616c20746f20302e30303031206574686572000000602082015250565b5f610114603d836100aa565b915061011f826100ba565b604082019050919050565b5f6020820190508181035f83015261014181610108565b9050919050565b61167180620001565f395ff3fe608060405260043610610090575f3560e01c8063912475ba11610058578063912475ba14610144578063a426134c14610180578063a6afd5fd146101be578063cf9e474b146101e8578063fe5e18531461021257610090565b806311da60b41461009457806312065fe0146100aa578063523afb0d146100d45780637b352962146100f05780638da5cb5b1461011a575b5f80fd5b34801561009f575f80fd5b506100a861023c565b005b3480156100b5575f80fd5b506100be610597565b6040516100cb9190610cd5565b60405180910390f35b6100ee60048036038101906100e99190610d27565b61059e565b005b3480156100fb575f80fd5b50610104610821565b6040516101119190610d61565b60405180910390f35b348015610125575f80fd5b5061012e610833565b60405161013b9190610db9565b60405180910390f35b34801561014f575f80fd5b5061016a60048036038101906101659190610dfc565b610856565b6040516101779190610cd5565b60405180910390f35b34801561018b575f80fd5b506101a660048036038101906101a19190610e27565b61086f565b6040516101b593929190610e65565b60405180910390f35b3480156101c9575f80fd5b506101d26108da565b6040516101df919061106a565b60405180910390f35b3480156101f3575f80fd5b506101fc610b33565b6040516102099190611120565b60405180910390f35b34801561021d575f80fd5b50610226610b7e565b6040516102339190610cd5565b60405180910390f35b60055f9054906101000a900460ff161561028b576040517f08c379a000000000000000000000000000000000000000000000000000000000815260040161028290611193565b60405180910390fd5b5f8054906101000a900473ffffffffffffffffffffffffffffffffffffffff1673ffffffffffffffffffffffffffffffffffffffff163373ffffffffffffffffffffffffffffffffffffffff1614610318576040517f08c379a000000000000000000000000000000000000000000000000000000000815260040161030f906111fb565b60405180910390fd5b610320610b84565b7f943860afe0a477977948578dcf8bc788b9c3e536aab1e87a63c1ae5fffc7836e600160405161035091906112d4565b60405180910390a15f600a60016002600381106103705761036f6112ed565b5b015460018060038110610386576103856112ed565b5b015460015f6003811061039c5761039b6112ed565b5b01546103a89190611347565b6103b29190611347565b1190505f60065f831515151581526020019081526020015f20805480602002602001604051908101604052809291908181526020015f905b82821015610492578382905f5260205f2090600302016040518060600160405290815f82015f9054906101000a900473ffffffffffffffffffffffffffffffffffffffff1673ffffffffffffffffffffffffffffffffffffffff1673ffffffffffffffffffffffffffffffffffffffff16815260200160018201548152602001600282015f9054906101000a900460ff161515151581525050815260200190600101906103ea565b5050505090505f5b8151811015610540575f60028383815181106104b9576104b86112ed565b5b6020026020010151602001516104cf919061137a565b90508282815181106104e4576104e36112ed565b5b60200260200101515f015173ffffffffffffffffffffffffffffffffffffffff166108fc8290811502906040515f60405180830381858888f19350505050158015610531573d5f803e3d5ffd5b5050808060010191505061049a565b50600160055f6101000a81548160ff0219169083151502179055507f943860afe0a477977948578dcf8bc788b9c3e536aab1e87a63c1ae5fffc7836e600160405161058b91906112d4565b60405180910390a15050565b5f47905090565b60055f9054906101000a900460ff16156105ed576040517f08c379a00000000000000000000000000000000000000000000000000000000081526004016105e490611193565b60405180910390fd5b5f341161062f576040517f08c379a00000000000000000000000000000000000000000000000000000000081526004016106269061142b565b60405180910390fd5b6509184e72a000341115610678576040517f08c379a000000000000000000000000000000000000000000000000000000000815260040161066f906114b9565b60405180910390fd5b476002600454346106899190611347565b610693919061137a565b11156106d4576040517f08c379a00000000000000000000000000000000000000000000000000000000081526004016106cb90611521565b60405180910390fd5b5f60405180606001604052803373ffffffffffffffffffffffffffffffffffffffff168152602001348152602001831515815250905060065f831515151581526020019081526020015f2081908060018154018082558091505060019003905f5260205f2090600302015f909190919091505f820151815f015f6101000a81548173ffffffffffffffffffffffffffffffffffffffff021916908373ffffffffffffffffffffffffffffffffffffffff160217905550602082015181600101556040820151816002015f6101000a81548160ff02191690831515021790555050503460045f8282546107c69190611347565b925050819055503373ffffffffffffffffffffffffffffffffffffffff167f477d915218fdc4a8bacd6aa7f5dc8a290db82eca8b772aa20218792c2288abbd348460405161081592919061153f565b60405180910390a25050565b60055f9054906101000a900460ff1681565b5f8054906101000a900473ffffffffffffffffffffffffffffffffffffffff1681565b60018160038110610865575f80fd5b015f915090505481565b6006602052815f5260405f208181548110610888575f80fd5b905f5260205f2090600302015f9150915050805f015f9054906101000a900473ffffffffffffffffffffffffffffffffffffffff1690806001015490806002015f9054906101000a900460ff16905083565b60605f600267ffffffffffffffff8111156108f8576108f7611566565b5b60405190808252806020026020018201604052801561092b57816020015b60608152602001906001900390816109165790505b50905060065f801515151581526020019081526020015f20805480602002602001604051908101604052809291908181526020015f905b82821015610a0a578382905f5260205f2090600302016040518060600160405290815f82015f9054906101000a900473ffffffffffffffffffffffffffffffffffffffff1673ffffffffffffffffffffffffffffffffffffffff1673ffffffffffffffffffffffffffffffffffffffff16815260200160018201548152602001600282015f9054906101000a900460ff16151515158152505081526020019060010190610962565b50505050815f81518110610a2157610a206112ed565b5b602002602001018190525060065f60011515151581526020019081526020015f20805480602002602001604051908101604052809291908181526020015f905b82821015610b09578382905f5260205f2090600302016040518060600160405290815f82015f9054906101000a900473ffffffffffffffffffffffffffffffffffffffff1673ffffffffffffffffffffffffffffffffffffffff1673ffffffffffffffffffffffffffffffffffffffff16815260200160018201548152602001600282015f9054906101000a900460ff16151515158152505081526020019060010190610a61565b5050505081600181518110610b2157610b206112ed565b5b60200260200101819052508091505090565b610b3b610c9b565b6001600380602002604051908101604052809291908260038015610b74576020028201915b815481526020019060010190808311610b60575b5050505050905090565b60045481565b600160064244604051602001610b9b9291906115b3565b604051602081830303815290604052805190602001205f1c610bbd919061160b565b610bc79190611347565b60015f60038110610bdb57610bda6112ed565b5b0181905550600160064244604051602001610bf79291906115b3565b604051602081830303815290604052805190602001205f1c610c19919061160b565b610c239190611347565b60018060038110610c3757610c366112ed565b5b0181905550600160064244604051602001610c539291906115b3565b604051602081830303815290604052805190602001205f1c610c75919061160b565b610c7f9190611347565b6001600260038110610c9457610c936112ed565b5b0181905550565b6040518060600160405280600390602082028036833780820191505090505090565b5f819050919050565b610ccf81610cbd565b82525050565b5f602082019050610ce85f830184610cc6565b92915050565b5f80fd5b5f8115159050919050565b610d0681610cf2565b8114610d10575f80fd5b50565b5f81359050610d2181610cfd565b92915050565b5f60208284031215610d3c57610d3b610cee565b5b5f610d4984828501610d13565b91505092915050565b610d5b81610cf2565b82525050565b5f602082019050610d745f830184610d52565b92915050565b5f73ffffffffffffffffffffffffffffffffffffffff82169050919050565b5f610da382610d7a565b9050919050565b610db381610d99565b82525050565b5f602082019050610dcc5f830184610daa565b92915050565b610ddb81610cbd565b8114610de5575f80fd5b50565b5f81359050610df681610dd2565b92915050565b5f60208284031215610e1157610e10610cee565b5b5f610e1e84828501610de8565b91505092915050565b5f8060408385031215610e3d57610e3c610cee565b5b5f610e4a85828601610d13565b9250506020610e5b85828601610de8565b9150509250929050565b5f606082019050610e785f830186610daa565b610e856020830185610cc6565b610e926040830184610d52565b949350505050565b5f81519050919050565b5f82825260208201905092915050565b5f819050602082019050919050565b5f81519050919050565b5f82825260208201905092915050565b5f819050602082019050919050565b610ef581610d99565b82525050565b610f0481610cbd565b82525050565b610f1381610cf2565b82525050565b606082015f820151610f2d5f850182610eec565b506020820151610f406020850182610efb565b506040820151610f536040850182610f0a565b50505050565b5f610f648383610f19565b60608301905092915050565b5f602082019050919050565b5f610f8682610ec3565b610f908185610ecd565b9350610f9b83610edd565b805f5b83811015610fcb578151610fb28882610f59565b9750610fbd83610f70565b925050600181019050610f9e565b5085935050505092915050565b5f610fe38383610f7c565b905092915050565b5f602082019050919050565b5f61100182610e9a565b61100b8185610ea4565b93508360208202850161101d85610eb4565b805f5b8581101561105857848403895281516110398582610fd8565b945061104483610feb565b925060208a01995050600181019050611020565b50829750879550505050505092915050565b5f6020820190508181035f8301526110828184610ff7565b905092915050565b5f60039050919050565b5f81905092915050565b5f819050919050565b5f6110b28383610efb565b60208301905092915050565b5f602082019050919050565b6110d38161108a565b6110dd8184611094565b92506110e88261109e565b805f5b838110156111185781516110ff87826110a7565b965061110a836110be565b9250506001810190506110eb565b505050505050565b5f6060820190506111335f8301846110ca565b92915050565b5f82825260208201905092915050565b7f47616d652069732066696e6973686564000000000000000000000000000000005f82015250565b5f61117d601083611139565b915061118882611149565b602082019050919050565b5f6020820190508181035f8301526111aa81611171565b9050919050565b7f4f6e6c79206f776e65722063616e20736574746c65207468652067616d6500005f82015250565b5f6111e5601e83611139565b91506111f0826111b1565b602082019050919050565b5f6020820190508181035f830152611212816111d9565b9050919050565b5f60039050919050565b5f819050919050565b5f815f1c9050919050565b5f819050919050565b5f61125261124d8361122c565b611237565b9050919050565b5f6112648254611240565b9050919050565b5f600182019050919050565b61128081611219565b61128a8184611094565b925061129582611223565b805f5b838110156112cc576112a982611259565b6112b387826110a7565b96506112be8361126b565b925050600181019050611298565b505050505050565b5f6060820190506112e75f830184611277565b92915050565b7f4e487b71000000000000000000000000000000000000000000000000000000005f52603260045260245ffd5b7f4e487b71000000000000000000000000000000000000000000000000000000005f52601160045260245ffd5b5f61135182610cbd565b915061135c83610cbd565b92508282019050808211156113745761137361131a565b5b92915050565b5f61138482610cbd565b915061138f83610cbd565b925082820261139d81610cbd565b915082820484148315176113b4576113b361131a565b5b5092915050565b7f42657420616d6f756e74206d7573742062652067726561746572207468616e205f8201527f3000000000000000000000000000000000000000000000000000000000000000602082015250565b5f611415602183611139565b9150611420826113bb565b604082019050919050565b5f6020820190508181035f83015261144281611409565b9050919050565b7f42657420616d6f756e74206d757374206265206c657373207468616e206f72205f8201527f657175616c20746f20302e303030303120657468657200000000000000000000602082015250565b5f6114a3603683611139565b91506114ae82611449565b604082019050919050565b5f6020820190508181035f8301526114d081611497565b9050919050565b7f496e73756666696369656e742062616c616e63650000000000000000000000005f82015250565b5f61150b601483611139565b9150611516826114d7565b602082019050919050565b5f6020820190508181035f830152611538816114ff565b9050919050565b5f6040820190506115525f830185610cc6565b61155f6020830184610d52565b9392505050565b7f4e487b71000000000000000000000000000000000000000000000000000000005f52604160045260245ffd5b5f819050919050565b6115ad6115a882610cbd565b611593565b82525050565b5f6115be828561159c565b6020820191506115ce828461159c565b6020820191508190509392505050565b7f4e487b71000000000000000000000000000000000000000000000000000000005f52601260045260245ffd5b5f61161582610cbd565b915061162083610cbd565b9250826116305761162f6115de565b5b82820690509291505056fea2646970667358221220c3f6e48defa2b6e5a429858bad5ae8b95a30dd1e6c3e7106848e2e71453c577764736f6c63430008180033",
      "opcodes": "PUSH1 0x80 PUSH1 0x40 MSTORE PUSH0 PUSH1 0x5 PUSH0 PUSH2 0x100 EXP DUP2 SLOAD DUP2 PUSH1 0xFF MUL NOT AND SWAP1 DUP4 ISZERO ISZERO MUL OR SWAP1 SSTORE POP PUSH6 0x5AF3107A4000 CALLVALUE LT ISZERO PUSH2 0x66 JUMPI PUSH1 0x40 MLOAD PUSH32 0x8C379A000000000000000000000000000000000000000000000000000000000 DUP2 MSTORE PUSH1 0x4 ADD PUSH2 0x5D SWAP1 PUSH2 0x12A JUMP JUMPDEST PUSH1 0x40 MLOAD DUP1 SWAP2 SUB SWAP1 REVERT JUMPDEST CALLER PUSH0 DUP1 PUSH2 0x100 EXP DUP2 SLOAD DUP2 PUSH20 0xFFFFFFFFFFFFFFFFFFFFFFFFFFFFFFFFFFFFFFFF MUL NOT AND SWAP1 DUP4 PUSH20 0xFFFFFFFFFFFFFFFFFFFFFFFFFFFFFFFFFFFFFFFF AND MUL OR SWAP1 SSTORE POP PUSH2 0x148 JUMP JUMPDEST PUSH0 DUP3 DUP3 MSTORE PUSH1 0x20 DUP3 ADD SWAP1 POP SWAP3 SWAP2 POP POP JUMP JUMPDEST PUSH32 0x496E697469616C2062616C616E6365206D757374206265206772656174657220 PUSH0 DUP3 ADD MSTORE PUSH32 0x7468616E206F7220657175616C20746F20302E30303031206574686572000000 PUSH1 0x20 DUP3 ADD MSTORE POP JUMP JUMPDEST PUSH0 PUSH2 0x114 PUSH1 0x3D DUP4 PUSH2 0xAA JUMP JUMPDEST SWAP2 POP PUSH2 0x11F DUP3 PUSH2 0xBA JUMP JUMPDEST PUSH1 0x40 DUP3 ADD SWAP1 POP SWAP2 SWAP1 POP JUMP JUMPDEST PUSH0 PUSH1 0x20 DUP3 ADD SWAP1 POP DUP2 DUP2 SUB PUSH0 DUP4 ADD MSTORE PUSH2 0x141 DUP2 PUSH2 0x108 JUMP JUMPDEST SWAP1 POP SWAP2 SWAP1 POP JUMP JUMPDEST PUSH2 0x1671 DUP1 PUSH3 0x156 PUSH0 CODECOPY PUSH0 RETURN INVALID PUSH1 0x80 PUSH1 0x40 MSTORE PUSH1 0x4 CALLDATASIZE LT PUSH2 0x90 JUMPI PUSH0 CALLDATALOAD PUSH1 0xE0 SHR DUP1 PUSH4 0x912475BA GT PUSH2 0x58 JUMPI DUP1 PUSH4 0x912475BA EQ PUSH2 0x144 JUMPI DUP1 PUSH4 0xA426134C EQ PUSH2 0x180 JUMPI DUP1 PUSH4 0xA6AFD5FD EQ PUSH2 0x1BE JUMPI DUP1 PUSH4 0xCF9E474B EQ PUSH2 0x1E8 JUMPI DUP1 PUSH4 0xFE5E1853 EQ PUSH2 0x212 JUMPI PUSH2 0x90 JUMP JUMPDEST DUP1 PUSH4 0x11DA60B4 EQ PUSH2 0x94 JUMPI DUP1 PUSH4 0x12065FE0 EQ PUSH2 0xAA JUMPI DUP1 PUSH4 0x523AFB0D EQ PUSH2 0xD4 JUMPI DUP1 PUSH4 0x7B352962 EQ PUSH2 0xF0 JUMPI DUP1 PUSH4 0x8DA5CB5B EQ PUSH2 0x11A JUMPI JUMPDEST PUSH0 DUP1 REVERT JUMPDEST CALLVALUE DUP1 ISZERO PUSH2 0x9F JUMPI PUSH0 DUP1 REVERT JUMPDEST POP PUSH2 0xA8 PUSH2 0x23C JUMP JUMPDEST STOP JUMPDEST CALLVALUE DUP1 ISZERO PUSH2 0xB5 JUMPI PUSH0 DUP1 REVERT JUMPDEST POP PUSH2 0xBE PUSH2 0x597 JUMP JUMPDEST PUSH1 0x40 MLOAD PUSH2 0xCB SWAP2 SWAP1 PUSH2 0xCD5 JUMP JUMPDEST PUSH1 0x40 MLOAD DUP1 SWAP2 SUB SWAP1 RETURN JUMPDEST PUSH2 0xEE PUSH1 0x4 DUP1 CALLDATASIZE SUB DUP2 ADD SWAP1 PUSH2 0xE9 SWAP2 SWAP1 PUSH2 0xD27 JUMP JUMPDEST PUSH2 0x59E JUMP JUMPDEST STOP JUMPDEST CALLVALUE DUP1 ISZERO PUSH2 0xFB JUMPI PUSH0 DUP1 REVERT JUMPDEST POP PUSH2 0x104 PUSH2 0x821 JUMP JUMPDEST PUSH1 0x40 MLOAD PUSH2 0x111 SWAP2 SWAP1 PUSH2 0xD61 JUMP JUMPDEST PUSH1 0x40 MLOAD DUP1 SWAP2 SUB SWAP1 RETURN JUMPDEST CALLVALUE DUP1 ISZERO PUSH2 0x125 JUMPI PUSH0 DUP1 REVERT JUMPDEST POP PUSH2 0x12E PUSH2 0x833 JUMP JUMPDEST PUSH1 0x40 MLOAD PUSH2 0x13B SWAP2 SWAP1 PUSH2 0xDB9 JUMP JUMPDEST PUSH1 0x40 MLOAD DUP1 SWAP2 SUB SWAP1 RETURN JUMPDEST CALLVALUE DUP1 ISZERO PUSH2 0x14F JUMPI PUSH0 DUP1 REVERT JUMPDEST POP PUSH2 0x16A PUSH1 0x4 DUP1 CALLDATASIZE SUB DUP2 ADD SWAP1 PUSH2 0x165 SWAP2 SWAP1 PUSH2 0xDFC JUMP JUMPDEST PUSH2 0x856 JUMP JUMPDEST PUSH1 0x40 MLOAD PUSH2 0x177 SWAP2 SWAP1 PUSH2 0xCD5 JUMP JUMPDEST PUSH1 0x40 MLOAD DUP1 SWAP2 SUB SWAP1 RETURN JUMPDEST CALLVALUE DUP1 ISZERO PUSH2 0x18B JUMPI PUSH0 DUP1 REVERT JUMPDEST POP PUSH2 0x1A6 PUSH1 0x4 DUP1 CALLDATASIZE SUB DUP2 ADD SWAP1 PUSH2 0x1A1 SWAP2 SWAP1 PUSH2 0xE27 JUMP JUMPDEST PUSH2 0x86F JUMP JUMPDEST PUSH1 0x40 MLOAD PUSH2 0x1B5 SWAP4 SWAP3 SWAP2 SWAP1 PUSH2 0xE65 JUMP JUMPDEST PUSH1 0x40 MLOAD DUP1 SWAP2 SUB SWAP1 RETURN JUMPDEST CALLVALUE DUP1 ISZERO PUSH2 0x1C9 JUMPI PUSH0 DUP1 REVERT JUMPDEST POP PUSH2 0x1D2 PUSH2 0x8DA JUMP JUMPDEST PUSH1 0x40 MLOAD PUSH2 0x1DF SWAP2 SWAP1 PUSH2 0x106A JUMP JUMPDEST PUSH1 0x40 MLOAD DUP1 SWAP2 SUB SWAP1 RETURN JUMPDEST CALLVALUE DUP1 ISZERO PUSH2 0x1F3 JUMPI PUSH0 DUP1 REVERT JUMPDEST POP PUSH2 0x1FC PUSH2 0xB33 JUMP JUMPDEST PUSH1 0x40 MLOAD PUSH2 0x209 SWAP2 SWAP1 PUSH2 0x1120 JUMP JUMPDEST PUSH1 0x40 MLOAD DUP1 SWAP2 SUB SWAP1 RETURN JUMPDEST CALLVALUE DUP1 ISZERO PUSH2 0x21D JUMPI PUSH0 DUP1 REVERT JUMPDEST POP PUSH2 0x226 PUSH2 0xB7E JUMP JUMPDEST PUSH1 0x40 MLOAD PUSH2 0x233 SWAP2 SWAP1 PUSH2 0xCD5 JUMP JUMPDEST PUSH1 0x40 MLOAD DUP1 SWAP2 SUB SWAP1 RETURN JUMPDEST PUSH1 0x5 PUSH0 SWAP1 SLOAD SWAP1 PUSH2 0x100 EXP SWAP1 DIV PUSH1 0xFF AND ISZERO PUSH2 0x28B JUMPI PUSH1 0x40 MLOAD PUSH32 0x8C379A000000000000000000000000000000000000000000000000000000000 DUP2 MSTORE PUSH1 0x4 ADD PUSH2 0x282 SWAP1 PUSH2 0x1193 JUMP JUMPDEST PUSH1 0x40 MLOAD DUP1 SWAP2 SUB SWAP1 REVERT JUMPDEST PUSH0 DUP1 SLOAD SWAP1 PUSH2 0x100 EXP SWAP1 DIV PUSH20 0xFFFFFFFFFFFFFFFFFFFFFFFFFFFFFFFFFFFFFFFF AND PUSH20 0xFFFFFFFFFFFFFFFFFFFFFFFFFFFFFFFFFFFFFFFF AND CALLER PUSH20 0xFFFFFFFFFFFFFFFFFFFFFFFFFFFFFFFFFFFFFFFF AND EQ PUSH2 0x318 JUMPI PUSH1 0x40 MLOAD PUSH32 0x8C379A000000000000000000000000000000000000000000000000000000000 DUP2 MSTORE PUSH1 0x4 ADD PUSH2 0x30F SWAP1 PUSH2 0x11FB JUMP JUMPDEST PUSH1 0x40 MLOAD DUP1 SWAP2 SUB SWAP1 REVERT JUMPDEST PUSH2 0x320 PUSH2 0xB84 JUMP JUMPDEST PUSH32 0x943860AFE0A477977948578DCF8BC788B9C3E536AAB1E87A63C1AE5FFFC7836E PUSH1 0x1 PUSH1 0x40 MLOAD PUSH2 0x350 SWAP2 SWAP1 PUSH2 0x12D4 JUMP JUMPDEST PUSH1 0x40 MLOAD DUP1 SWAP2 SUB SWAP1 LOG1 PUSH0 PUSH1 0xA PUSH1 0x1 PUSH1 0x2 PUSH1 0x3 DUP2 LT PUSH2 0x370 JUMPI PUSH2 0x36F PUSH2 0x12ED JUMP JUMPDEST JUMPDEST ADD SLOAD PUSH1 0x1 DUP1 PUSH1 0x3 DUP2 LT PUSH2 0x386 JUMPI PUSH2 0x385 PUSH2 0x12ED JUMP JUMPDEST JUMPDEST ADD SLOAD PUSH1 0x1 PUSH0 PUSH1 0x3 DUP2 LT PUSH2 0x39C JUMPI PUSH2 0x39B PUSH2 0x12ED JUMP JUMPDEST JUMPDEST ADD SLOAD PUSH2 0x3A8 SWAP2 SWAP1 PUSH2 0x1347 JUMP JUMPDEST PUSH2 0x3B2 SWAP2 SWAP1 PUSH2 0x1347 JUMP JUMPDEST GT SWAP1 POP PUSH0 PUSH1 0x6 PUSH0 DUP4 ISZERO ISZERO ISZERO ISZERO DUP2 MSTORE PUSH1 0x20 ADD SWAP1 DUP2 MSTORE PUSH1 0x20 ADD PUSH0 KECCAK256 DUP1 SLOAD DUP1 PUSH1 0x20 MUL PUSH1 0x20 ADD PUSH1 0x40 MLOAD SWAP1 DUP2 ADD PUSH1 0x40 MSTORE DUP1 SWAP3 SWAP2 SWAP1 DUP2 DUP2 MSTORE PUSH1 0x20 ADD PUSH0 SWAP1 JUMPDEST DUP3 DUP3 LT ISZERO PUSH2 0x492 JUMPI DUP4 DUP3 SWAP1 PUSH0 MSTORE PUSH1 0x20 PUSH0 KECCAK256 SWAP1 PUSH1 0x3 MUL ADD PUSH1 0x40 MLOAD DUP1 PUSH1 0x60 ADD PUSH1 0x40 MSTORE SWAP1 DUP2 PUSH0 DUP3 ADD PUSH0 SWAP1 SLOAD SWAP1 PUSH2 0x100 EXP SWAP1 DIV PUSH20 0xFFFFFFFFFFFFFFFFFFFFFFFFFFFFFFFFFFFFFFFF AND PUSH20 0xFFFFFFFFFFFFFFFFFFFFFFFFFFFFFFFFFFFFFFFF AND PUSH20 0xFFFFFFFFFFFFFFFFFFFFFFFFFFFFFFFFFFFFFFFF AND DUP2 MSTORE PUSH1 0x20 ADD PUSH1 0x1 DUP3 ADD SLOAD DUP2 MSTORE PUSH1 0x20 ADD PUSH1 0x2 DUP3 ADD PUSH0 SWAP1 SLOAD SWAP1 PUSH2 0x100 EXP SWAP1 DIV PUSH1 0xFF AND ISZERO ISZERO ISZERO ISZERO DUP2 MSTORE POP POP DUP2 MSTORE PUSH1 0x20 ADD SWAP1 PUSH1 0x1 ADD SWAP1 PUSH2 0x3EA JUMP JUMPDEST POP POP POP POP SWAP1 POP PUSH0 JUMPDEST DUP2 MLOAD DUP2 LT ISZERO PUSH2 0x540 JUMPI PUSH0 PUSH1 0x2 DUP4 DUP4 DUP2 MLOAD DUP2 LT PUSH2 0x4B9 JUMPI PUSH2 0x4B8 PUSH2 0x12ED JUMP JUMPDEST JUMPDEST PUSH1 0x20 MUL PUSH1 0x20 ADD ADD MLOAD PUSH1 0x20 ADD MLOAD PUSH2 0x4CF SWAP2 SWAP1 PUSH2 0x137A JUMP JUMPDEST SWAP1 POP DUP3 DUP3 DUP2 MLOAD DUP2 LT PUSH2 0x4E4 JUMPI PUSH2 0x4E3 PUSH2 0x12ED JUMP JUMPDEST JUMPDEST PUSH1 0x20 MUL PUSH1 0x20 ADD ADD MLOAD PUSH0 ADD MLOAD PUSH20 0xFFFFFFFFFFFFFFFFFFFFFFFFFFFFFFFFFFFFFFFF AND PUSH2 0x8FC DUP3 SWAP1 DUP2 ISZERO MUL SWAP1 PUSH1 0x40 MLOAD PUSH0 PUSH1 0x40 MLOAD DUP1 DUP4 SUB DUP2 DUP6 DUP9 DUP9 CALL SWAP4 POP POP POP POP ISZERO DUP1 ISZERO PUSH2 0x531 JUMPI RETURNDATASIZE PUSH0 DUP1 RETURNDATACOPY RETURNDATASIZE PUSH0 REVERT JUMPDEST POP POP DUP1 DUP1 PUSH1 0x1 ADD SWAP2 POP POP PUSH2 0x49A JUMP JUMPDEST POP PUSH1 0x1 PUSH1 0x5 PUSH0 PUSH2 0x100 EXP DUP2 SLOAD DUP2 PUSH1 0xFF MUL NOT AND SWAP1 DUP4 ISZERO ISZERO MUL OR SWAP1 SSTORE POP PUSH32 0x943860AFE0A477977948578DCF8BC788B9C3E536AAB1E87A63C1AE5FFFC7836E PUSH1 0x1 PUSH1 0x40 MLOAD PUSH2 0x58B SWAP2 SWAP1 PUSH2 0x12D4 JUMP JUMPDEST PUSH1 0x40 MLOAD DUP1 SWAP2 SUB SWAP1 LOG1 POP POP JUMP JUMPDEST PUSH0 SELFBALANCE SWAP1 POP SWAP1 JUMP JUMPDEST PUSH1 0x5 PUSH0 SWAP1 SLOAD SWAP1 PUSH2 0x100 EXP SWAP1 DIV PUSH1 0xFF AND ISZERO PUSH2 0x5ED JUMPI PUSH1 0x40 MLOAD PUSH32 0x8C379A000000000000000000000000000000000000000000000000000000000 DUP2 MSTORE PUSH1 0x4 ADD PUSH2 0x5E4 SWAP1 PUSH2 0x1193 JUMP JUMPDEST PUSH1 0x40 MLOAD DUP1 SWAP2 SUB SWAP1 REVERT JUMPDEST PUSH0 CALLVALUE GT PUSH2 0x62F JUMPI PUSH1 0x40 MLOAD PUSH32 0x8C379A000000000000000000000000000000000000000000000000000000000 DUP2 MSTORE PUSH1 0x4 ADD PUSH2 0x626 SWAP1 PUSH2 0x142B JUMP JUMPDEST PUSH1 0x40 MLOAD DUP1 SWAP2 SUB SWAP1 REVERT JUMPDEST PUSH6 0x9184E72A000 CALLVALUE GT ISZERO PUSH2 0x678 JUMPI PUSH1 0x40 MLOAD PUSH32 0x8C379A000000000000000000000000000000000000000000000000000000000 DUP2 MSTORE PUSH1 0x4 ADD PUSH2 0x66F SWAP1 PUSH2 0x14B9 JUMP JUMPDEST PUSH1 0x40 MLOAD DUP1 SWAP2 SUB SWAP1 REVERT JUMPDEST SELFBALANCE PUSH1 0x2 PUSH1 0x4 SLOAD CALLVALUE PUSH2 0x689 SWAP2 SWAP1 PUSH2 0x1347 JUMP JUMPDEST PUSH2 0x693 SWAP2 SWAP1 PUSH2 0x137A JUMP JUMPDEST GT ISZERO PUSH2 0x6D4 JUMPI PUSH1 0x40 MLOAD PUSH32 0x8C379A000000000000000000000000000000000000000000000000000000000 DUP2 MSTORE PUSH1 0x4 ADD PUSH2 0x6CB SWAP1 PUSH2 0x1521 JUMP JUMPDEST PUSH1 0x40 MLOAD DUP1 SWAP2 SUB SWAP1 REVERT JUMPDEST PUSH0 PUSH1 0x40 MLOAD DUP1 PUSH1 0x60 ADD PUSH1 0x40 MSTORE DUP1 CALLER PUSH20 0xFFFFFFFFFFFFFFFFFFFFFFFFFFFFFFFFFFFFFFFF AND DUP2 MSTORE PUSH1 0x20 ADD CALLVALUE DUP2 MSTORE PUSH1 0x20 ADD DUP4 ISZERO ISZERO DUP2 MSTORE POP SWAP1 POP PUSH1 0x6 PUSH0 DUP4 ISZERO ISZERO ISZERO ISZERO DUP2 MSTORE PUSH1 0x20 ADD SWAP1 DUP2 MSTORE PUSH1 0x20 ADD PUSH0 KECCAK256 DUP2 SWAP1 DUP1 PUSH1 0x1 DUP2 SLOAD ADD DUP1 DUP3 SSTORE DUP1 SWAP2 POP POP PUSH1 0x1 SWAP1 SUB SWAP1 PUSH0 MSTORE PUSH1 0x20 PUSH0 KECCAK256 SWAP1 PUSH1 0x3 MUL ADD PUSH0 SWAP1 SWAP2 SWAP1 SWAP2 SWAP1 SWAP2 POP PUSH0 DUP3 ADD MLOAD DUP2 PUSH0 ADD PUSH0 PUSH2 0x100 EXP DUP2 SLOAD DUP2 PUSH20 0xFFFFFFFFFFFFFFFFFFFFFFFFFFFFFFFFFFFFFFFF MUL NOT AND SWAP1 DUP4 PUSH20 0xFFFFFFFFFFFFFFFFFFFFFFFFFFFFFFFFFFFFFFFF AND MUL OR SWAP1 SSTORE POP PUSH1 0x20 DUP3 ADD MLOAD DUP2 PUSH1 0x1 ADD SSTORE PUSH1 0x40 DUP3 ADD MLOAD DUP2 PUSH1 0x2 ADD PUSH0 PUSH2 0x100 EXP DUP2 SLOAD DUP2 PUSH1 0xFF MUL NOT AND SWAP1 DUP4 ISZERO ISZERO MUL OR SWAP1 SSTORE POP POP POP CALLVALUE PUSH1 0x4 PUSH0 DUP3 DUP3 SLOAD PUSH2 0x7C6 SWAP2 SWAP1 PUSH2 0x1347 JUMP JUMPDEST SWAP3 POP POP DUP2 SWAP1 SSTORE POP CALLER PUSH20 0xFFFFFFFFFFFFFFFFFFFFFFFFFFFFFFFFFFFFFFFF AND PUSH32 0x477D915218FDC4A8BACD6AA7F5DC8A290DB82ECA8B772AA20218792C2288ABBD CALLVALUE DUP5 PUSH1 0x40 MLOAD PUSH2 0x815 SWAP3 SWAP2 SWAP1 PUSH2 0x153F JUMP JUMPDEST PUSH1 0x40 MLOAD DUP1 SWAP2 SUB SWAP1 LOG2 POP POP JUMP JUMPDEST PUSH1 0x5 PUSH0 SWAP1 SLOAD SWAP1 PUSH2 0x100 EXP SWAP1 DIV PUSH1 0xFF AND DUP2 JUMP JUMPDEST PUSH0 DUP1 SLOAD SWAP1 PUSH2 0x100 EXP SWAP1 DIV PUSH20 0xFFFFFFFFFFFFFFFFFFFFFFFFFFFFFFFFFFFFFFFF AND DUP2 JUMP JUMPDEST PUSH1 0x1 DUP2 PUSH1 0x3 DUP2 LT PUSH2 0x865 JUMPI PUSH0 DUP1 REVERT JUMPDEST ADD PUSH0 SWAP2 POP SWAP1 POP SLOAD DUP2 JUMP JUMPDEST PUSH1 0x6 PUSH1 0x20 MSTORE DUP2 PUSH0 MSTORE PUSH1 0x40 PUSH0 KECCAK256 DUP2 DUP2 SLOAD DUP2 LT PUSH2 0x888 JUMPI PUSH0 DUP1 REVERT JUMPDEST SWAP1 PUSH0 MSTORE PUSH1 0x20 PUSH0 KECCAK256 SWAP1 PUSH1 0x3 MUL ADD PUSH0 SWAP2 POP SWAP2 POP POP DUP1 PUSH0 ADD PUSH0 SWAP1 SLOAD SWAP1 PUSH2 0x100 EXP SWAP1 DIV PUSH20 0xFFFFFFFFFFFFFFFFFFFFFFFFFFFFFFFFFFFFFFFF AND SWAP1 DUP1 PUSH1 0x1 ADD SLOAD SWAP1 DUP1 PUSH1 0x2 ADD PUSH0 SWAP1 SLOAD SWAP1 PUSH2 0x100 EXP SWAP1 DIV PUSH1 0xFF AND SWAP1 POP DUP4 JUMP JUMPDEST PUSH1 0x60 PUSH0 PUSH1 0x2 PUSH8 0xFFFFFFFFFFFFFFFF DUP2 GT ISZERO PUSH2 0x8F8 JUMPI PUSH2 0x8F7 PUSH2 0x1566 JUMP JUMPDEST JUMPDEST PUSH1 0x40 MLOAD SWAP1 DUP1 DUP3 MSTORE DUP1 PUSH1 0x20 MUL PUSH1 0x20 ADD DUP3 ADD PUSH1 0x40 MSTORE DUP1 ISZERO PUSH2 0x92B JUMPI DUP2 PUSH1 0x20 ADD JUMPDEST PUSH1 0x60 DUP2 MSTORE PUSH1 0x20 ADD SWAP1 PUSH1 0x1 SWAP1 SUB SWAP1 DUP2 PUSH2 0x916 JUMPI SWAP1 POP JUMPDEST POP SWAP1 POP PUSH1 0x6 PUSH0 DUP1 ISZERO ISZERO ISZERO ISZERO DUP2 MSTORE PUSH1 0x20 ADD SWAP1 DUP2 MSTORE PUSH1 0x20 ADD PUSH0 KECCAK256 DUP1 SLOAD DUP1 PUSH1 0x20 MUL PUSH1 0x20 ADD PUSH1 0x40 MLOAD SWAP1 DUP2 ADD PUSH1 0x40 MSTORE DUP1 SWAP3 SWAP2 SWAP1 DUP2 DUP2 MSTORE PUSH1 0x20 ADD PUSH0 SWAP1 JUMPDEST DUP3 DUP3 LT ISZERO PUSH2 0xA0A JUMPI DUP4 DUP3 SWAP1 PUSH0 MSTORE PUSH1 0x20 PUSH0 KECCAK256 SWAP1 PUSH1 0x3 MUL ADD PUSH1 0x40 MLOAD DUP1 PUSH1 0x60 ADD PUSH1 0x40 MSTORE SWAP1 DUP2 PUSH0 DUP3 ADD PUSH0 SWAP1 SLOAD SWAP1 PUSH2 0x100 EXP SWAP1 DIV PUSH20 0xFFFFFFFFFFFFFFFFFFFFFFFFFFFFFFFFFFFFFFFF AND PUSH20 0xFFFFFFFFFFFFFFFFFFFFFFFFFFFFFFFFFFFFFFFF AND PUSH20 0xFFFFFFFFFFFFFFFFFFFFFFFFFFFFFFFFFFFFFFFF AND DUP2 MSTORE PUSH1 0x20 ADD PUSH1 0x1 DUP3 ADD SLOAD DUP2 MSTORE PUSH1 0x20 ADD PUSH1 0x2 DUP3 ADD PUSH0 SWAP1 SLOAD SWAP1 PUSH2 0x100 EXP SWAP1 DIV PUSH1 0xFF AND ISZERO ISZERO ISZERO ISZERO DUP2 MSTORE POP POP DUP2 MSTORE PUSH1 0x20 ADD SWAP1 PUSH1 0x1 ADD SWAP1 PUSH2 0x962 JUMP JUMPDEST POP POP POP POP DUP2 PUSH0 DUP2 MLOAD DUP2 LT PUSH2 0xA21 JUMPI PUSH2 0xA20 PUSH2 0x12ED JUMP JUMPDEST JUMPDEST PUSH1 0x20 MUL PUSH1 0x20 ADD ADD DUP2 SWAP1 MSTORE POP PUSH1 0x6 PUSH0 PUSH1 0x1 ISZERO ISZERO ISZERO ISZERO DUP2 MSTORE PUSH1 0x20 ADD SWAP1 DUP2 MSTORE PUSH1 0x20 ADD PUSH0 KECCAK256 DUP1 SLOAD DUP1 PUSH1 0x20 MUL PUSH1 0x20 ADD PUSH1 0x40 MLOAD SWAP1 DUP2 ADD PUSH1 0x40 MSTORE DUP1 SWAP3 SWAP2 SWAP1 DUP2 DUP2 MSTORE PUSH1 0x20 ADD PUSH0 SWAP1 JUMPDEST DUP3 DUP3 LT ISZERO PUSH2 0xB09 JUMPI DUP4 DUP3 SWAP1 PUSH0 MSTORE PUSH1 0x20 PUSH0 KECCAK256 SWAP1 PUSH1 0x3 MUL ADD PUSH1 0x40 MLOAD DUP1 PUSH1 0x60 ADD PUSH1 0x40 MSTORE SWAP1 DUP2 PUSH0 DUP3 ADD PUSH0 SWAP1 SLOAD SWAP1 PUSH2 0x100 EXP SWAP1 DIV PUSH20 0xFFFFFFFFFFFFFFFFFFFFFFFFFFFFFFFFFFFFFFFF AND PUSH20 0xFFFFFFFFFFFFFFFFFFFFFFFFFFFFFFFFFFFFFFFF AND PUSH20 0xFFFFFFFFFFFFFFFFFFFFFFFFFFFFFFFFFFFFFFFF AND DUP2 MSTORE PUSH1 0x20 ADD PUSH1 0x1 DUP3 ADD SLOAD DUP2 MSTORE PUSH1 0x20 ADD PUSH1 0x2 DUP3 ADD PUSH0 SWAP1 SLOAD SWAP1 PUSH2 0x100 EXP SWAP1 DIV PUSH1 0xFF AND ISZERO ISZERO ISZERO ISZERO DUP2 MSTORE POP POP DUP2 MSTORE PUSH1 0x20 ADD SWAP1 PUSH1 0x1 ADD SWAP1 PUSH2 0xA61 JUMP JUMPDEST POP POP POP POP DUP2 PUSH1 0x1 DUP2 MLOAD DUP2 LT PUSH2 0xB21 JUMPI PUSH2 0xB20 PUSH2 0x12ED JUMP JUMPDEST JUMPDEST PUSH1 0x20 MUL PUSH1 0x20 ADD ADD DUP2 SWAP1 MSTORE POP DUP1 SWAP2 POP POP SWAP1 JUMP JUMPDEST PUSH2 0xB3B PUSH2 0xC9B JUMP JUMPDEST PUSH1 0x1 PUSH1 0x3 DUP1 PUSH1 0x20 MUL PUSH1 0x40 MLOAD SWAP1 DUP2 ADD PUSH1 0x40 MSTORE DUP1 SWAP3 SWAP2 SWAP1 DUP3 PUSH1 0x3 DUP1 ISZERO PUSH2 0xB74 JUMPI PUSH1 0x20 MUL DUP3 ADD SWAP2 JUMPDEST DUP2 SLOAD DUP2 MSTORE PUSH1 0x20 ADD SWAP1 PUSH1 0x1 ADD SWAP1 DUP1 DUP4 GT PUSH2 0xB60 JUMPI JUMPDEST POP POP POP POP POP SWAP1 POP SWAP1 JUMP JUMPDEST PUSH1 0x4 SLOAD DUP2 JUMP JUMPDEST PUSH1 0x1 PUSH1 0x6 TIMESTAMP PREVRANDAO PUSH1 0x40 MLOAD PUSH1 0x20 ADD PUSH2 0xB9B SWAP3 SWAP2 SWAP1 PUSH2 0x15B3 JUMP JUMPDEST PUSH1 0x40 MLOAD PUSH1 0x20 DUP2 DUP4 SUB SUB DUP2 MSTORE SWAP1 PUSH1 0x40 MSTORE DUP1 MLOAD SWAP1 PUSH1 0x20 ADD KECCAK256 PUSH0 SHR PUSH2 0xBBD SWAP2 SWAP1 PUSH2 0x160B JUMP JUMPDEST PUSH2 0xBC7 SWAP2 SWAP1 PUSH2 0x1347 JUMP JUMPDEST PUSH1 0x1 PUSH0 PUSH1 0x3 DUP2 LT PUSH2 0xBDB JUMPI PUSH2 0xBDA PUSH2 0x12ED JUMP JUMPDEST JUMPDEST ADD DUP2 SWAP1 SSTORE POP PUSH1 0x1 PUSH1 0x6 TIMESTAMP PREVRANDAO PUSH1 0x40 MLOAD PUSH1 0x20 ADD PUSH2 0xBF7 SWAP3 SWAP2 SWAP1 PUSH2 0x15B3 JUMP JUMPDEST PUSH1 0x40 MLOAD PUSH1 0x20 DUP2 DUP4 SUB SUB DUP2 MSTORE SWAP1 PUSH1 0x40 MSTORE DUP1 MLOAD SWAP1 PUSH1 0x20 ADD KECCAK256 PUSH0 SHR PUSH2 0xC19 SWAP2 SWAP1 PUSH2 0x160B JUMP JUMPDEST PUSH2 0xC23 SWAP2 SWAP1 PUSH2 0x1347 JUMP JUMPDEST PUSH1 0x1 DUP1 PUSH1 0x3 DUP2 LT PUSH2 0xC37 JUMPI PUSH2 0xC36 PUSH2 0x12ED JUMP JUMPDEST JUMPDEST ADD DUP2 SWAP1 SSTORE POP PUSH1 0x1 PUSH1 0x6 TIMESTAMP PREVRANDAO PUSH1 0x40 MLOAD PUSH1 0x20 ADD PUSH2 0xC53 SWAP3 SWAP2 SWAP1 PUSH2 0x15B3 JUMP JUMPDEST PUSH1 0x40 MLOAD PUSH1 0x20 DUP2 DUP4 SUB SUB DUP2 MSTORE SWAP1 PUSH1 0x40 MSTORE DUP1 MLOAD SWAP1 PUSH1 0x20 ADD KECCAK256 PUSH0 SHR PUSH2 0xC75 SWAP2 SWAP1 PUSH2 0x160B JUMP JUMPDEST PUSH2 0xC7F SWAP2 SWAP1 PUSH2 0x1347 JUMP JUMPDEST PUSH1 0x1 PUSH1 0x2 PUSH1 0x3 DUP2 LT PUSH2 0xC94 JUMPI PUSH2 0xC93 PUSH2 0x12ED JUMP JUMPDEST JUMPDEST ADD DUP2 SWAP1 SSTORE POP JUMP JUMPDEST PUSH1 0x40 MLOAD DUP1 PUSH1 0x60 ADD PUSH1 0x40 MSTORE DUP1 PUSH1 0x3 SWAP1 PUSH1 0x20 DUP3 MUL DUP1 CALLDATASIZE DUP4 CALLDATACOPY DUP1 DUP3 ADD SWAP2 POP POP SWAP1 POP POP SWAP1 JUMP JUMPDEST PUSH0 DUP2 SWAP1 POP SWAP2 SWAP1 POP JUMP JUMPDEST PUSH2 0xCCF DUP2 PUSH2 0xCBD JUMP JUMPDEST DUP3 MSTORE POP POP JUMP JUMPDEST PUSH0 PUSH1 0x20 DUP3 ADD SWAP1 POP PUSH2 0xCE8 PUSH0 DUP4 ADD DUP5 PUSH2 0xCC6 JUMP JUMPDEST SWAP3 SWAP2 POP POP JUMP JUMPDEST PUSH0 DUP1 REVERT JUMPDEST PUSH0 DUP2 ISZERO ISZERO SWAP1 POP SWAP2 SWAP1 POP JUMP JUMPDEST PUSH2 0xD06 DUP2 PUSH2 0xCF2 JUMP JUMPDEST DUP2 EQ PUSH2 0xD10 JUMPI PUSH0 DUP1 REVERT JUMPDEST POP JUMP JUMPDEST PUSH0 DUP2 CALLDATALOAD SWAP1 POP PUSH2 0xD21 DUP2 PUSH2 0xCFD JUMP JUMPDEST SWAP3 SWAP2 POP POP JUMP JUMPDEST PUSH0 PUSH1 0x20 DUP3 DUP5 SUB SLT ISZERO PUSH2 0xD3C JUMPI PUSH2 0xD3B PUSH2 0xCEE JUMP JUMPDEST JUMPDEST PUSH0 PUSH2 0xD49 DUP5 DUP3 DUP6 ADD PUSH2 0xD13 JUMP JUMPDEST SWAP2 POP POP SWAP3 SWAP2 POP POP JUMP JUMPDEST PUSH2 0xD5B DUP2 PUSH2 0xCF2 JUMP JUMPDEST DUP3 MSTORE POP POP JUMP JUMPDEST PUSH0 PUSH1 0x20 DUP3 ADD SWAP1 POP PUSH2 0xD74 PUSH0 DUP4 ADD DUP5 PUSH2 0xD52 JUMP JUMPDEST SWAP3 SWAP2 POP POP JUMP JUMPDEST PUSH0 PUSH20 0xFFFFFFFFFFFFFFFFFFFFFFFFFFFFFFFFFFFFFFFF DUP3 AND SWAP1 POP SWAP2 SWAP1 POP JUMP JUMPDEST PUSH0 PUSH2 0xDA3 DUP3 PUSH2 0xD7A JUMP JUMPDEST SWAP1 POP SWAP2 SWAP1 POP JUMP JUMPDEST PUSH2 0xDB3 DUP2 PUSH2 0xD99 JUMP JUMPDEST DUP3 MSTORE POP POP JUMP JUMPDEST PUSH0 PUSH1 0x20 DUP3 ADD SWAP1 POP PUSH2 0xDCC PUSH0 DUP4 ADD DUP5 PUSH2 0xDAA JUMP JUMPDEST SWAP3 SWAP2 POP POP JUMP JUMPDEST PUSH2 0xDDB DUP2 PUSH2 0xCBD JUMP JUMPDEST DUP2 EQ PUSH2 0xDE5 JUMPI PUSH0 DUP1 REVERT JUMPDEST POP JUMP JUMPDEST PUSH0 DUP2 CALLDATALOAD SWAP1 POP PUSH2 0xDF6 DUP2 PUSH2 0xDD2 JUMP JUMPDEST SWAP3 SWAP2 POP POP JUMP JUMPDEST PUSH0 PUSH1 0x20 DUP3 DUP5 SUB SLT ISZERO PUSH2 0xE11 JUMPI PUSH2 0xE10 PUSH2 0xCEE JUMP JUMPDEST JUMPDEST PUSH0 PUSH2 0xE1E DUP5 DUP3 DUP6 ADD PUSH2 0xDE8 JUMP JUMPDEST SWAP2 POP POP SWAP3 SWAP2 POP POP JUMP JUMPDEST PUSH0 DUP1 PUSH1 0x40 DUP4 DUP6 SUB SLT ISZERO PUSH2 0xE3D JUMPI PUSH2 0xE3C PUSH2 0xCEE JUMP JUMPDEST JUMPDEST PUSH0 PUSH2 0xE4A DUP6 DUP3 DUP7 ADD PUSH2 0xD13 JUMP JUMPDEST SWAP3 POP POP PUSH1 0x20 PUSH2 0xE5B DUP6 DUP3 DUP7 ADD PUSH2 0xDE8 JUMP JUMPDEST SWAP2 POP POP SWAP3 POP SWAP3 SWAP1 POP JUMP JUMPDEST PUSH0 PUSH1 0x60 DUP3 ADD SWAP1 POP PUSH2 0xE78 PUSH0 DUP4 ADD DUP7 PUSH2 0xDAA JUMP JUMPDEST PUSH2 0xE85 PUSH1 0x20 DUP4 ADD DUP6 PUSH2 0xCC6 JUMP JUMPDEST PUSH2 0xE92 PUSH1 0x40 DUP4 ADD DUP5 PUSH2 0xD52 JUMP JUMPDEST SWAP5 SWAP4 POP POP POP POP JUMP JUMPDEST PUSH0 DUP2 MLOAD SWAP1 POP SWAP2 SWAP1 POP JUMP JUMPDEST PUSH0 DUP3 DUP3 MSTORE PUSH1 0x20 DUP3 ADD SWAP1 POP SWAP3 SWAP2 POP POP JUMP JUMPDEST PUSH0 DUP2 SWAP1 POP PUSH1 0x20 DUP3 ADD SWAP1 POP SWAP2 SWAP1 POP JUMP JUMPDEST PUSH0 DUP2 MLOAD SWAP1 POP SWAP2 SWAP1 POP JUMP JUMPDEST PUSH0 DUP3 DUP3 MSTORE PUSH1 0x20 DUP3 ADD SWAP1 POP SWAP3 SWAP2 POP POP JUMP JUMPDEST PUSH0 DUP2 SWAP1 POP PUSH1 0x20 DUP3 ADD SWAP1 POP SWAP2 SWAP1 POP JUMP JUMPDEST PUSH2 0xEF5 DUP2 PUSH2 0xD99 JUMP JUMPDEST DUP3 MSTORE POP POP JUMP JUMPDEST PUSH2 0xF04 DUP2 PUSH2 0xCBD JUMP JUMPDEST DUP3 MSTORE POP POP JUMP JUMPDEST PUSH2 0xF13 DUP2 PUSH2 0xCF2 JUMP JUMPDEST DUP3 MSTORE POP POP JUMP JUMPDEST PUSH1 0x60 DUP3 ADD PUSH0 DUP3 ADD MLOAD PUSH2 0xF2D PUSH0 DUP6 ADD DUP3 PUSH2 0xEEC JUMP JUMPDEST POP PUSH1 0x20 DUP3 ADD MLOAD PUSH2 0xF40 PUSH1 0x20 DUP6 ADD DUP3 PUSH2 0xEFB JUMP JUMPDEST POP PUSH1 0x40 DUP3 ADD MLOAD PUSH2 0xF53 PUSH1 0x40 DUP6 ADD DUP3 PUSH2 0xF0A JUMP JUMPDEST POP POP POP POP JUMP JUMPDEST PUSH0 PUSH2 0xF64 DUP4 DUP4 PUSH2 0xF19 JUMP JUMPDEST PUSH1 0x60 DUP4 ADD SWAP1 POP SWAP3 SWAP2 POP POP JUMP JUMPDEST PUSH0 PUSH1 0x20 DUP3 ADD SWAP1 POP SWAP2 SWAP1 POP JUMP JUMPDEST PUSH0 PUSH2 0xF86 DUP3 PUSH2 0xEC3 JUMP JUMPDEST PUSH2 0xF90 DUP2 DUP6 PUSH2 0xECD JUMP JUMPDEST SWAP4 POP PUSH2 0xF9B DUP4 PUSH2 0xEDD JUMP JUMPDEST DUP1 PUSH0 JUMPDEST DUP4 DUP2 LT ISZERO PUSH2 0xFCB JUMPI DUP2 MLOAD PUSH2 0xFB2 DUP9 DUP3 PUSH2 0xF59 JUMP JUMPDEST SWAP8 POP PUSH2 0xFBD DUP4 PUSH2 0xF70 JUMP JUMPDEST SWAP3 POP POP PUSH1 0x1 DUP2 ADD SWAP1 POP PUSH2 0xF9E JUMP JUMPDEST POP DUP6 SWAP4 POP POP POP POP SWAP3 SWAP2 POP POP JUMP JUMPDEST PUSH0 PUSH2 0xFE3 DUP4 DUP4 PUSH2 0xF7C JUMP JUMPDEST SWAP1 POP SWAP3 SWAP2 POP POP JUMP JUMPDEST PUSH0 PUSH1 0x20 DUP3 ADD SWAP1 POP SWAP2 SWAP1 POP JUMP JUMPDEST PUSH0 PUSH2 0x1001 DUP3 PUSH2 0xE9A JUMP JUMPDEST PUSH2 0x100B DUP2 DUP6 PUSH2 0xEA4 JUMP JUMPDEST SWAP4 POP DUP4 PUSH1 0x20 DUP3 MUL DUP6 ADD PUSH2 0x101D DUP6 PUSH2 0xEB4 JUMP JUMPDEST DUP1 PUSH0 JUMPDEST DUP6 DUP2 LT ISZERO PUSH2 0x1058 JUMPI DUP5 DUP5 SUB DUP10 MSTORE DUP2 MLOAD PUSH2 0x1039 DUP6 DUP3 PUSH2 0xFD8 JUMP JUMPDEST SWAP5 POP PUSH2 0x1044 DUP4 PUSH2 0xFEB JUMP JUMPDEST SWAP3 POP PUSH1 0x20 DUP11 ADD SWAP10 POP POP PUSH1 0x1 DUP2 ADD SWAP1 POP PUSH2 0x1020 JUMP JUMPDEST POP DUP3 SWAP8 POP DUP8 SWAP6 POP POP POP POP POP POP SWAP3 SWAP2 POP POP JUMP JUMPDEST PUSH0 PUSH1 0x20 DUP3 ADD SWAP1 POP DUP2 DUP2 SUB PUSH0 DUP4 ADD MSTORE PUSH2 0x1082 DUP2 DUP5 PUSH2 0xFF7 JUMP JUMPDEST SWAP1 POP SWAP3 SWAP2 POP POP JUMP JUMPDEST PUSH0 PUSH1 0x3 SWAP1 POP SWAP2 SWAP1 POP JUMP JUMPDEST PUSH0 DUP2 SWAP1 POP SWAP3 SWAP2 POP POP JUMP JUMPDEST PUSH0 DUP2 SWAP1 POP SWAP2 SWAP1 POP JUMP JUMPDEST PUSH0 PUSH2 0x10B2 DUP4 DUP4 PUSH2 0xEFB JUMP JUMPDEST PUSH1 0x20 DUP4 ADD SWAP1 POP SWAP3 SWAP2 POP POP JUMP JUMPDEST PUSH0 PUSH1 0x20 DUP3 ADD SWAP1 POP SWAP2 SWAP1 POP JUMP JUMPDEST PUSH2 0x10D3 DUP2 PUSH2 0x108A JUMP JUMPDEST PUSH2 0x10DD DUP2 DUP5 PUSH2 0x1094 JUMP JUMPDEST SWAP3 POP PUSH2 0x10E8 DUP3 PUSH2 0x109E JUMP JUMPDEST DUP1 PUSH0 JUMPDEST DUP4 DUP2 LT ISZERO PUSH2 0x1118 JUMPI DUP2 MLOAD PUSH2 0x10FF DUP8 DUP3 PUSH2 0x10A7 JUMP JUMPDEST SWAP7 POP PUSH2 0x110A DUP4 PUSH2 0x10BE JUMP JUMPDEST SWAP3 POP POP PUSH1 0x1 DUP2 ADD SWAP1 POP PUSH2 0x10EB JUMP JUMPDEST POP POP POP POP POP POP JUMP JUMPDEST PUSH0 PUSH1 0x60 DUP3 ADD SWAP1 POP PUSH2 0x1133 PUSH0 DUP4 ADD DUP5 PUSH2 0x10CA JUMP JUMPDEST SWAP3 SWAP2 POP POP JUMP JUMPDEST PUSH0 DUP3 DUP3 MSTORE PUSH1 0x20 DUP3 ADD SWAP1 POP SWAP3 SWAP2 POP POP JUMP JUMPDEST PUSH32 0x47616D652069732066696E697368656400000000000000000000000000000000 PUSH0 DUP3 ADD MSTORE POP JUMP JUMPDEST PUSH0 PUSH2 0x117D PUSH1 0x10 DUP4 PUSH2 0x1139 JUMP JUMPDEST SWAP2 POP PUSH2 0x1188 DUP3 PUSH2 0x1149 JUMP JUMPDEST PUSH1 0x20 DUP3 ADD SWAP1 POP SWAP2 SWAP1 POP JUMP JUMPDEST PUSH0 PUSH1 0x20 DUP3 ADD SWAP1 POP DUP2 DUP2 SUB PUSH0 DUP4 ADD MSTORE PUSH2 0x11AA DUP2 PUSH2 0x1171 JUMP JUMPDEST SWAP1 POP SWAP2 SWAP1 POP JUMP JUMPDEST PUSH32 0x4F6E6C79206F776E65722063616E20736574746C65207468652067616D650000 PUSH0 DUP3 ADD MSTORE POP JUMP JUMPDEST PUSH0 PUSH2 0x11E5 PUSH1 0x1E DUP4 PUSH2 0x1139 JUMP JUMPDEST SWAP2 POP PUSH2 0x11F0 DUP3 PUSH2 0x11B1 JUMP JUMPDEST PUSH1 0x20 DUP3 ADD SWAP1 POP SWAP2 SWAP1 POP JUMP JUMPDEST PUSH0 PUSH1 0x20 DUP3 ADD SWAP1 POP DUP2 DUP2 SUB PUSH0 DUP4 ADD MSTORE PUSH2 0x1212 DUP2 PUSH2 0x11D9 JUMP JUMPDEST SWAP1 POP SWAP2 SWAP1 POP JUMP JUMPDEST PUSH0 PUSH1 0x3 SWAP1 POP SWAP2 SWAP1 POP JUMP JUMPDEST PUSH0 DUP2 SWAP1 POP SWAP2 SWAP1 POP JUMP JUMPDEST PUSH0 DUP2 PUSH0 SHR SWAP1 POP SWAP2 SWAP1 POP JUMP JUMPDEST PUSH0 DUP2 SWAP1 POP SWAP2 SWAP1 POP JUMP JUMPDEST PUSH0 PUSH2 0x1252 PUSH2 0x124D DUP4 PUSH2 0x122C JUMP JUMPDEST PUSH2 0x1237 JUMP JUMPDEST SWAP1 POP SWAP2 SWAP1 POP JUMP JUMPDEST PUSH0 PUSH2 0x1264 DUP3 SLOAD PUSH2 0x1240 JUMP JUMPDEST SWAP1 POP SWAP2 SWAP1 POP JUMP JUMPDEST PUSH0 PUSH1 0x1 DUP3 ADD SWAP1 POP SWAP2 SWAP1 POP JUMP JUMPDEST PUSH2 0x1280 DUP2 PUSH2 0x1219 JUMP JUMPDEST PUSH2 0x128A DUP2 DUP5 PUSH2 0x1094 JUMP JUMPDEST SWAP3 POP PUSH2 0x1295 DUP3 PUSH2 0x1223 JUMP JUMPDEST DUP1 PUSH0 JUMPDEST DUP4 DUP2 LT ISZERO PUSH2 0x12CC JUMPI PUSH2 0x12A9 DUP3 PUSH2 0x1259 JUMP JUMPDEST PUSH2 0x12B3 DUP8 DUP3 PUSH2 0x10A7 JUMP JUMPDEST SWAP7 POP PUSH2 0x12BE DUP4 PUSH2 0x126B JUMP JUMPDEST SWAP3 POP POP PUSH1 0x1 DUP2 ADD SWAP1 POP PUSH2 0x1298 JUMP JUMPDEST POP POP POP POP POP POP JUMP JUMPDEST PUSH0 PUSH1 0x60 DUP3 ADD SWAP1 POP PUSH2 0x12E7 PUSH0 DUP4 ADD DUP5 PUSH2 0x1277 JUMP JUMPDEST SWAP3 SWAP2 POP POP JUMP JUMPDEST PUSH32 0x4E487B7100000000000000000000000000000000000000000000000000000000 PUSH0 MSTORE PUSH1 0x32 PUSH1 0x4 MSTORE PUSH1 0x24 PUSH0 REVERT JUMPDEST PUSH32 0x4E487B7100000000000000000000000000000000000000000000000000000000 PUSH0 MSTORE PUSH1 0x11 PUSH1 0x4 MSTORE PUSH1 0x24 PUSH0 REVERT JUMPDEST PUSH0 PUSH2 0x1351 DUP3 PUSH2 0xCBD JUMP JUMPDEST SWAP2 POP PUSH2 0x135C DUP4 PUSH2 0xCBD JUMP JUMPDEST SWAP3 POP DUP3 DUP3 ADD SWAP1 POP DUP1 DUP3 GT ISZERO PUSH2 0x1374 JUMPI PUSH2 0x1373 PUSH2 0x131A JUMP JUMPDEST JUMPDEST SWAP3 SWAP2 POP POP JUMP JUMPDEST PUSH0 PUSH2 0x1384 DUP3 PUSH2 0xCBD JUMP JUMPDEST SWAP2 POP PUSH2 0x138F DUP4 PUSH2 0xCBD JUMP JUMPDEST SWAP3 POP DUP3 DUP3 MUL PUSH2 0x139D DUP2 PUSH2 0xCBD JUMP JUMPDEST SWAP2 POP DUP3 DUP3 DIV DUP5 EQ DUP4 ISZERO OR PUSH2 0x13B4 JUMPI PUSH2 0x13B3 PUSH2 0x131A JUMP JUMPDEST JUMPDEST POP SWAP3 SWAP2 POP POP JUMP JUMPDEST PUSH32 0x42657420616D6F756E74206D7573742062652067726561746572207468616E20 PUSH0 DUP3 ADD MSTORE PUSH32 0x3000000000000000000000000000000000000000000000000000000000000000 PUSH1 0x20 DUP3 ADD MSTORE POP JUMP JUMPDEST PUSH0 PUSH2 0x1415 PUSH1 0x21 DUP4 PUSH2 0x1139 JUMP JUMPDEST SWAP2 POP PUSH2 0x1420 DUP3 PUSH2 0x13BB JUMP JUMPDEST PUSH1 0x40 DUP3 ADD SWAP1 POP SWAP2 SWAP1 POP JUMP JUMPDEST PUSH0 PUSH1 0x20 DUP3 ADD SWAP1 POP DUP2 DUP2 SUB PUSH0 DUP4 ADD MSTORE PUSH2 0x1442 DUP2 PUSH2 0x1409 JUMP JUMPDEST SWAP1 POP SWAP2 SWAP1 POP JUMP JUMPDEST PUSH32 0x42657420616D6F756E74206D757374206265206C657373207468616E206F7220 PUSH0 DUP3 ADD MSTORE PUSH32 0x657175616C20746F20302E303030303120657468657200000000000000000000 PUSH1 0x20 DUP3 ADD MSTORE POP JUMP JUMPDEST PUSH0 PUSH2 0x14A3 PUSH1 0x36 DUP4 PUSH2 0x1139 JUMP JUMPDEST SWAP2 POP PUSH2 0x14AE DUP3 PUSH2 0x1449 JUMP JUMPDEST PUSH1 0x40 DUP3 ADD SWAP1 POP SWAP2 SWAP1 POP JUMP JUMPDEST PUSH0 PUSH1 0x20 DUP3 ADD SWAP1 POP DUP2 DUP2 SUB PUSH0 DUP4 ADD MSTORE PUSH2 0x14D0 DUP2 PUSH2 0x1497 JUMP JUMPDEST SWAP1 POP SWAP2 SWAP1 POP JUMP JUMPDEST PUSH32 0x496E73756666696369656E742062616C616E6365000000000000000000000000 PUSH0 DUP3 ADD MSTORE POP JUMP JUMPDEST PUSH0 PUSH2 0x150B PUSH1 0x14 DUP4 PUSH2 0x1139 JUMP JUMPDEST SWAP2 POP PUSH2 0x1516 DUP3 PUSH2 0x14D7 JUMP JUMPDEST PUSH1 0x20 DUP3 ADD SWAP1 POP SWAP2 SWAP1 POP JUMP JUMPDEST PUSH0 PUSH1 0x20 DUP3 ADD SWAP1 POP DUP2 DUP2 SUB PUSH0 DUP4 ADD MSTORE PUSH2 0x1538 DUP2 PUSH2 0x14FF JUMP JUMPDEST SWAP1 POP SWAP2 SWAP1 POP JUMP JUMPDEST PUSH0 PUSH1 0x40 DUP3 ADD SWAP1 POP PUSH2 0x1552 PUSH0 DUP4 ADD DUP6 PUSH2 0xCC6 JUMP JUMPDEST PUSH2 0x155F PUSH1 0x20 DUP4 ADD DUP5 PUSH2 0xD52 JUMP JUMPDEST SWAP4 SWAP3 POP POP POP JUMP JUMPDEST PUSH32 0x4E487B7100000000000000000000000000000000000000000000000000000000 PUSH0 MSTORE PUSH1 0x41 PUSH1 0x4 MSTORE PUSH1 0x24 PUSH0 REVERT JUMPDEST PUSH0 DUP2 SWAP1 POP SWAP2 SWAP1 POP JUMP JUMPDEST PUSH2 0x15AD PUSH2 0x15A8 DUP3 PUSH2 0xCBD JUMP JUMPDEST PUSH2 0x1593 JUMP JUMPDEST DUP3 MSTORE POP POP JUMP JUMPDEST PUSH0 PUSH2 0x15BE DUP3 DUP6 PUSH2 0x159C JUMP JUMPDEST PUSH1 0x20 DUP3 ADD SWAP2 POP PUSH2 0x15CE DUP3 DUP5 PUSH2 0x159C JUMP JUMPDEST PUSH1 0x20 DUP3 ADD SWAP2 POP DUP2 SWAP1 POP SWAP4 SWAP3 POP POP POP JUMP JUMPDEST PUSH32 0x4E487B7100000000000000000000000000000000000000000000000000000000 PUSH0 MSTORE PUSH1 0x12 PUSH1 0x4 MSTORE PUSH1 0x24 PUSH0 REVERT JUMPDEST PUSH0 PUSH2 0x1615 DUP3 PUSH2 0xCBD JUMP JUMPDEST SWAP2 POP PUSH2 0x1620 DUP4 PUSH2 0xCBD JUMP JUMPDEST SWAP3 POP DUP3 PUSH2 0x1630 JUMPI PUSH2 0x162F PUSH2 0x15DE JUMP JUMPDEST JUMPDEST DUP3 DUP3 MOD SWAP1 POP SWAP3 SWAP2 POP POP JUMP INVALID LOG2 PUSH5 0x6970667358 0x22 SLT KECCAK256 0xC3 0xF6 0xE4 DUP14 0xEF LOG2 0xB6 0xE5 LOG4 0x29 DUP6 DUP12 0xAD GAS 0xE8 0xB9 GAS ADDRESS 0xDD 0x1E PUSH13 0x3E7106848E2E71453C57776473 PUSH16 0x6C634300081800330000000000000000 "
    },
    "gasEstimates": {
      "creation": {
        "codeDepositCost": "1149000",
        "executionCost": "49735",
        "totalCost": "1198735"
      },
      "external": {
        "bet(bool)": "infinite",
        "betsMap(bool,uint256)": "infinite",
        "dices(uint256)": "infinite",
        "getBalance()": "357",
        "getBets()": "infinite",
        "getDices()": "infinite",
        "isFinished()": "2533",
        "owner()": "2594",
        "settle()": "infinite",
        "totalBet()": "2513"
      },
      "internal": {
        "rollDices()": "infinite"
      }
    },
    "methodIdentifiers": {
      "bet(bool)": "523afb0d",
      "betsMap(bool,uint256)": "a426134c",
      "dices(uint256)": "912475ba",
      "getBalance()": "12065fe0",
      "getBets()": "a6afd5fd",
      "getDices()": "cf9e474b",
      "isFinished()": "7b352962",
      "owner()": "8da5cb5b",
      "settle()": "11da60b4",
      "totalBet()": "fe5e1853"
    }
  },
  "storageLayout": {
    "storage": [
      {
        "astId": 4,
        "contract": "SicBo.sol:SicBo",
        "label": "owner",
        "offset": 0,
        "slot": "0",
        "type": "t_address"
      },
      {
        "astId": 9,
        "contract": "SicBo.sol:SicBo",
        "label": "dices",
        "offset": 0,
        "slot": "1",
        "type": "t_array(t_uint256)3_storage"
      },
      {
        "astId": 12,
        "contract": "SicBo.sol:SicBo",
        "label": "totalBet",
        "offset": 0,
        "slot": "4",
        "type": "t_uint256"
      },
      {
        "astId": 16,
        "contract": "SicBo.sol:SicBo",
        "label": "isFinished",
        "offset": 0,
        "slot": "5",
        "type": "t_bool"
      },
      {
        "astId": 39,
        "contract": "SicBo.sol:SicBo",
        "label": "betsMap",
        "offset": 0,
        "slot": "6",
        "type": "t_mapping(t_bool,t_array(t_struct(Bet)47_storage)dyn_storage)"
      }
    ],
    "types": {
      "t_address": {
        "encoding": "inplace",
        "label": "address",
        "numberOfBytes": "20"
      },
      "t_array(t_struct(Bet)47_storage)dyn_storage": {
        "base": "t_struct(Bet)47_storage",
        "encoding": "dynamic_array",
        "label": "struct SicBo.Bet[]",
        "numberOfBytes": "32"
      },
      "t_array(t_uint256)3_storage": {
        "base": "t_uint256",
        "encoding": "inplace",
        "label": "uint256[3]",
        "numberOfBytes": "96"
      },
      "t_bool": {
        "encoding": "inplace",
        "label": "bool",
        "numberOfBytes": "1"
      },
      "t_mapping(t_bool,t_array(t_struct(Bet)47_storage)dyn_storage)": {
        "encoding": "mapping",
        "key": "t_bool",
        "label": "mapping(bool => struct SicBo.Bet[])",
        "numberOfBytes": "32",
        "value": "t_array(t_struct(Bet)47_storage)dyn_storage"
      },
      "t_struct(Bet)47_storage": {
        "encoding": "inplace",
        "label": "struct SicBo.Bet",
        "members": [
          {
            "astId": 42,
            "contract": "SicBo.sol:SicBo",
            "label": "player",
            "offset": 0,
            "slot": "0",
            "type": "t_address"
          },
          {
            "astId": 44,
            "contract": "SicBo.sol:SicBo",
            "label": "amount",
            "offset": 0,
            "slot": "1",
            "type": "t_uint256"
          },
          {
            "astId": 46,
            "contract": "SicBo.sol:SicBo",
            "label": "isOver",
            "offset": 0,
            "slot": "2",
            "type": "t_bool"
          }
        ],
        "numberOfBytes": "96"
      },
      "t_uint256": {
        "encoding": "inplace",
        "label": "uint256",
        "numberOfBytes": "32"
      }
    }
  },
  "userdoc": {
    "events": {
      "BetEvent(address,uint256,bool)": {
        "notice": "Event emitted when a player places a bet."
      },
      "SettleEvent(uint256[3])": {
        "notice": "Event emitted when the game is settled."
      }
    },
    "kind": "user",
    "methods": {
      "betsMap(bool,uint256)": {
        "notice": "Array of bets placed in the game."
      },
      "dices(uint256)": {
        "notice": "Array of dice values."
      },
      "isFinished()": {
        "notice": "Boolean indicating whether the game is finished."
      },
      "owner()": {
        "notice": "Adress of the owner of the contract."
      },
      "totalBet()": {
        "notice": "Total amount of bets placed in the game."
      }
    },
    "version": 1
  }
}